{
	"contracts/MultisigWallet.sol": {
		"MultisigWallet": {
			"abi": [
				{
					"inputs": [
						{
							"internalType": "address[]",
							"name": "_owners",
							"type": "address[]"
						},
						{
							"internalType": "uint256",
							"name": "_threshod",
							"type": "uint256"
						}
					],
					"stateMutability": "nonpayable",
					"type": "constructor"
				},
				{
					"anonymous": false,
					"inputs": [
						{
							"indexed": false,
							"internalType": "bytes32",
							"name": "txHash",
							"type": "bytes32"
						}
					],
					"name": "ExecutionFailure",
					"type": "event"
				},
				{
					"anonymous": false,
					"inputs": [
						{
							"indexed": false,
							"internalType": "bytes32",
							"name": "txHash",
							"type": "bytes32"
						}
					],
					"name": "ExecutionSuccess",
					"type": "event"
				},
				{
					"inputs": [
						{
							"internalType": "bytes32",
							"name": "dataHash",
							"type": "bytes32"
						},
						{
							"internalType": "bytes",
							"name": "signatures",
							"type": "bytes"
						}
					],
					"name": "checkSignatures",
					"outputs": [],
					"stateMutability": "view",
					"type": "function"
				},
				{
					"inputs": [
						{
							"internalType": "address",
							"name": "to",
							"type": "address"
						},
						{
							"internalType": "uint256",
							"name": "value",
							"type": "uint256"
						},
						{
							"internalType": "bytes",
							"name": "data",
							"type": "bytes"
						},
						{
							"internalType": "uint256",
							"name": "_nonce",
							"type": "uint256"
						},
						{
							"internalType": "uint256",
							"name": "chainid",
							"type": "uint256"
						}
					],
					"name": "encodeTransactionData",
					"outputs": [
						{
							"internalType": "bytes32",
							"name": "",
							"type": "bytes32"
						}
					],
					"stateMutability": "pure",
					"type": "function"
				},
				{
					"inputs": [
						{
							"internalType": "address",
							"name": "to",
							"type": "address"
						},
						{
							"internalType": "uint256",
							"name": "value",
							"type": "uint256"
						},
						{
							"internalType": "bytes",
							"name": "data",
							"type": "bytes"
						},
						{
							"internalType": "bytes",
							"name": "signatures",
							"type": "bytes"
						}
					],
					"name": "execTransation",
					"outputs": [
						{
							"internalType": "bool",
							"name": "success",
							"type": "bool"
						}
					],
					"stateMutability": "payable",
					"type": "function"
				},
				{
					"inputs": [
						{
							"internalType": "address",
							"name": "",
							"type": "address"
						}
					],
					"name": "isOwner",
					"outputs": [
						{
							"internalType": "bool",
							"name": "",
							"type": "bool"
						}
					],
					"stateMutability": "view",
					"type": "function"
				},
				{
					"inputs": [],
					"name": "nonce",
					"outputs": [
						{
							"internalType": "uint256",
							"name": "",
							"type": "uint256"
						}
					],
					"stateMutability": "view",
					"type": "function"
				},
				{
					"inputs": [],
					"name": "ownerCount",
					"outputs": [
						{
							"internalType": "uint256",
							"name": "",
							"type": "uint256"
						}
					],
					"stateMutability": "view",
					"type": "function"
				},
				{
					"inputs": [
						{
							"internalType": "uint256",
							"name": "",
							"type": "uint256"
						}
					],
					"name": "owners",
					"outputs": [
						{
							"internalType": "address",
							"name": "",
							"type": "address"
						}
					],
					"stateMutability": "view",
					"type": "function"
				},
				{
					"inputs": [],
					"name": "threshold",
					"outputs": [
						{
							"internalType": "uint256",
							"name": "",
							"type": "uint256"
						}
					],
					"stateMutability": "view",
					"type": "function"
				},
				{
					"stateMutability": "payable",
					"type": "receive"
				}
			],
			"devdoc": {
				"kind": "dev",
				"methods": {
					"checkSignatures(bytes32,bytes)": {
						"details": "检查签名和交易数据是否对应。如果是无效签名，交易会revert",
						"params": {
							"dataHash": "交易数据哈希",
							"signatures": "几个多签签名打包在一起"
						}
					}
				},
				"version": 1
			},
			"evm": {
				"assembly": "    /* \"contracts/MultisigWallet.sol\":58:4542  contract MultisigWallet {... */\n  mstore(0x40, 0x80)\n    /* \"contracts/MultisigWallet.sol\":619:745  constructor(... */\n  callvalue\n  dup1\n  iszero\n  tag_1\n  jumpi\n  0x00\n  dup1\n  revert\ntag_1:\n  pop\n  mload(0x40)\n  sub(codesize, bytecodeSize)\n  dup1\n  bytecodeSize\n  dup4\n  codecopy\n  dup2\n  dup2\n  add\n  0x40\n  mstore\n  dup2\n  add\n  swap1\n  tag_2\n  swap2\n  swap1\n  tag_3\n  jump\t// in\ntag_2:\n    /* \"contracts/MultisigWallet.sol\":707:738  _setupOwners(_owners,_threshod) */\n  tag_6\n    /* \"contracts/MultisigWallet.sol\":720:727  _owners */\n  dup3\n    /* \"contracts/MultisigWallet.sol\":728:737  _threshod */\n  dup3\n    /* \"contracts/MultisigWallet.sol\":707:719  _setupOwners */\n  shl(0x20, tag_7)\n    /* \"contracts/MultisigWallet.sol\":707:738  _setupOwners(_owners,_threshod) */\n  0x20\n  shr\n  jump\t// in\ntag_6:\n    /* \"contracts/MultisigWallet.sol\":619:745  constructor(... */\n  pop\n  pop\n    /* \"contracts/MultisigWallet.sol\":58:4542  contract MultisigWallet {... */\n  jump(tag_8)\n    /* \"contracts/MultisigWallet.sol\":751:1310  function _setupOwners(address[] memory _owners, uint256 _threshold) internal  {... */\ntag_7:\n    /* \"contracts/MultisigWallet.sol\":860:861  0 */\n  0x00\n    /* \"contracts/MultisigWallet.sol\":847:856  threshold */\n  sload(0x03)\n    /* \"contracts/MultisigWallet.sol\":847:861  threshold == 0 */\n  eq\n    /* \"contracts/MultisigWallet.sol\":839:870  require(threshold == 0,\"DQ500\") */\n  tag_10\n  jumpi\n  mload(0x40)\n  0x08c379a000000000000000000000000000000000000000000000000000000000\n  dup2\n  mstore\n  0x04\n  add\n  tag_11\n  swap1\n  tag_12\n  jump\t// in\ntag_11:\n  mload(0x40)\n  dup1\n  swap2\n  sub\n  swap1\n  revert\ntag_10:\n    /* \"contracts/MultisigWallet.sol\":902:909  _owners */\n  dup2\n    /* \"contracts/MultisigWallet.sol\":902:916  _owners.length */\n  mload\n    /* \"contracts/MultisigWallet.sol\":888:898  _threshold */\n  dup2\n    /* \"contracts/MultisigWallet.sol\":888:916  _threshold <= _owners.length */\n  gt\n  iszero\n    /* \"contracts/MultisigWallet.sol\":880:925  require(_threshold <= _owners.length,\"DQ501\") */\n  tag_13\n  jumpi\n  mload(0x40)\n  0x08c379a000000000000000000000000000000000000000000000000000000000\n  dup2\n  mstore\n  0x04\n  add\n  tag_14\n  swap1\n  tag_15\n  jump\t// in\ntag_14:\n  mload(0x40)\n  dup1\n  swap2\n  sub\n  swap1\n  revert\ntag_13:\n    /* \"contracts/MultisigWallet.sol\":957:958  1 */\n  0x01\n    /* \"contracts/MultisigWallet.sol\":943:953  _threshold */\n  dup2\n    /* \"contracts/MultisigWallet.sol\":943:958  _threshold >= 1 */\n  lt\n  iszero\n    /* \"contracts/MultisigWallet.sol\":935:967  require(_threshold >= 1,\"DQ502\") */\n  tag_16\n  jumpi\n  mload(0x40)\n  0x08c379a000000000000000000000000000000000000000000000000000000000\n  dup2\n  mstore\n  0x04\n  add\n  tag_17\n  swap1\n  tag_18\n  jump\t// in\ntag_17:\n  mload(0x40)\n  dup1\n  swap2\n  sub\n  swap1\n  revert\ntag_16:\n    /* \"contracts/MultisigWallet.sol\":982:991  uint256 i */\n  0x00\n    /* \"contracts/MultisigWallet.sol\":978:1235  for(uint256 i = 0; i < _owners.length; i++){... */\ntag_19:\n    /* \"contracts/MultisigWallet.sol\":1001:1008  _owners */\n  dup3\n    /* \"contracts/MultisigWallet.sol\":1001:1015  _owners.length */\n  mload\n    /* \"contracts/MultisigWallet.sol\":997:998  i */\n  dup2\n    /* \"contracts/MultisigWallet.sol\":997:1015  i < _owners.length */\n  lt\n    /* \"contracts/MultisigWallet.sol\":978:1235  for(uint256 i = 0; i < _owners.length; i++){... */\n  iszero\n  tag_20\n  jumpi\n    /* \"contracts/MultisigWallet.sol\":1035:1048  address owner */\n  0x00\n    /* \"contracts/MultisigWallet.sol\":1051:1058  _owners */\n  dup4\n    /* \"contracts/MultisigWallet.sol\":1059:1060  i */\n  dup3\n    /* \"contracts/MultisigWallet.sol\":1051:1061  _owners[i] */\n  dup2\n  mload\n  dup2\n  lt\n  tag_22\n  jumpi\n  tag_23\n  tag_24\n  jump\t// in\ntag_23:\ntag_22:\n  0x20\n  mul\n  0x20\n  add\n  add\n  mload\n    /* \"contracts/MultisigWallet.sol\":1035:1061  address owner = _owners[i] */\n  swap1\n  pop\n    /* \"contracts/MultisigWallet.sol\":1100:1101  0 */\n  0x00\n    /* \"contracts/MultisigWallet.sol\":1083:1102  owner != address(0) */\n  0xffffffffffffffffffffffffffffffffffffffff\n  and\n    /* \"contracts/MultisigWallet.sol\":1083:1088  owner */\n  dup2\n    /* \"contracts/MultisigWallet.sol\":1083:1102  owner != address(0) */\n  0xffffffffffffffffffffffffffffffffffffffff\n  and\n  eq\n  iszero\n    /* \"contracts/MultisigWallet.sol\":1083:1128  owner != address(0) && owner != address(this) */\n  dup1\n  iszero\n  tag_25\n  jumpi\n  pop\n    /* \"contracts/MultisigWallet.sol\":1123:1127  this */\n  address\n    /* \"contracts/MultisigWallet.sol\":1106:1128  owner != address(this) */\n  0xffffffffffffffffffffffffffffffffffffffff\n  and\n    /* \"contracts/MultisigWallet.sol\":1106:1111  owner */\n  dup2\n    /* \"contracts/MultisigWallet.sol\":1106:1128  owner != address(this) */\n  0xffffffffffffffffffffffffffffffffffffffff\n  and\n  eq\n  iszero\n    /* \"contracts/MultisigWallet.sol\":1083:1128  owner != address(0) && owner != address(this) */\ntag_25:\n    /* \"contracts/MultisigWallet.sol\":1083:1147  owner != address(0) && owner != address(this) && !isOwner[owner] */\n  dup1\n  iszero\n  tag_26\n  jumpi\n  pop\n    /* \"contracts/MultisigWallet.sol\":1133:1140  isOwner */\n  0x01\n    /* \"contracts/MultisigWallet.sol\":1133:1147  isOwner[owner] */\n  0x00\n    /* \"contracts/MultisigWallet.sol\":1141:1146  owner */\n  dup3\n    /* \"contracts/MultisigWallet.sol\":1133:1147  isOwner[owner] */\n  0xffffffffffffffffffffffffffffffffffffffff\n  and\n  0xffffffffffffffffffffffffffffffffffffffff\n  and\n  dup2\n  mstore\n  0x20\n  add\n  swap1\n  dup2\n  mstore\n  0x20\n  add\n  0x00\n  keccak256\n  0x00\n  swap1\n  sload\n  swap1\n  0x0100\n  exp\n  swap1\n  div\n  0xff\n  and\n    /* \"contracts/MultisigWallet.sol\":1132:1147  !isOwner[owner] */\n  iszero\n    /* \"contracts/MultisigWallet.sol\":1083:1147  owner != address(0) && owner != address(this) && !isOwner[owner] */\ntag_26:\n    /* \"contracts/MultisigWallet.sol\":1075:1156  require(owner != address(0) && owner != address(this) && !isOwner[owner],\"DQ503\") */\n  tag_27\n  jumpi\n  mload(0x40)\n  0x08c379a000000000000000000000000000000000000000000000000000000000\n  dup2\n  mstore\n  0x04\n  add\n  tag_28\n  swap1\n  tag_29\n  jump\t// in\ntag_28:\n  mload(0x40)\n  dup1\n  swap2\n  sub\n  swap1\n  revert\ntag_27:\n    /* \"contracts/MultisigWallet.sol\":1171:1177  owners */\n  0x00\n    /* \"contracts/MultisigWallet.sol\":1183:1188  owner */\n  dup2\n    /* \"contracts/MultisigWallet.sol\":1171:1189  owners.push(owner) */\n  swap1\n  dup1\n  0x01\n  dup2\n  sload\n  add\n  dup1\n  dup3\n  sstore\n  dup1\n  swap2\n  pop\n  pop\n  0x01\n  swap1\n  sub\n  swap1\n  0x00\n  mstore\n  keccak256(0x00, 0x20)\n  add\n  0x00\n  swap1\n  swap2\n  swap1\n  swap2\n  swap1\n  swap2\n  0x0100\n  exp\n  dup2\n  sload\n  dup2\n  0xffffffffffffffffffffffffffffffffffffffff\n  mul\n  not\n  and\n  swap1\n  dup4\n  0xffffffffffffffffffffffffffffffffffffffff\n  and\n  mul\n  or\n  swap1\n  sstore\n  pop\n    /* \"contracts/MultisigWallet.sol\":1220:1224  true */\n  0x01\n    /* \"contracts/MultisigWallet.sol\":1203:1210  isOwner */\n  dup1\n    /* \"contracts/MultisigWallet.sol\":1203:1217  isOwner[owner] */\n  0x00\n    /* \"contracts/MultisigWallet.sol\":1211:1216  owner */\n  dup4\n    /* \"contracts/MultisigWallet.sol\":1203:1217  isOwner[owner] */\n  0xffffffffffffffffffffffffffffffffffffffff\n  and\n  0xffffffffffffffffffffffffffffffffffffffff\n  and\n  dup2\n  mstore\n  0x20\n  add\n  swap1\n  dup2\n  mstore\n  0x20\n  add\n  0x00\n  keccak256\n  0x00\n    /* \"contracts/MultisigWallet.sol\":1203:1224  isOwner[owner] = true */\n  0x0100\n  exp\n  dup2\n  sload\n  dup2\n  0xff\n  mul\n  not\n  and\n  swap1\n  dup4\n  iszero\n  iszero\n  mul\n  or\n  swap1\n  sstore\n  pop\n    /* \"contracts/MultisigWallet.sol\":1021:1235  {... */\n  pop\n    /* \"contracts/MultisigWallet.sol\":1017:1020  i++ */\n  dup1\n  dup1\n  0x01\n  add\n  swap2\n  pop\n  pop\n    /* \"contracts/MultisigWallet.sol\":978:1235  for(uint256 i = 0; i < _owners.length; i++){... */\n  jump(tag_19)\ntag_20:\n  pop\n    /* \"contracts/MultisigWallet.sol\":1257:1264  _owners */\n  dup2\n    /* \"contracts/MultisigWallet.sol\":1257:1271  _owners.length */\n  mload\n    /* \"contracts/MultisigWallet.sol\":1244:1254  ownerCount */\n  0x02\n    /* \"contracts/MultisigWallet.sol\":1244:1271  ownerCount = _owners.length */\n  dup2\n  swap1\n  sstore\n  pop\n    /* \"contracts/MultisigWallet.sol\":1293:1303  _threshold */\n  dup1\n    /* \"contracts/MultisigWallet.sol\":1281:1290  threshold */\n  0x03\n    /* \"contracts/MultisigWallet.sol\":1281:1303  threshold = _threshold */\n  dup2\n  swap1\n  sstore\n  pop\n    /* \"contracts/MultisigWallet.sol\":751:1310  function _setupOwners(address[] memory _owners, uint256 _threshold) internal  {... */\n  pop\n  pop\n  jump\t// out\n    /* \"#utility.yul\":7:82   */\ntag_31:\n    /* \"#utility.yul\":40:46   */\n  0x00\n    /* \"#utility.yul\":73:75   */\n  0x40\n    /* \"#utility.yul\":67:76   */\n  mload\n    /* \"#utility.yul\":57:76   */\n  swap1\n  pop\n    /* \"#utility.yul\":7:82   */\n  swap1\n  jump\t// out\n    /* \"#utility.yul\":88:205   */\ntag_32:\n    /* \"#utility.yul\":197:198   */\n  0x00\n    /* \"#utility.yul\":194:195   */\n  dup1\n    /* \"#utility.yul\":187:199   */\n  revert\n    /* \"#utility.yul\":211:328   */\ntag_33:\n    /* \"#utility.yul\":320:321   */\n  0x00\n    /* \"#utility.yul\":317:318   */\n  dup1\n    /* \"#utility.yul\":310:322   */\n  revert\n    /* \"#utility.yul\":334:451   */\ntag_34:\n    /* \"#utility.yul\":443:444   */\n  0x00\n    /* \"#utility.yul\":440:441   */\n  dup1\n    /* \"#utility.yul\":433:445   */\n  revert\n    /* \"#utility.yul\":457:559   */\ntag_35:\n    /* \"#utility.yul\":498:504   */\n  0x00\n    /* \"#utility.yul\":549:551   */\n  0x1f\n    /* \"#utility.yul\":545:552   */\n  not\n    /* \"#utility.yul\":540:542   */\n  0x1f\n    /* \"#utility.yul\":533:538   */\n  dup4\n    /* \"#utility.yul\":529:543   */\n  add\n    /* \"#utility.yul\":525:553   */\n  and\n    /* \"#utility.yul\":515:553   */\n  swap1\n  pop\n    /* \"#utility.yul\":457:559   */\n  swap2\n  swap1\n  pop\n  jump\t// out\n    /* \"#utility.yul\":565:745   */\ntag_36:\n    /* \"#utility.yul\":613:690   */\n  0x4e487b7100000000000000000000000000000000000000000000000000000000\n    /* \"#utility.yul\":610:611   */\n  0x00\n    /* \"#utility.yul\":603:691   */\n  mstore\n    /* \"#utility.yul\":710:714   */\n  0x41\n    /* \"#utility.yul\":707:708   */\n  0x04\n    /* \"#utility.yul\":700:715   */\n  mstore\n    /* \"#utility.yul\":734:738   */\n  0x24\n    /* \"#utility.yul\":731:732   */\n  0x00\n    /* \"#utility.yul\":724:739   */\n  revert\n    /* \"#utility.yul\":751:1032   */\ntag_37:\n    /* \"#utility.yul\":834:861   */\n  tag_67\n    /* \"#utility.yul\":856:860   */\n  dup3\n    /* \"#utility.yul\":834:861   */\n  tag_35\n  jump\t// in\ntag_67:\n    /* \"#utility.yul\":826:832   */\n  dup2\n    /* \"#utility.yul\":822:862   */\n  add\n    /* \"#utility.yul\":964:970   */\n  dup2\n    /* \"#utility.yul\":952:962   */\n  dup2\n    /* \"#utility.yul\":949:971   */\n  lt\n    /* \"#utility.yul\":928:946   */\n  0xffffffffffffffff\n    /* \"#utility.yul\":916:926   */\n  dup3\n    /* \"#utility.yul\":913:947   */\n  gt\n    /* \"#utility.yul\":910:972   */\n  or\n    /* \"#utility.yul\":907:995   */\n  iszero\n  tag_68\n  jumpi\n    /* \"#utility.yul\":975:993   */\n  tag_69\n  tag_36\n  jump\t// in\ntag_69:\n    /* \"#utility.yul\":907:995   */\ntag_68:\n    /* \"#utility.yul\":1015:1025   */\n  dup1\n    /* \"#utility.yul\":1011:1013   */\n  0x40\n    /* \"#utility.yul\":1004:1026   */\n  mstore\n    /* \"#utility.yul\":794:1032   */\n  pop\n    /* \"#utility.yul\":751:1032   */\n  pop\n  pop\n  jump\t// out\n    /* \"#utility.yul\":1038:1167   */\ntag_38:\n    /* \"#utility.yul\":1072:1078   */\n  0x00\n    /* \"#utility.yul\":1099:1119   */\n  tag_71\n  tag_31\n  jump\t// in\ntag_71:\n    /* \"#utility.yul\":1089:1119   */\n  swap1\n  pop\n    /* \"#utility.yul\":1128:1161   */\n  tag_72\n    /* \"#utility.yul\":1156:1160   */\n  dup3\n    /* \"#utility.yul\":1148:1154   */\n  dup3\n    /* \"#utility.yul\":1128:1161   */\n  tag_37\n  jump\t// in\ntag_72:\n    /* \"#utility.yul\":1038:1167   */\n  swap2\n  swap1\n  pop\n  jump\t// out\n    /* \"#utility.yul\":1173:1484   */\ntag_39:\n    /* \"#utility.yul\":1250:1254   */\n  0x00\n    /* \"#utility.yul\":1340:1358   */\n  0xffffffffffffffff\n    /* \"#utility.yul\":1332:1338   */\n  dup3\n    /* \"#utility.yul\":1329:1359   */\n  gt\n    /* \"#utility.yul\":1326:1382   */\n  iszero\n  tag_74\n  jumpi\n    /* \"#utility.yul\":1362:1380   */\n  tag_75\n  tag_36\n  jump\t// in\ntag_75:\n    /* \"#utility.yul\":1326:1382   */\ntag_74:\n    /* \"#utility.yul\":1412:1416   */\n  0x20\n    /* \"#utility.yul\":1404:1410   */\n  dup3\n    /* \"#utility.yul\":1400:1417   */\n  mul\n    /* \"#utility.yul\":1392:1417   */\n  swap1\n  pop\n    /* \"#utility.yul\":1472:1476   */\n  0x20\n    /* \"#utility.yul\":1466:1470   */\n  dup2\n    /* \"#utility.yul\":1462:1477   */\n  add\n    /* \"#utility.yul\":1454:1477   */\n  swap1\n  pop\n    /* \"#utility.yul\":1173:1484   */\n  swap2\n  swap1\n  pop\n  jump\t// out\n    /* \"#utility.yul\":1490:1607   */\ntag_40:\n    /* \"#utility.yul\":1599:1600   */\n  0x00\n    /* \"#utility.yul\":1596:1597   */\n  dup1\n    /* \"#utility.yul\":1589:1601   */\n  revert\n    /* \"#utility.yul\":1613:1739   */\ntag_41:\n    /* \"#utility.yul\":1650:1657   */\n  0x00\n    /* \"#utility.yul\":1690:1732   */\n  0xffffffffffffffffffffffffffffffffffffffff\n    /* \"#utility.yul\":1683:1688   */\n  dup3\n    /* \"#utility.yul\":1679:1733   */\n  and\n    /* \"#utility.yul\":1668:1733   */\n  swap1\n  pop\n    /* \"#utility.yul\":1613:1739   */\n  swap2\n  swap1\n  pop\n  jump\t// out\n    /* \"#utility.yul\":1745:1841   */\ntag_42:\n    /* \"#utility.yul\":1782:1789   */\n  0x00\n    /* \"#utility.yul\":1811:1835   */\n  tag_79\n    /* \"#utility.yul\":1829:1834   */\n  dup3\n    /* \"#utility.yul\":1811:1835   */\n  tag_41\n  jump\t// in\ntag_79:\n    /* \"#utility.yul\":1800:1835   */\n  swap1\n  pop\n    /* \"#utility.yul\":1745:1841   */\n  swap2\n  swap1\n  pop\n  jump\t// out\n    /* \"#utility.yul\":1847:1969   */\ntag_43:\n    /* \"#utility.yul\":1920:1944   */\n  tag_81\n    /* \"#utility.yul\":1938:1943   */\n  dup2\n    /* \"#utility.yul\":1920:1944   */\n  tag_42\n  jump\t// in\ntag_81:\n    /* \"#utility.yul\":1913:1918   */\n  dup2\n    /* \"#utility.yul\":1910:1945   */\n  eq\n    /* \"#utility.yul\":1900:1963   */\n  tag_82\n  jumpi\n    /* \"#utility.yul\":1959:1960   */\n  0x00\n    /* \"#utility.yul\":1956:1957   */\n  dup1\n    /* \"#utility.yul\":1949:1961   */\n  revert\n    /* \"#utility.yul\":1900:1963   */\ntag_82:\n    /* \"#utility.yul\":1847:1969   */\n  pop\n  jump\t// out\n    /* \"#utility.yul\":1975:2118   */\ntag_44:\n    /* \"#utility.yul\":2032:2037   */\n  0x00\n    /* \"#utility.yul\":2063:2069   */\n  dup2\n    /* \"#utility.yul\":2057:2070   */\n  mload\n    /* \"#utility.yul\":2048:2070   */\n  swap1\n  pop\n    /* \"#utility.yul\":2079:2112   */\n  tag_84\n    /* \"#utility.yul\":2106:2111   */\n  dup2\n    /* \"#utility.yul\":2079:2112   */\n  tag_43\n  jump\t// in\ntag_84:\n    /* \"#utility.yul\":1975:2118   */\n  swap3\n  swap2\n  pop\n  pop\n  jump\t// out\n    /* \"#utility.yul\":2141:2873   */\ntag_45:\n    /* \"#utility.yul\":2248:2253   */\n  0x00\n    /* \"#utility.yul\":2273:2354   */\n  tag_86\n    /* \"#utility.yul\":2289:2353   */\n  tag_87\n    /* \"#utility.yul\":2346:2352   */\n  dup5\n    /* \"#utility.yul\":2289:2353   */\n  tag_39\n  jump\t// in\ntag_87:\n    /* \"#utility.yul\":2273:2354   */\n  tag_38\n  jump\t// in\ntag_86:\n    /* \"#utility.yul\":2264:2354   */\n  swap1\n  pop\n    /* \"#utility.yul\":2374:2379   */\n  dup1\n    /* \"#utility.yul\":2403:2409   */\n  dup4\n    /* \"#utility.yul\":2396:2401   */\n  dup3\n    /* \"#utility.yul\":2389:2410   */\n  mstore\n    /* \"#utility.yul\":2437:2441   */\n  0x20\n    /* \"#utility.yul\":2430:2435   */\n  dup3\n    /* \"#utility.yul\":2426:2442   */\n  add\n    /* \"#utility.yul\":2419:2442   */\n  swap1\n  pop\n    /* \"#utility.yul\":2490:2494   */\n  0x20\n    /* \"#utility.yul\":2482:2488   */\n  dup5\n    /* \"#utility.yul\":2478:2495   */\n  mul\n    /* \"#utility.yul\":2470:2476   */\n  dup4\n    /* \"#utility.yul\":2466:2496   */\n  add\n    /* \"#utility.yul\":2519:2522   */\n  dup6\n    /* \"#utility.yul\":2511:2517   */\n  dup2\n    /* \"#utility.yul\":2508:2523   */\n  gt\n    /* \"#utility.yul\":2505:2627   */\n  iszero\n  tag_88\n  jumpi\n    /* \"#utility.yul\":2538:2617   */\n  tag_89\n  tag_40\n  jump\t// in\ntag_89:\n    /* \"#utility.yul\":2505:2627   */\ntag_88:\n    /* \"#utility.yul\":2653:2659   */\n  dup4\n    /* \"#utility.yul\":2636:2867   */\ntag_90:\n    /* \"#utility.yul\":2670:2676   */\n  dup2\n    /* \"#utility.yul\":2665:2668   */\n  dup2\n    /* \"#utility.yul\":2662:2677   */\n  lt\n    /* \"#utility.yul\":2636:2867   */\n  iszero\n  tag_92\n  jumpi\n    /* \"#utility.yul\":2745:2748   */\n  dup1\n    /* \"#utility.yul\":2774:2822   */\n  tag_93\n    /* \"#utility.yul\":2818:2821   */\n  dup9\n    /* \"#utility.yul\":2806:2816   */\n  dup3\n    /* \"#utility.yul\":2774:2822   */\n  tag_44\n  jump\t// in\ntag_93:\n    /* \"#utility.yul\":2769:2772   */\n  dup5\n    /* \"#utility.yul\":2762:2823   */\n  mstore\n    /* \"#utility.yul\":2852:2856   */\n  0x20\n    /* \"#utility.yul\":2847:2850   */\n  dup5\n    /* \"#utility.yul\":2843:2857   */\n  add\n    /* \"#utility.yul\":2836:2857   */\n  swap4\n  pop\n    /* \"#utility.yul\":2712:2867   */\n  pop\n    /* \"#utility.yul\":2696:2700   */\n  0x20\n    /* \"#utility.yul\":2691:2694   */\n  dup2\n    /* \"#utility.yul\":2687:2701   */\n  add\n    /* \"#utility.yul\":2680:2701   */\n  swap1\n  pop\n    /* \"#utility.yul\":2636:2867   */\n  jump(tag_90)\ntag_92:\n    /* \"#utility.yul\":2640:2661   */\n  pop\n    /* \"#utility.yul\":2254:2873   */\n  pop\n  pop\n    /* \"#utility.yul\":2141:2873   */\n  swap4\n  swap3\n  pop\n  pop\n  pop\n  jump\t// out\n    /* \"#utility.yul\":2896:3281   */\ntag_46:\n    /* \"#utility.yul\":2978:2983   */\n  0x00\n    /* \"#utility.yul\":3027:3030   */\n  dup3\n    /* \"#utility.yul\":3020:3024   */\n  0x1f\n    /* \"#utility.yul\":3012:3018   */\n  dup4\n    /* \"#utility.yul\":3008:3025   */\n  add\n    /* \"#utility.yul\":3004:3031   */\n  slt\n    /* \"#utility.yul\":2994:3116   */\n  tag_95\n  jumpi\n    /* \"#utility.yul\":3035:3114   */\n  tag_96\n  tag_34\n  jump\t// in\ntag_96:\n    /* \"#utility.yul\":2994:3116   */\ntag_95:\n    /* \"#utility.yul\":3145:3151   */\n  dup2\n    /* \"#utility.yul\":3139:3152   */\n  mload\n    /* \"#utility.yul\":3170:3275   */\n  tag_97\n    /* \"#utility.yul\":3271:3274   */\n  dup5\n    /* \"#utility.yul\":3263:3269   */\n  dup3\n    /* \"#utility.yul\":3256:3260   */\n  0x20\n    /* \"#utility.yul\":3248:3254   */\n  dup7\n    /* \"#utility.yul\":3244:3261   */\n  add\n    /* \"#utility.yul\":3170:3275   */\n  tag_45\n  jump\t// in\ntag_97:\n    /* \"#utility.yul\":3161:3275   */\n  swap2\n  pop\n    /* \"#utility.yul\":2984:3281   */\n  pop\n    /* \"#utility.yul\":2896:3281   */\n  swap3\n  swap2\n  pop\n  pop\n  jump\t// out\n    /* \"#utility.yul\":3287:3364   */\ntag_47:\n    /* \"#utility.yul\":3324:3331   */\n  0x00\n    /* \"#utility.yul\":3353:3358   */\n  dup2\n    /* \"#utility.yul\":3342:3358   */\n  swap1\n  pop\n    /* \"#utility.yul\":3287:3364   */\n  swap2\n  swap1\n  pop\n  jump\t// out\n    /* \"#utility.yul\":3370:3492   */\ntag_48:\n    /* \"#utility.yul\":3443:3467   */\n  tag_100\n    /* \"#utility.yul\":3461:3466   */\n  dup2\n    /* \"#utility.yul\":3443:3467   */\n  tag_47\n  jump\t// in\ntag_100:\n    /* \"#utility.yul\":3436:3441   */\n  dup2\n    /* \"#utility.yul\":3433:3468   */\n  eq\n    /* \"#utility.yul\":3423:3486   */\n  tag_101\n  jumpi\n    /* \"#utility.yul\":3482:3483   */\n  0x00\n    /* \"#utility.yul\":3479:3480   */\n  dup1\n    /* \"#utility.yul\":3472:3484   */\n  revert\n    /* \"#utility.yul\":3423:3486   */\ntag_101:\n    /* \"#utility.yul\":3370:3492   */\n  pop\n  jump\t// out\n    /* \"#utility.yul\":3498:3641   */\ntag_49:\n    /* \"#utility.yul\":3555:3560   */\n  0x00\n    /* \"#utility.yul\":3586:3592   */\n  dup2\n    /* \"#utility.yul\":3580:3593   */\n  mload\n    /* \"#utility.yul\":3571:3593   */\n  swap1\n  pop\n    /* \"#utility.yul\":3602:3635   */\n  tag_103\n    /* \"#utility.yul\":3629:3634   */\n  dup2\n    /* \"#utility.yul\":3602:3635   */\n  tag_48\n  jump\t// in\ntag_103:\n    /* \"#utility.yul\":3498:3641   */\n  swap3\n  swap2\n  pop\n  pop\n  jump\t// out\n    /* \"#utility.yul\":3647:4357   */\ntag_3:\n    /* \"#utility.yul\":3751:3757   */\n  0x00\n    /* \"#utility.yul\":3759:3765   */\n  dup1\n    /* \"#utility.yul\":3808:3810   */\n  0x40\n    /* \"#utility.yul\":3796:3805   */\n  dup4\n    /* \"#utility.yul\":3787:3794   */\n  dup6\n    /* \"#utility.yul\":3783:3806   */\n  sub\n    /* \"#utility.yul\":3779:3811   */\n  slt\n    /* \"#utility.yul\":3776:3895   */\n  iszero\n  tag_105\n  jumpi\n    /* \"#utility.yul\":3814:3893   */\n  tag_106\n  tag_32\n  jump\t// in\ntag_106:\n    /* \"#utility.yul\":3776:3895   */\ntag_105:\n    /* \"#utility.yul\":3955:3956   */\n  0x00\n    /* \"#utility.yul\":3944:3953   */\n  dup4\n    /* \"#utility.yul\":3940:3957   */\n  add\n    /* \"#utility.yul\":3934:3958   */\n  mload\n    /* \"#utility.yul\":3985:4003   */\n  0xffffffffffffffff\n    /* \"#utility.yul\":3977:3983   */\n  dup2\n    /* \"#utility.yul\":3974:4004   */\n  gt\n    /* \"#utility.yul\":3971:4088   */\n  iszero\n  tag_107\n  jumpi\n    /* \"#utility.yul\":4007:4086   */\n  tag_108\n  tag_33\n  jump\t// in\ntag_108:\n    /* \"#utility.yul\":3971:4088   */\ntag_107:\n    /* \"#utility.yul\":4112:4201   */\n  tag_109\n    /* \"#utility.yul\":4193:4200   */\n  dup6\n    /* \"#utility.yul\":4184:4190   */\n  dup3\n    /* \"#utility.yul\":4173:4182   */\n  dup7\n    /* \"#utility.yul\":4169:4191   */\n  add\n    /* \"#utility.yul\":4112:4201   */\n  tag_46\n  jump\t// in\ntag_109:\n    /* \"#utility.yul\":4102:4201   */\n  swap3\n  pop\n    /* \"#utility.yul\":3905:4211   */\n  pop\n    /* \"#utility.yul\":4250:4252   */\n  0x20\n    /* \"#utility.yul\":4276:4340   */\n  tag_110\n    /* \"#utility.yul\":4332:4339   */\n  dup6\n    /* \"#utility.yul\":4323:4329   */\n  dup3\n    /* \"#utility.yul\":4312:4321   */\n  dup7\n    /* \"#utility.yul\":4308:4330   */\n  add\n    /* \"#utility.yul\":4276:4340   */\n  tag_49\n  jump\t// in\ntag_110:\n    /* \"#utility.yul\":4266:4340   */\n  swap2\n  pop\n    /* \"#utility.yul\":4221:4350   */\n  pop\n    /* \"#utility.yul\":3647:4357   */\n  swap3\n  pop\n  swap3\n  swap1\n  pop\n  jump\t// out\n    /* \"#utility.yul\":4363:4532   */\ntag_50:\n    /* \"#utility.yul\":4447:4458   */\n  0x00\n    /* \"#utility.yul\":4481:4487   */\n  dup3\n    /* \"#utility.yul\":4476:4479   */\n  dup3\n    /* \"#utility.yul\":4469:4488   */\n  mstore\n    /* \"#utility.yul\":4521:4525   */\n  0x20\n    /* \"#utility.yul\":4516:4519   */\n  dup3\n    /* \"#utility.yul\":4512:4526   */\n  add\n    /* \"#utility.yul\":4497:4526   */\n  swap1\n  pop\n    /* \"#utility.yul\":4363:4532   */\n  swap3\n  swap2\n  pop\n  pop\n  jump\t// out\n    /* \"#utility.yul\":4538:4693   */\ntag_51:\n    /* \"#utility.yul\":4678:4685   */\n  0x4451353030000000000000000000000000000000000000000000000000000000\n    /* \"#utility.yul\":4674:4675   */\n  0x00\n    /* \"#utility.yul\":4666:4672   */\n  dup3\n    /* \"#utility.yul\":4662:4676   */\n  add\n    /* \"#utility.yul\":4655:4686   */\n  mstore\n    /* \"#utility.yul\":4538:4693   */\n  pop\n  jump\t// out\n    /* \"#utility.yul\":4699:5064   */\ntag_52:\n    /* \"#utility.yul\":4841:4844   */\n  0x00\n    /* \"#utility.yul\":4862:4928   */\n  tag_114\n    /* \"#utility.yul\":4926:4927   */\n  0x05\n    /* \"#utility.yul\":4921:4924   */\n  dup4\n    /* \"#utility.yul\":4862:4928   */\n  tag_50\n  jump\t// in\ntag_114:\n    /* \"#utility.yul\":4855:4928   */\n  swap2\n  pop\n    /* \"#utility.yul\":4937:5030   */\n  tag_115\n    /* \"#utility.yul\":5026:5029   */\n  dup3\n    /* \"#utility.yul\":4937:5030   */\n  tag_51\n  jump\t// in\ntag_115:\n    /* \"#utility.yul\":5055:5057   */\n  0x20\n    /* \"#utility.yul\":5050:5053   */\n  dup3\n    /* \"#utility.yul\":5046:5058   */\n  add\n    /* \"#utility.yul\":5039:5058   */\n  swap1\n  pop\n    /* \"#utility.yul\":4699:5064   */\n  swap2\n  swap1\n  pop\n  jump\t// out\n    /* \"#utility.yul\":5070:5489   */\ntag_12:\n    /* \"#utility.yul\":5236:5240   */\n  0x00\n    /* \"#utility.yul\":5274:5276   */\n  0x20\n    /* \"#utility.yul\":5263:5272   */\n  dup3\n    /* \"#utility.yul\":5259:5277   */\n  add\n    /* \"#utility.yul\":5251:5277   */\n  swap1\n  pop\n    /* \"#utility.yul\":5323:5332   */\n  dup2\n    /* \"#utility.yul\":5317:5321   */\n  dup2\n    /* \"#utility.yul\":5313:5333   */\n  sub\n    /* \"#utility.yul\":5309:5310   */\n  0x00\n    /* \"#utility.yul\":5298:5307   */\n  dup4\n    /* \"#utility.yul\":5294:5311   */\n  add\n    /* \"#utility.yul\":5287:5334   */\n  mstore\n    /* \"#utility.yul\":5351:5482   */\n  tag_117\n    /* \"#utility.yul\":5477:5481   */\n  dup2\n    /* \"#utility.yul\":5351:5482   */\n  tag_52\n  jump\t// in\ntag_117:\n    /* \"#utility.yul\":5343:5482   */\n  swap1\n  pop\n    /* \"#utility.yul\":5070:5489   */\n  swap2\n  swap1\n  pop\n  jump\t// out\n    /* \"#utility.yul\":5495:5650   */\ntag_53:\n    /* \"#utility.yul\":5635:5642   */\n  0x4451353031000000000000000000000000000000000000000000000000000000\n    /* \"#utility.yul\":5631:5632   */\n  0x00\n    /* \"#utility.yul\":5623:5629   */\n  dup3\n    /* \"#utility.yul\":5619:5633   */\n  add\n    /* \"#utility.yul\":5612:5643   */\n  mstore\n    /* \"#utility.yul\":5495:5650   */\n  pop\n  jump\t// out\n    /* \"#utility.yul\":5656:6021   */\ntag_54:\n    /* \"#utility.yul\":5798:5801   */\n  0x00\n    /* \"#utility.yul\":5819:5885   */\n  tag_120\n    /* \"#utility.yul\":5883:5884   */\n  0x05\n    /* \"#utility.yul\":5878:5881   */\n  dup4\n    /* \"#utility.yul\":5819:5885   */\n  tag_50\n  jump\t// in\ntag_120:\n    /* \"#utility.yul\":5812:5885   */\n  swap2\n  pop\n    /* \"#utility.yul\":5894:5987   */\n  tag_121\n    /* \"#utility.yul\":5983:5986   */\n  dup3\n    /* \"#utility.yul\":5894:5987   */\n  tag_53\n  jump\t// in\ntag_121:\n    /* \"#utility.yul\":6012:6014   */\n  0x20\n    /* \"#utility.yul\":6007:6010   */\n  dup3\n    /* \"#utility.yul\":6003:6015   */\n  add\n    /* \"#utility.yul\":5996:6015   */\n  swap1\n  pop\n    /* \"#utility.yul\":5656:6021   */\n  swap2\n  swap1\n  pop\n  jump\t// out\n    /* \"#utility.yul\":6027:6446   */\ntag_15:\n    /* \"#utility.yul\":6193:6197   */\n  0x00\n    /* \"#utility.yul\":6231:6233   */\n  0x20\n    /* \"#utility.yul\":6220:6229   */\n  dup3\n    /* \"#utility.yul\":6216:6234   */\n  add\n    /* \"#utility.yul\":6208:6234   */\n  swap1\n  pop\n    /* \"#utility.yul\":6280:6289   */\n  dup2\n    /* \"#utility.yul\":6274:6278   */\n  dup2\n    /* \"#utility.yul\":6270:6290   */\n  sub\n    /* \"#utility.yul\":6266:6267   */\n  0x00\n    /* \"#utility.yul\":6255:6264   */\n  dup4\n    /* \"#utility.yul\":6251:6268   */\n  add\n    /* \"#utility.yul\":6244:6291   */\n  mstore\n    /* \"#utility.yul\":6308:6439   */\n  tag_123\n    /* \"#utility.yul\":6434:6438   */\n  dup2\n    /* \"#utility.yul\":6308:6439   */\n  tag_54\n  jump\t// in\ntag_123:\n    /* \"#utility.yul\":6300:6439   */\n  swap1\n  pop\n    /* \"#utility.yul\":6027:6446   */\n  swap2\n  swap1\n  pop\n  jump\t// out\n    /* \"#utility.yul\":6452:6607   */\ntag_55:\n    /* \"#utility.yul\":6592:6599   */\n  0x4451353032000000000000000000000000000000000000000000000000000000\n    /* \"#utility.yul\":6588:6589   */\n  0x00\n    /* \"#utility.yul\":6580:6586   */\n  dup3\n    /* \"#utility.yul\":6576:6590   */\n  add\n    /* \"#utility.yul\":6569:6600   */\n  mstore\n    /* \"#utility.yul\":6452:6607   */\n  pop\n  jump\t// out\n    /* \"#utility.yul\":6613:6978   */\ntag_56:\n    /* \"#utility.yul\":6755:6758   */\n  0x00\n    /* \"#utility.yul\":6776:6842   */\n  tag_126\n    /* \"#utility.yul\":6840:6841   */\n  0x05\n    /* \"#utility.yul\":6835:6838   */\n  dup4\n    /* \"#utility.yul\":6776:6842   */\n  tag_50\n  jump\t// in\ntag_126:\n    /* \"#utility.yul\":6769:6842   */\n  swap2\n  pop\n    /* \"#utility.yul\":6851:6944   */\n  tag_127\n    /* \"#utility.yul\":6940:6943   */\n  dup3\n    /* \"#utility.yul\":6851:6944   */\n  tag_55\n  jump\t// in\ntag_127:\n    /* \"#utility.yul\":6969:6971   */\n  0x20\n    /* \"#utility.yul\":6964:6967   */\n  dup3\n    /* \"#utility.yul\":6960:6972   */\n  add\n    /* \"#utility.yul\":6953:6972   */\n  swap1\n  pop\n    /* \"#utility.yul\":6613:6978   */\n  swap2\n  swap1\n  pop\n  jump\t// out\n    /* \"#utility.yul\":6984:7403   */\ntag_18:\n    /* \"#utility.yul\":7150:7154   */\n  0x00\n    /* \"#utility.yul\":7188:7190   */\n  0x20\n    /* \"#utility.yul\":7177:7186   */\n  dup3\n    /* \"#utility.yul\":7173:7191   */\n  add\n    /* \"#utility.yul\":7165:7191   */\n  swap1\n  pop\n    /* \"#utility.yul\":7237:7246   */\n  dup2\n    /* \"#utility.yul\":7231:7235   */\n  dup2\n    /* \"#utility.yul\":7227:7247   */\n  sub\n    /* \"#utility.yul\":7223:7224   */\n  0x00\n    /* \"#utility.yul\":7212:7221   */\n  dup4\n    /* \"#utility.yul\":7208:7225   */\n  add\n    /* \"#utility.yul\":7201:7248   */\n  mstore\n    /* \"#utility.yul\":7265:7396   */\n  tag_129\n    /* \"#utility.yul\":7391:7395   */\n  dup2\n    /* \"#utility.yul\":7265:7396   */\n  tag_56\n  jump\t// in\ntag_129:\n    /* \"#utility.yul\":7257:7396   */\n  swap1\n  pop\n    /* \"#utility.yul\":6984:7403   */\n  swap2\n  swap1\n  pop\n  jump\t// out\n    /* \"#utility.yul\":7409:7589   */\ntag_24:\n    /* \"#utility.yul\":7457:7534   */\n  0x4e487b7100000000000000000000000000000000000000000000000000000000\n    /* \"#utility.yul\":7454:7455   */\n  0x00\n    /* \"#utility.yul\":7447:7535   */\n  mstore\n    /* \"#utility.yul\":7554:7558   */\n  0x32\n    /* \"#utility.yul\":7551:7552   */\n  0x04\n    /* \"#utility.yul\":7544:7559   */\n  mstore\n    /* \"#utility.yul\":7578:7582   */\n  0x24\n    /* \"#utility.yul\":7575:7576   */\n  0x00\n    /* \"#utility.yul\":7568:7583   */\n  revert\n    /* \"#utility.yul\":7595:7750   */\ntag_57:\n    /* \"#utility.yul\":7735:7742   */\n  0x4451353033000000000000000000000000000000000000000000000000000000\n    /* \"#utility.yul\":7731:7732   */\n  0x00\n    /* \"#utility.yul\":7723:7729   */\n  dup3\n    /* \"#utility.yul\":7719:7733   */\n  add\n    /* \"#utility.yul\":7712:7743   */\n  mstore\n    /* \"#utility.yul\":7595:7750   */\n  pop\n  jump\t// out\n    /* \"#utility.yul\":7756:8121   */\ntag_58:\n    /* \"#utility.yul\":7898:7901   */\n  0x00\n    /* \"#utility.yul\":7919:7985   */\n  tag_133\n    /* \"#utility.yul\":7983:7984   */\n  0x05\n    /* \"#utility.yul\":7978:7981   */\n  dup4\n    /* \"#utility.yul\":7919:7985   */\n  tag_50\n  jump\t// in\ntag_133:\n    /* \"#utility.yul\":7912:7985   */\n  swap2\n  pop\n    /* \"#utility.yul\":7994:8087   */\n  tag_134\n    /* \"#utility.yul\":8083:8086   */\n  dup3\n    /* \"#utility.yul\":7994:8087   */\n  tag_57\n  jump\t// in\ntag_134:\n    /* \"#utility.yul\":8112:8114   */\n  0x20\n    /* \"#utility.yul\":8107:8110   */\n  dup3\n    /* \"#utility.yul\":8103:8115   */\n  add\n    /* \"#utility.yul\":8096:8115   */\n  swap1\n  pop\n    /* \"#utility.yul\":7756:8121   */\n  swap2\n  swap1\n  pop\n  jump\t// out\n    /* \"#utility.yul\":8127:8546   */\ntag_29:\n    /* \"#utility.yul\":8293:8297   */\n  0x00\n    /* \"#utility.yul\":8331:8333   */\n  0x20\n    /* \"#utility.yul\":8320:8329   */\n  dup3\n    /* \"#utility.yul\":8316:8334   */\n  add\n    /* \"#utility.yul\":8308:8334   */\n  swap1\n  pop\n    /* \"#utility.yul\":8380:8389   */\n  dup2\n    /* \"#utility.yul\":8374:8378   */\n  dup2\n    /* \"#utility.yul\":8370:8390   */\n  sub\n    /* \"#utility.yul\":8366:8367   */\n  0x00\n    /* \"#utility.yul\":8355:8364   */\n  dup4\n    /* \"#utility.yul\":8351:8368   */\n  add\n    /* \"#utility.yul\":8344:8391   */\n  mstore\n    /* \"#utility.yul\":8408:8539   */\n  tag_136\n    /* \"#utility.yul\":8534:8538   */\n  dup2\n    /* \"#utility.yul\":8408:8539   */\n  tag_58\n  jump\t// in\ntag_136:\n    /* \"#utility.yul\":8400:8539   */\n  swap1\n  pop\n    /* \"#utility.yul\":8127:8546   */\n  swap2\n  swap1\n  pop\n  jump\t// out\n    /* \"contracts/MultisigWallet.sol\":58:4542  contract MultisigWallet {... */\ntag_8:\n  dataSize(sub_0)\n  dup1\n  dataOffset(sub_0)\n  0x00\n  codecopy\n  0x00\n  return\nstop\n\nsub_0: assembly {\n        /* \"contracts/MultisigWallet.sol\":58:4542  contract MultisigWallet {... */\n      mstore(0x40, 0x80)\n      jumpi(tag_1, lt(calldatasize, 0x04))\n      shr(0xe0, calldataload(0x00))\n      dup1\n      0xa67dd509\n      gt\n      tag_11\n      jumpi\n      dup1\n      0xa67dd509\n      eq\n      tag_7\n      jumpi\n      dup1\n      0xaffed0e0\n      eq\n      tag_8\n      jumpi\n      dup1\n      0xc779906b\n      eq\n      tag_9\n      jumpi\n      dup1\n      0xed516d51\n      eq\n      tag_10\n      jumpi\n      jump(tag_2)\n    tag_11:\n      dup1\n      0x025e7c27\n      eq\n      tag_3\n      jumpi\n      dup1\n      0x0db02622\n      eq\n      tag_4\n      jumpi\n      dup1\n      0x2f54bf6e\n      eq\n      tag_5\n      jumpi\n      dup1\n      0x42cde4e8\n      eq\n      tag_6\n      jumpi\n      jump(tag_2)\n    tag_1:\n      jumpi(tag_2, calldatasize)\n      stop\n    tag_2:\n      0x00\n      dup1\n      revert\n        /* \"contracts/MultisigWallet.sol\":89:112  address[] public owners */\n    tag_3:\n      callvalue\n      dup1\n      iszero\n      tag_14\n      jumpi\n      0x00\n      dup1\n      revert\n    tag_14:\n      pop\n      tag_15\n      0x04\n      dup1\n      calldatasize\n      sub\n      dup2\n      add\n      swap1\n      tag_16\n      swap2\n      swap1\n      tag_17\n      jump\t// in\n    tag_16:\n      tag_18\n      jump\t// in\n    tag_15:\n      mload(0x40)\n      tag_19\n      swap2\n      swap1\n      tag_20\n      jump\t// in\n    tag_19:\n      mload(0x40)\n      dup1\n      swap2\n      sub\n      swap1\n      return\n        /* \"contracts/MultisigWallet.sol\":228:253  uint256 public ownerCount */\n    tag_4:\n      callvalue\n      dup1\n      iszero\n      tag_21\n      jumpi\n      0x00\n      dup1\n      revert\n    tag_21:\n      pop\n      tag_22\n      tag_23\n      jump\t// in\n    tag_22:\n      mload(0x40)\n      tag_24\n      swap2\n      swap1\n      tag_25\n      jump\t// in\n    tag_24:\n      mload(0x40)\n      dup1\n      swap2\n      sub\n      swap1\n      return\n        /* \"contracts/MultisigWallet.sol\":137:176  mapping(address => bool) public isOwner */\n    tag_5:\n      callvalue\n      dup1\n      iszero\n      tag_26\n      jumpi\n      0x00\n      dup1\n      revert\n    tag_26:\n      pop\n      tag_27\n      0x04\n      dup1\n      calldatasize\n      sub\n      dup2\n      add\n      swap1\n      tag_28\n      swap2\n      swap1\n      tag_29\n      jump\t// in\n    tag_28:\n      tag_30\n      jump\t// in\n    tag_27:\n      mload(0x40)\n      tag_31\n      swap2\n      swap1\n      tag_32\n      jump\t// in\n    tag_31:\n      mload(0x40)\n      dup1\n      swap2\n      sub\n      swap1\n      return\n        /* \"contracts/MultisigWallet.sol\":287:311  uint256 public threshold */\n    tag_6:\n      callvalue\n      dup1\n      iszero\n      tag_33\n      jumpi\n      0x00\n      dup1\n      revert\n    tag_33:\n      pop\n      tag_34\n      tag_35\n      jump\t// in\n    tag_34:\n      mload(0x40)\n      tag_36\n      swap2\n      swap1\n      tag_25\n      jump\t// in\n    tag_36:\n      mload(0x40)\n      dup1\n      swap2\n      sub\n      swap1\n      return\n        /* \"contracts/MultisigWallet.sol\":1958:2435  function encodeTransactionData(... */\n    tag_7:\n      callvalue\n      dup1\n      iszero\n      tag_37\n      jumpi\n      0x00\n      dup1\n      revert\n    tag_37:\n      pop\n      tag_38\n      0x04\n      dup1\n      calldatasize\n      sub\n      dup2\n      add\n      swap1\n      tag_39\n      swap2\n      swap1\n      tag_40\n      jump\t// in\n    tag_39:\n      tag_41\n      jump\t// in\n    tag_38:\n      mload(0x40)\n      tag_42\n      swap2\n      swap1\n      tag_43\n      jump\t// in\n    tag_42:\n      mload(0x40)\n      dup1\n      swap2\n      sub\n      swap1\n      return\n        /* \"contracts/MultisigWallet.sol\":391:411  uint256 public nonce */\n    tag_8:\n      callvalue\n      dup1\n      iszero\n      tag_44\n      jumpi\n      0x00\n      dup1\n      revert\n    tag_44:\n      pop\n      tag_45\n      tag_46\n      jump\t// in\n    tag_45:\n      mload(0x40)\n      tag_47\n      swap2\n      swap1\n      tag_25\n      jump\t// in\n    tag_47:\n      mload(0x40)\n      dup1\n      swap2\n      sub\n      swap1\n      return\n        /* \"contracts/MultisigWallet.sol\":1316:1952  function execTransation(... */\n    tag_9:\n      tag_48\n      0x04\n      dup1\n      calldatasize\n      sub\n      dup2\n      add\n      swap1\n      tag_49\n      swap2\n      swap1\n      tag_50\n      jump\t// in\n    tag_49:\n      tag_51\n      jump\t// in\n    tag_48:\n      mload(0x40)\n      tag_52\n      swap2\n      swap1\n      tag_32\n      jump\t// in\n    tag_52:\n      mload(0x40)\n      dup1\n      swap2\n      sub\n      swap1\n      return\n        /* \"contracts/MultisigWallet.sol\":2652:3857  function checkSignatures(... */\n    tag_10:\n      callvalue\n      dup1\n      iszero\n      tag_53\n      jumpi\n      0x00\n      dup1\n      revert\n    tag_53:\n      pop\n      tag_54\n      0x04\n      dup1\n      calldatasize\n      sub\n      dup2\n      add\n      swap1\n      tag_55\n      swap2\n      swap1\n      tag_56\n      jump\t// in\n    tag_55:\n      tag_57\n      jump\t// in\n    tag_54:\n      stop\n        /* \"contracts/MultisigWallet.sol\":89:112  address[] public owners */\n    tag_18:\n      0x00\n      dup2\n      dup2\n      sload\n      dup2\n      lt\n      tag_58\n      jumpi\n      0x00\n      dup1\n      revert\n    tag_58:\n      swap1\n      0x00\n      mstore\n      keccak256(0x00, 0x20)\n      add\n      0x00\n      swap2\n      pop\n      sload\n      swap1\n      0x0100\n      exp\n      swap1\n      div\n      0xffffffffffffffffffffffffffffffffffffffff\n      and\n      dup2\n      jump\t// out\n        /* \"contracts/MultisigWallet.sol\":228:253  uint256 public ownerCount */\n    tag_23:\n      sload(0x02)\n      dup2\n      jump\t// out\n        /* \"contracts/MultisigWallet.sol\":137:176  mapping(address => bool) public isOwner */\n    tag_30:\n      mstore(0x20, 0x01)\n      dup1\n      0x00\n      mstore\n      keccak256(0x00, 0x40)\n      0x00\n      swap2\n      pop\n      sload\n      swap1\n      0x0100\n      exp\n      swap1\n      div\n      0xff\n      and\n      dup2\n      jump\t// out\n        /* \"contracts/MultisigWallet.sol\":287:311  uint256 public threshold */\n    tag_35:\n      sload(0x03)\n      dup2\n      jump\t// out\n        /* \"contracts/MultisigWallet.sol\":1958:2435  function encodeTransactionData(... */\n    tag_41:\n        /* \"contracts/MultisigWallet.sol\":2135:2142  bytes32 */\n      0x00\n        /* \"contracts/MultisigWallet.sol\":2154:2172  bytes32 safeTxHash */\n      dup1\n        /* \"contracts/MultisigWallet.sol\":2246:2248  to */\n      dup7\n        /* \"contracts/MultisigWallet.sol\":2270:2275  value */\n      dup7\n        /* \"contracts/MultisigWallet.sol\":2307:2311  data */\n      dup7\n        /* \"contracts/MultisigWallet.sol\":2297:2312  keccak256(data) */\n      dup1\n      mload\n      swap1\n      0x20\n      add\n      keccak256\n        /* \"contracts/MultisigWallet.sol\":2334:2340  _nonce */\n      dup7\n        /* \"contracts/MultisigWallet.sol\":2362:2369  chainid */\n      dup7\n        /* \"contracts/MultisigWallet.sol\":2214:2387  abi.encode(... */\n      add(0x20, mload(0x40))\n      tag_61\n      swap6\n      swap5\n      swap4\n      swap3\n      swap2\n      swap1\n      tag_62\n      jump\t// in\n    tag_61:\n      mload(0x40)\n      0x20\n      dup2\n      dup4\n      sub\n      sub\n      dup2\n      mstore\n      swap1\n      0x40\n      mstore\n        /* \"contracts/MultisigWallet.sol\":2187:2401  keccak256(... */\n      dup1\n      mload\n      swap1\n      0x20\n      add\n      keccak256\n        /* \"contracts/MultisigWallet.sol\":2154:2401  bytes32 safeTxHash =... */\n      swap1\n      pop\n        /* \"contracts/MultisigWallet.sol\":2418:2428  safeTxHash */\n      dup1\n        /* \"contracts/MultisigWallet.sol\":2411:2428  return safeTxHash */\n      swap2\n      pop\n      pop\n        /* \"contracts/MultisigWallet.sol\":1958:2435  function encodeTransactionData(... */\n      swap6\n      swap5\n      pop\n      pop\n      pop\n      pop\n      pop\n      jump\t// out\n        /* \"contracts/MultisigWallet.sol\":391:411  uint256 public nonce */\n    tag_46:\n      sload(0x04)\n      dup2\n      jump\t// out\n        /* \"contracts/MultisigWallet.sol\":1316:1952  function execTransation(... */\n    tag_51:\n        /* \"contracts/MultisigWallet.sol\":1480:1492  bool success */\n      0x00\n        /* \"contracts/MultisigWallet.sol\":1548:1562  bytes32 txHash */\n      dup1\n        /* \"contracts/MultisigWallet.sol\":1565:1625  encodeTransactionData(to, value, data, nonce, block.chainid) */\n      tag_64\n        /* \"contracts/MultisigWallet.sol\":1587:1589  to */\n      dup7\n        /* \"contracts/MultisigWallet.sol\":1591:1596  value */\n      dup7\n        /* \"contracts/MultisigWallet.sol\":1598:1602  data */\n      dup7\n        /* \"contracts/MultisigWallet.sol\":1604:1609  nonce */\n      sload(0x04)\n        /* \"contracts/MultisigWallet.sol\":1611:1624  block.chainid */\n      chainid\n        /* \"contracts/MultisigWallet.sol\":1565:1586  encodeTransactionData */\n      tag_41\n        /* \"contracts/MultisigWallet.sol\":1565:1625  encodeTransactionData(to, value, data, nonce, block.chainid) */\n      jump\t// in\n    tag_64:\n        /* \"contracts/MultisigWallet.sol\":1548:1625  bytes32 txHash = encodeTransactionData(to, value, data, nonce, block.chainid) */\n      swap1\n      pop\n        /* \"contracts/MultisigWallet.sol\":1635:1640  nonce */\n      0x04\n      0x00\n        /* \"contracts/MultisigWallet.sol\":1635:1642  nonce++ */\n      dup2\n      sload\n      dup1\n      swap3\n      swap2\n      swap1\n      tag_65\n      swap1\n      tag_66\n      jump\t// in\n    tag_65:\n      swap2\n      swap1\n      pop\n      sstore\n      pop\n        /* \"contracts/MultisigWallet.sol\":1652:1687  checkSignatures(txHash, signatures) */\n      tag_67\n        /* \"contracts/MultisigWallet.sol\":1668:1674  txHash */\n      dup2\n        /* \"contracts/MultisigWallet.sol\":1676:1686  signatures */\n      dup5\n        /* \"contracts/MultisigWallet.sol\":1652:1667  checkSignatures */\n      tag_57\n        /* \"contracts/MultisigWallet.sol\":1652:1687  checkSignatures(txHash, signatures) */\n      jump\t// in\n    tag_67:\n        /* \"contracts/MultisigWallet.sol\":1785:1787  to */\n      dup6\n        /* \"contracts/MultisigWallet.sol\":1785:1792  to.call */\n      0xffffffffffffffffffffffffffffffffffffffff\n      and\n        /* \"contracts/MultisigWallet.sol\":1800:1805  value */\n      dup6\n        /* \"contracts/MultisigWallet.sol\":1807:1811  data */\n      dup6\n        /* \"contracts/MultisigWallet.sol\":1785:1812  to.call{value: value}(data) */\n      mload(0x40)\n      tag_68\n      swap2\n      swap1\n      tag_69\n      jump\t// in\n    tag_68:\n      0x00\n      mload(0x40)\n      dup1\n      dup4\n      sub\n      dup2\n      dup6\n      dup8\n      gas\n      call\n      swap3\n      pop\n      pop\n      pop\n      returndatasize\n      dup1\n      0x00\n      dup2\n      eq\n      tag_72\n      jumpi\n      mload(0x40)\n      swap2\n      pop\n      and(add(returndatasize, 0x3f), not(0x1f))\n      dup3\n      add\n      0x40\n      mstore\n      returndatasize\n      dup3\n      mstore\n      returndatasize\n      0x00\n      0x20\n      dup5\n      add\n      returndatacopy\n      jump(tag_71)\n    tag_72:\n      0x60\n      swap2\n      pop\n    tag_71:\n      pop\n        /* \"contracts/MultisigWallet.sol\":1771:1812  (success, ) = to.call{value: value}(data) */\n      pop\n      dup1\n      swap3\n      pop\n      pop\n        /* \"contracts/MultisigWallet.sol\":1830:1837  success */\n      dup2\n        /* \"contracts/MultisigWallet.sol\":1822:1849  require(success , \"DQ5004\") */\n      tag_73\n      jumpi\n      mload(0x40)\n      0x08c379a000000000000000000000000000000000000000000000000000000000\n      dup2\n      mstore\n      0x04\n      add\n      tag_74\n      swap1\n      tag_75\n      jump\t// in\n    tag_74:\n      mload(0x40)\n      dup1\n      swap2\n      sub\n      swap1\n      revert\n    tag_73:\n        /* \"contracts/MultisigWallet.sol\":1863:1870  success */\n      dup2\n        /* \"contracts/MultisigWallet.sol\":1859:1945  if (success) emit ExecutionSuccess(txHash);... */\n      iszero\n      tag_76\n      jumpi\n        /* \"contracts/MultisigWallet.sol\":1877:1901  ExecutionSuccess(txHash) */\n      0xdc29884a71d2bb98d3c53dc09718be05c7bfd142b7773a5c5cf2517629290ac0\n        /* \"contracts/MultisigWallet.sol\":1894:1900  txHash */\n      dup2\n        /* \"contracts/MultisigWallet.sol\":1877:1901  ExecutionSuccess(txHash) */\n      mload(0x40)\n      tag_77\n      swap2\n      swap1\n      tag_43\n      jump\t// in\n    tag_77:\n      mload(0x40)\n      dup1\n      swap2\n      sub\n      swap1\n      log1\n        /* \"contracts/MultisigWallet.sol\":1859:1945  if (success) emit ExecutionSuccess(txHash);... */\n      jump(tag_78)\n    tag_76:\n        /* \"contracts/MultisigWallet.sol\":1921:1945  ExecutionFailure(txHash) */\n      0xdbe42d02a4e07d7eeff2874efe172540c93b297d206f6d691c9782a257323e32\n        /* \"contracts/MultisigWallet.sol\":1938:1944  txHash */\n      dup2\n        /* \"contracts/MultisigWallet.sol\":1921:1945  ExecutionFailure(txHash) */\n      mload(0x40)\n      tag_79\n      swap2\n      swap1\n      tag_43\n      jump\t// in\n    tag_79:\n      mload(0x40)\n      dup1\n      swap2\n      sub\n      swap1\n      log1\n        /* \"contracts/MultisigWallet.sol\":1859:1945  if (success) emit ExecutionSuccess(txHash);... */\n    tag_78:\n        /* \"contracts/MultisigWallet.sol\":1493:1952  {... */\n      pop\n        /* \"contracts/MultisigWallet.sol\":1316:1952  function execTransation(... */\n      swap5\n      swap4\n      pop\n      pop\n      pop\n      pop\n      jump\t// out\n        /* \"contracts/MultisigWallet.sol\":2652:3857  function checkSignatures(... */\n    tag_57:\n        /* \"contracts/MultisigWallet.sol\":2800:2818  uint256 _threshold */\n      0x00\n        /* \"contracts/MultisigWallet.sol\":2821:2830  threshold */\n      sload(0x03)\n        /* \"contracts/MultisigWallet.sol\":2800:2830  uint256 _threshold = threshold */\n      swap1\n      pop\n        /* \"contracts/MultisigWallet.sol\":2861:2862  0 */\n      0x00\n        /* \"contracts/MultisigWallet.sol\":2848:2858  _threshold */\n      dup2\n        /* \"contracts/MultisigWallet.sol\":2848:2862  _threshold > 0 */\n      gt\n        /* \"contracts/MultisigWallet.sol\":2840:2873  require(_threshold > 0, \"DQ5005\") */\n      tag_81\n      jumpi\n      mload(0x40)\n      0x08c379a000000000000000000000000000000000000000000000000000000000\n      dup2\n      mstore\n      0x04\n      add\n      tag_82\n      swap1\n      tag_83\n      jump\t// in\n    tag_82:\n      mload(0x40)\n      dup1\n      swap2\n      sub\n      swap1\n      revert\n    tag_81:\n        /* \"contracts/MultisigWallet.sol\":2965:2967  65 */\n      0x41\n        /* \"contracts/MultisigWallet.sol\":2952:2962  _threshold */\n      dup2\n        /* \"contracts/MultisigWallet.sol\":2952:2967  _threshold * 65 */\n      tag_84\n      swap2\n      swap1\n      tag_85\n      jump\t// in\n    tag_84:\n        /* \"contracts/MultisigWallet.sol\":2931:2941  signatures */\n      dup3\n        /* \"contracts/MultisigWallet.sol\":2931:2948  signatures.length */\n      mload\n        /* \"contracts/MultisigWallet.sol\":2931:2967  signatures.length >= _threshold * 65 */\n      lt\n      iszero\n        /* \"contracts/MultisigWallet.sol\":2923:2978  require(signatures.length >= _threshold * 65, \"DQ5006\") */\n      tag_86\n      jumpi\n      mload(0x40)\n      0x08c379a000000000000000000000000000000000000000000000000000000000\n      dup2\n      mstore\n      0x04\n      add\n      tag_87\n      swap1\n      tag_88\n      jump\t// in\n    tag_87:\n      mload(0x40)\n      dup1\n      swap2\n      sub\n      swap1\n      revert\n    tag_86:\n        /* \"contracts/MultisigWallet.sol\":3310:3327  address lastOwner */\n      0x00\n        /* \"contracts/MultisigWallet.sol\":3351:3371  address currentOwner */\n      dup1\n        /* \"contracts/MultisigWallet.sol\":3381:3388  uint8 v */\n      dup1\n        /* \"contracts/MultisigWallet.sol\":3398:3407  bytes32 r */\n      0x00\n        /* \"contracts/MultisigWallet.sol\":3417:3426  bytes32 s */\n      dup1\n        /* \"contracts/MultisigWallet.sol\":3436:3445  uint256 i */\n      0x00\n        /* \"contracts/MultisigWallet.sol\":3455:3851  for (i = 0; i < _threshold; i++) {... */\n    tag_89:\n        /* \"contracts/MultisigWallet.sol\":3471:3481  _threshold */\n      dup7\n        /* \"contracts/MultisigWallet.sol\":3467:3468  i */\n      dup2\n        /* \"contracts/MultisigWallet.sol\":3467:3481  i < _threshold */\n      lt\n        /* \"contracts/MultisigWallet.sol\":3455:3851  for (i = 0; i < _threshold; i++) {... */\n      iszero\n      tag_90\n      jumpi\n        /* \"contracts/MultisigWallet.sol\":3514:3543  signatureSplit(signatures, i) */\n      tag_92\n        /* \"contracts/MultisigWallet.sol\":3529:3539  signatures */\n      dup9\n        /* \"contracts/MultisigWallet.sol\":3541:3542  i */\n      dup3\n        /* \"contracts/MultisigWallet.sol\":3514:3528  signatureSplit */\n      tag_93\n        /* \"contracts/MultisigWallet.sol\":3514:3543  signatureSplit(signatures, i) */\n      jump\t// in\n    tag_92:\n        /* \"contracts/MultisigWallet.sol\":3502:3543  (v, r, s) = signatureSplit(signatures, i) */\n      dup1\n      swap5\n      pop\n      dup2\n      swap6\n      pop\n      dup3\n      swap7\n      pop\n      pop\n      pop\n      pop\n        /* \"contracts/MultisigWallet.sol\":3627:3720  ecrecover(keccak256(abi.encodePacked(\"\\x19Ethereum Signed Message:\\n32\", dataHash)), v, r, s) */\n      0x01\n        /* \"contracts/MultisigWallet.sol\":3700:3708  dataHash */\n      dup10\n        /* \"contracts/MultisigWallet.sol\":3647:3709  abi.encodePacked(\"\\x19Ethereum Signed Message:\\n32\", dataHash) */\n      add(0x20, mload(0x40))\n      tag_94\n      swap2\n      swap1\n      tag_95\n      jump\t// in\n    tag_94:\n      mload(0x40)\n      0x20\n      dup2\n      dup4\n      sub\n      sub\n      dup2\n      mstore\n      swap1\n      0x40\n      mstore\n        /* \"contracts/MultisigWallet.sol\":3637:3710  keccak256(abi.encodePacked(\"\\x19Ethereum Signed Message:\\n32\", dataHash)) */\n      dup1\n      mload\n      swap1\n      0x20\n      add\n      keccak256\n        /* \"contracts/MultisigWallet.sol\":3712:3713  v */\n      dup6\n        /* \"contracts/MultisigWallet.sol\":3715:3716  r */\n      dup6\n        /* \"contracts/MultisigWallet.sol\":3718:3719  s */\n      dup6\n        /* \"contracts/MultisigWallet.sol\":3627:3720  ecrecover(keccak256(abi.encodePacked(\"\\x19Ethereum Signed Message:\\n32\", dataHash)), v, r, s) */\n      mload(0x40)\n      0x00\n      dup2\n      mstore\n      0x20\n      add\n      0x40\n      mstore\n      mload(0x40)\n      tag_96\n      swap5\n      swap4\n      swap3\n      swap2\n      swap1\n      tag_97\n      jump\t// in\n    tag_96:\n      0x20\n      mload(0x40)\n      0x20\n      dup2\n      sub\n      swap1\n      dup1\n      dup5\n      sub\n      swap1\n      dup6\n      gas\n      staticcall\n      iszero\n      dup1\n      iszero\n      tag_99\n      jumpi\n      returndatasize\n      0x00\n      dup1\n      returndatacopy\n      revert(0x00, returndatasize)\n    tag_99:\n      pop\n      pop\n      pop\n      mload(sub(mload(0x40), 0x20))\n        /* \"contracts/MultisigWallet.sol\":3612:3720  currentOwner = ecrecover(keccak256(abi.encodePacked(\"\\x19Ethereum Signed Message:\\n32\", dataHash)), v, r, s) */\n      swap5\n      pop\n        /* \"contracts/MultisigWallet.sol\":3757:3766  lastOwner */\n      dup6\n        /* \"contracts/MultisigWallet.sol\":3742:3766  currentOwner > lastOwner */\n      0xffffffffffffffffffffffffffffffffffffffff\n      and\n        /* \"contracts/MultisigWallet.sol\":3742:3754  currentOwner */\n      dup6\n        /* \"contracts/MultisigWallet.sol\":3742:3766  currentOwner > lastOwner */\n      0xffffffffffffffffffffffffffffffffffffffff\n      and\n      gt\n        /* \"contracts/MultisigWallet.sol\":3742:3791  currentOwner > lastOwner && isOwner[currentOwner] */\n      dup1\n      iszero\n      tag_100\n      jumpi\n      pop\n        /* \"contracts/MultisigWallet.sol\":3770:3777  isOwner */\n      0x01\n        /* \"contracts/MultisigWallet.sol\":3770:3791  isOwner[currentOwner] */\n      0x00\n        /* \"contracts/MultisigWallet.sol\":3778:3790  currentOwner */\n      dup7\n        /* \"contracts/MultisigWallet.sol\":3770:3791  isOwner[currentOwner] */\n      0xffffffffffffffffffffffffffffffffffffffff\n      and\n      0xffffffffffffffffffffffffffffffffffffffff\n      and\n      dup2\n      mstore\n      0x20\n      add\n      swap1\n      dup2\n      mstore\n      0x20\n      add\n      0x00\n      keccak256\n      0x00\n      swap1\n      sload\n      swap1\n      0x0100\n      exp\n      swap1\n      div\n      0xff\n      and\n        /* \"contracts/MultisigWallet.sol\":3742:3791  currentOwner > lastOwner && isOwner[currentOwner] */\n    tag_100:\n        /* \"contracts/MultisigWallet.sol\":3734:3802  require(currentOwner > lastOwner && isOwner[currentOwner], \"DQ5007\") */\n      tag_101\n      jumpi\n      mload(0x40)\n      0x08c379a000000000000000000000000000000000000000000000000000000000\n      dup2\n      mstore\n      0x04\n      add\n      tag_102\n      swap1\n      tag_103\n      jump\t// in\n    tag_102:\n      mload(0x40)\n      dup1\n      swap2\n      sub\n      swap1\n      revert\n    tag_101:\n        /* \"contracts/MultisigWallet.sol\":3828:3840  currentOwner */\n      dup5\n        /* \"contracts/MultisigWallet.sol\":3816:3840  lastOwner = currentOwner */\n      swap6\n      pop\n        /* \"contracts/MultisigWallet.sol\":3483:3486  i++ */\n      dup1\n      dup1\n      0x01\n      add\n      swap2\n      pop\n      pop\n        /* \"contracts/MultisigWallet.sol\":3455:3851  for (i = 0; i < _threshold; i++) {... */\n      jump(tag_89)\n    tag_90:\n        /* \"contracts/MultisigWallet.sol\":2754:3857  {... */\n      pop\n      pop\n      pop\n      pop\n      pop\n      pop\n      pop\n        /* \"contracts/MultisigWallet.sol\":2652:3857  function checkSignatures(... */\n      pop\n      pop\n      jump\t// out\n        /* \"contracts/MultisigWallet.sol\":4000:4540  function signatureSplit(bytes memory signatures, uint256 pos)... */\n    tag_93:\n        /* \"contracts/MultisigWallet.sol\":4122:4129  uint8 v */\n      0x00\n        /* \"contracts/MultisigWallet.sol\":4143:4152  bytes32 r */\n      dup1\n        /* \"contracts/MultisigWallet.sol\":4166:4175  bytes32 s */\n      0x00\n        /* \"contracts/MultisigWallet.sol\":4314:4317  pos */\n      dup4\n        /* \"contracts/MultisigWallet.sol\":4308:4312  0x41 */\n      0x41\n        /* \"contracts/MultisigWallet.sol\":4304:4318  mul(0x41, pos) */\n      mul\n        /* \"contracts/MultisigWallet.sol\":4376:4380  0x20 */\n      0x20\n        /* \"contracts/MultisigWallet.sol\":4362:4374  signaturePos */\n      dup2\n        /* \"contracts/MultisigWallet.sol\":4358:4381  add(signaturePos, 0x20) */\n      add\n        /* \"contracts/MultisigWallet.sol\":4346:4356  signatures */\n      dup7\n        /* \"contracts/MultisigWallet.sol\":4342:4382  add(signatures, add(signaturePos, 0x20)) */\n      add\n        /* \"contracts/MultisigWallet.sol\":4336:4383  mload(add(signatures, add(signaturePos, 0x20))) */\n      mload\n        /* \"contracts/MultisigWallet.sol\":4331:4383  r := mload(add(signatures, add(signaturePos, 0x20))) */\n      swap3\n      pop\n        /* \"contracts/MultisigWallet.sol\":4441:4445  0x40 */\n      0x40\n        /* \"contracts/MultisigWallet.sol\":4427:4439  signaturePos */\n      dup2\n        /* \"contracts/MultisigWallet.sol\":4423:4446  add(signaturePos, 0x40) */\n      add\n        /* \"contracts/MultisigWallet.sol\":4411:4421  signatures */\n      dup7\n        /* \"contracts/MultisigWallet.sol\":4407:4447  add(signatures, add(signaturePos, 0x40)) */\n      add\n        /* \"contracts/MultisigWallet.sol\":4401:4448  mload(add(signatures, add(signaturePos, 0x40))) */\n      mload\n        /* \"contracts/MultisigWallet.sol\":4396:4448  s := mload(add(signatures, add(signaturePos, 0x40))) */\n      swap2\n      pop\n        /* \"contracts/MultisigWallet.sol\":4519:4523  0xff */\n      0xff\n        /* \"contracts/MultisigWallet.sol\":4510:4514  0x41 */\n      0x41\n        /* \"contracts/MultisigWallet.sol\":4496:4508  signaturePos */\n      dup3\n        /* \"contracts/MultisigWallet.sol\":4492:4515  add(signaturePos, 0x41) */\n      add\n        /* \"contracts/MultisigWallet.sol\":4480:4490  signatures */\n      dup8\n        /* \"contracts/MultisigWallet.sol\":4476:4516  add(signatures, add(signaturePos, 0x41)) */\n      add\n        /* \"contracts/MultisigWallet.sol\":4470:4517  mload(add(signatures, add(signaturePos, 0x41))) */\n      mload\n        /* \"contracts/MultisigWallet.sol\":4466:4524  and(mload(add(signatures, add(signaturePos, 0x41))), 0xff) */\n      and\n        /* \"contracts/MultisigWallet.sol\":4461:4524  v := and(mload(add(signatures, add(signaturePos, 0x41))), 0xff) */\n      swap4\n      pop\n        /* \"contracts/MultisigWallet.sol\":4270:4534  {... */\n      pop\n        /* \"contracts/MultisigWallet.sol\":4000:4540  function signatureSplit(bytes memory signatures, uint256 pos)... */\n      swap3\n      pop\n      swap3\n      pop\n      swap3\n      jump\t// out\n        /* \"#utility.yul\":7:82   */\n    tag_105:\n        /* \"#utility.yul\":40:46   */\n      0x00\n        /* \"#utility.yul\":73:75   */\n      0x40\n        /* \"#utility.yul\":67:76   */\n      mload\n        /* \"#utility.yul\":57:76   */\n      swap1\n      pop\n        /* \"#utility.yul\":7:82   */\n      swap1\n      jump\t// out\n        /* \"#utility.yul\":88:205   */\n    tag_106:\n        /* \"#utility.yul\":197:198   */\n      0x00\n        /* \"#utility.yul\":194:195   */\n      dup1\n        /* \"#utility.yul\":187:199   */\n      revert\n        /* \"#utility.yul\":211:328   */\n    tag_107:\n        /* \"#utility.yul\":320:321   */\n      0x00\n        /* \"#utility.yul\":317:318   */\n      dup1\n        /* \"#utility.yul\":310:322   */\n      revert\n        /* \"#utility.yul\":334:411   */\n    tag_108:\n        /* \"#utility.yul\":371:378   */\n      0x00\n        /* \"#utility.yul\":400:405   */\n      dup2\n        /* \"#utility.yul\":389:405   */\n      swap1\n      pop\n        /* \"#utility.yul\":334:411   */\n      swap2\n      swap1\n      pop\n      jump\t// out\n        /* \"#utility.yul\":417:539   */\n    tag_109:\n        /* \"#utility.yul\":490:514   */\n      tag_160\n        /* \"#utility.yul\":508:513   */\n      dup2\n        /* \"#utility.yul\":490:514   */\n      tag_108\n      jump\t// in\n    tag_160:\n        /* \"#utility.yul\":483:488   */\n      dup2\n        /* \"#utility.yul\":480:515   */\n      eq\n        /* \"#utility.yul\":470:533   */\n      tag_161\n      jumpi\n        /* \"#utility.yul\":529:530   */\n      0x00\n        /* \"#utility.yul\":526:527   */\n      dup1\n        /* \"#utility.yul\":519:531   */\n      revert\n        /* \"#utility.yul\":470:533   */\n    tag_161:\n        /* \"#utility.yul\":417:539   */\n      pop\n      jump\t// out\n        /* \"#utility.yul\":545:684   */\n    tag_110:\n        /* \"#utility.yul\":591:596   */\n      0x00\n        /* \"#utility.yul\":629:635   */\n      dup2\n        /* \"#utility.yul\":616:636   */\n      calldataload\n        /* \"#utility.yul\":607:636   */\n      swap1\n      pop\n        /* \"#utility.yul\":645:678   */\n      tag_163\n        /* \"#utility.yul\":672:677   */\n      dup2\n        /* \"#utility.yul\":645:678   */\n      tag_109\n      jump\t// in\n    tag_163:\n        /* \"#utility.yul\":545:684   */\n      swap3\n      swap2\n      pop\n      pop\n      jump\t// out\n        /* \"#utility.yul\":690:1019   */\n    tag_17:\n        /* \"#utility.yul\":749:755   */\n      0x00\n        /* \"#utility.yul\":798:800   */\n      0x20\n        /* \"#utility.yul\":786:795   */\n      dup3\n        /* \"#utility.yul\":777:784   */\n      dup5\n        /* \"#utility.yul\":773:796   */\n      sub\n        /* \"#utility.yul\":769:801   */\n      slt\n        /* \"#utility.yul\":766:885   */\n      iszero\n      tag_165\n      jumpi\n        /* \"#utility.yul\":804:883   */\n      tag_166\n      tag_106\n      jump\t// in\n    tag_166:\n        /* \"#utility.yul\":766:885   */\n    tag_165:\n        /* \"#utility.yul\":924:925   */\n      0x00\n        /* \"#utility.yul\":949:1002   */\n      tag_167\n        /* \"#utility.yul\":994:1001   */\n      dup5\n        /* \"#utility.yul\":985:991   */\n      dup3\n        /* \"#utility.yul\":974:983   */\n      dup6\n        /* \"#utility.yul\":970:992   */\n      add\n        /* \"#utility.yul\":949:1002   */\n      tag_110\n      jump\t// in\n    tag_167:\n        /* \"#utility.yul\":939:1002   */\n      swap2\n      pop\n        /* \"#utility.yul\":895:1012   */\n      pop\n        /* \"#utility.yul\":690:1019   */\n      swap3\n      swap2\n      pop\n      pop\n      jump\t// out\n        /* \"#utility.yul\":1025:1151   */\n    tag_111:\n        /* \"#utility.yul\":1062:1069   */\n      0x00\n        /* \"#utility.yul\":1102:1144   */\n      0xffffffffffffffffffffffffffffffffffffffff\n        /* \"#utility.yul\":1095:1100   */\n      dup3\n        /* \"#utility.yul\":1091:1145   */\n      and\n        /* \"#utility.yul\":1080:1145   */\n      swap1\n      pop\n        /* \"#utility.yul\":1025:1151   */\n      swap2\n      swap1\n      pop\n      jump\t// out\n        /* \"#utility.yul\":1157:1253   */\n    tag_112:\n        /* \"#utility.yul\":1194:1201   */\n      0x00\n        /* \"#utility.yul\":1223:1247   */\n      tag_170\n        /* \"#utility.yul\":1241:1246   */\n      dup3\n        /* \"#utility.yul\":1223:1247   */\n      tag_111\n      jump\t// in\n    tag_170:\n        /* \"#utility.yul\":1212:1247   */\n      swap1\n      pop\n        /* \"#utility.yul\":1157:1253   */\n      swap2\n      swap1\n      pop\n      jump\t// out\n        /* \"#utility.yul\":1259:1377   */\n    tag_113:\n        /* \"#utility.yul\":1346:1370   */\n      tag_172\n        /* \"#utility.yul\":1364:1369   */\n      dup2\n        /* \"#utility.yul\":1346:1370   */\n      tag_112\n      jump\t// in\n    tag_172:\n        /* \"#utility.yul\":1341:1344   */\n      dup3\n        /* \"#utility.yul\":1334:1371   */\n      mstore\n        /* \"#utility.yul\":1259:1377   */\n      pop\n      pop\n      jump\t// out\n        /* \"#utility.yul\":1383:1605   */\n    tag_20:\n        /* \"#utility.yul\":1476:1480   */\n      0x00\n        /* \"#utility.yul\":1514:1516   */\n      0x20\n        /* \"#utility.yul\":1503:1512   */\n      dup3\n        /* \"#utility.yul\":1499:1517   */\n      add\n        /* \"#utility.yul\":1491:1517   */\n      swap1\n      pop\n        /* \"#utility.yul\":1527:1598   */\n      tag_174\n        /* \"#utility.yul\":1595:1596   */\n      0x00\n        /* \"#utility.yul\":1584:1593   */\n      dup4\n        /* \"#utility.yul\":1580:1597   */\n      add\n        /* \"#utility.yul\":1571:1577   */\n      dup5\n        /* \"#utility.yul\":1527:1598   */\n      tag_113\n      jump\t// in\n    tag_174:\n        /* \"#utility.yul\":1383:1605   */\n      swap3\n      swap2\n      pop\n      pop\n      jump\t// out\n        /* \"#utility.yul\":1611:1729   */\n    tag_114:\n        /* \"#utility.yul\":1698:1722   */\n      tag_176\n        /* \"#utility.yul\":1716:1721   */\n      dup2\n        /* \"#utility.yul\":1698:1722   */\n      tag_108\n      jump\t// in\n    tag_176:\n        /* \"#utility.yul\":1693:1696   */\n      dup3\n        /* \"#utility.yul\":1686:1723   */\n      mstore\n        /* \"#utility.yul\":1611:1729   */\n      pop\n      pop\n      jump\t// out\n        /* \"#utility.yul\":1735:1957   */\n    tag_25:\n        /* \"#utility.yul\":1828:1832   */\n      0x00\n        /* \"#utility.yul\":1866:1868   */\n      0x20\n        /* \"#utility.yul\":1855:1864   */\n      dup3\n        /* \"#utility.yul\":1851:1869   */\n      add\n        /* \"#utility.yul\":1843:1869   */\n      swap1\n      pop\n        /* \"#utility.yul\":1879:1950   */\n      tag_178\n        /* \"#utility.yul\":1947:1948   */\n      0x00\n        /* \"#utility.yul\":1936:1945   */\n      dup4\n        /* \"#utility.yul\":1932:1949   */\n      add\n        /* \"#utility.yul\":1923:1929   */\n      dup5\n        /* \"#utility.yul\":1879:1950   */\n      tag_114\n      jump\t// in\n    tag_178:\n        /* \"#utility.yul\":1735:1957   */\n      swap3\n      swap2\n      pop\n      pop\n      jump\t// out\n        /* \"#utility.yul\":1963:2085   */\n    tag_115:\n        /* \"#utility.yul\":2036:2060   */\n      tag_180\n        /* \"#utility.yul\":2054:2059   */\n      dup2\n        /* \"#utility.yul\":2036:2060   */\n      tag_112\n      jump\t// in\n    tag_180:\n        /* \"#utility.yul\":2029:2034   */\n      dup2\n        /* \"#utility.yul\":2026:2061   */\n      eq\n        /* \"#utility.yul\":2016:2079   */\n      tag_181\n      jumpi\n        /* \"#utility.yul\":2075:2076   */\n      0x00\n        /* \"#utility.yul\":2072:2073   */\n      dup1\n        /* \"#utility.yul\":2065:2077   */\n      revert\n        /* \"#utility.yul\":2016:2079   */\n    tag_181:\n        /* \"#utility.yul\":1963:2085   */\n      pop\n      jump\t// out\n        /* \"#utility.yul\":2091:2230   */\n    tag_116:\n        /* \"#utility.yul\":2137:2142   */\n      0x00\n        /* \"#utility.yul\":2175:2181   */\n      dup2\n        /* \"#utility.yul\":2162:2182   */\n      calldataload\n        /* \"#utility.yul\":2153:2182   */\n      swap1\n      pop\n        /* \"#utility.yul\":2191:2224   */\n      tag_183\n        /* \"#utility.yul\":2218:2223   */\n      dup2\n        /* \"#utility.yul\":2191:2224   */\n      tag_115\n      jump\t// in\n    tag_183:\n        /* \"#utility.yul\":2091:2230   */\n      swap3\n      swap2\n      pop\n      pop\n      jump\t// out\n        /* \"#utility.yul\":2236:2565   */\n    tag_29:\n        /* \"#utility.yul\":2295:2301   */\n      0x00\n        /* \"#utility.yul\":2344:2346   */\n      0x20\n        /* \"#utility.yul\":2332:2341   */\n      dup3\n        /* \"#utility.yul\":2323:2330   */\n      dup5\n        /* \"#utility.yul\":2319:2342   */\n      sub\n        /* \"#utility.yul\":2315:2347   */\n      slt\n        /* \"#utility.yul\":2312:2431   */\n      iszero\n      tag_185\n      jumpi\n        /* \"#utility.yul\":2350:2429   */\n      tag_186\n      tag_106\n      jump\t// in\n    tag_186:\n        /* \"#utility.yul\":2312:2431   */\n    tag_185:\n        /* \"#utility.yul\":2470:2471   */\n      0x00\n        /* \"#utility.yul\":2495:2548   */\n      tag_187\n        /* \"#utility.yul\":2540:2547   */\n      dup5\n        /* \"#utility.yul\":2531:2537   */\n      dup3\n        /* \"#utility.yul\":2520:2529   */\n      dup6\n        /* \"#utility.yul\":2516:2538   */\n      add\n        /* \"#utility.yul\":2495:2548   */\n      tag_116\n      jump\t// in\n    tag_187:\n        /* \"#utility.yul\":2485:2548   */\n      swap2\n      pop\n        /* \"#utility.yul\":2441:2558   */\n      pop\n        /* \"#utility.yul\":2236:2565   */\n      swap3\n      swap2\n      pop\n      pop\n      jump\t// out\n        /* \"#utility.yul\":2571:2661   */\n    tag_117:\n        /* \"#utility.yul\":2605:2612   */\n      0x00\n        /* \"#utility.yul\":2648:2653   */\n      dup2\n        /* \"#utility.yul\":2641:2654   */\n      iszero\n        /* \"#utility.yul\":2634:2655   */\n      iszero\n        /* \"#utility.yul\":2623:2655   */\n      swap1\n      pop\n        /* \"#utility.yul\":2571:2661   */\n      swap2\n      swap1\n      pop\n      jump\t// out\n        /* \"#utility.yul\":2667:2776   */\n    tag_118:\n        /* \"#utility.yul\":2748:2769   */\n      tag_190\n        /* \"#utility.yul\":2763:2768   */\n      dup2\n        /* \"#utility.yul\":2748:2769   */\n      tag_117\n      jump\t// in\n    tag_190:\n        /* \"#utility.yul\":2743:2746   */\n      dup3\n        /* \"#utility.yul\":2736:2770   */\n      mstore\n        /* \"#utility.yul\":2667:2776   */\n      pop\n      pop\n      jump\t// out\n        /* \"#utility.yul\":2782:2992   */\n    tag_32:\n        /* \"#utility.yul\":2869:2873   */\n      0x00\n        /* \"#utility.yul\":2907:2909   */\n      0x20\n        /* \"#utility.yul\":2896:2905   */\n      dup3\n        /* \"#utility.yul\":2892:2910   */\n      add\n        /* \"#utility.yul\":2884:2910   */\n      swap1\n      pop\n        /* \"#utility.yul\":2920:2985   */\n      tag_192\n        /* \"#utility.yul\":2982:2983   */\n      0x00\n        /* \"#utility.yul\":2971:2980   */\n      dup4\n        /* \"#utility.yul\":2967:2984   */\n      add\n        /* \"#utility.yul\":2958:2964   */\n      dup5\n        /* \"#utility.yul\":2920:2985   */\n      tag_118\n      jump\t// in\n    tag_192:\n        /* \"#utility.yul\":2782:2992   */\n      swap3\n      swap2\n      pop\n      pop\n      jump\t// out\n        /* \"#utility.yul\":2998:3115   */\n    tag_119:\n        /* \"#utility.yul\":3107:3108   */\n      0x00\n        /* \"#utility.yul\":3104:3105   */\n      dup1\n        /* \"#utility.yul\":3097:3109   */\n      revert\n        /* \"#utility.yul\":3121:3238   */\n    tag_120:\n        /* \"#utility.yul\":3230:3231   */\n      0x00\n        /* \"#utility.yul\":3227:3228   */\n      dup1\n        /* \"#utility.yul\":3220:3232   */\n      revert\n        /* \"#utility.yul\":3244:3346   */\n    tag_121:\n        /* \"#utility.yul\":3285:3291   */\n      0x00\n        /* \"#utility.yul\":3336:3338   */\n      0x1f\n        /* \"#utility.yul\":3332:3339   */\n      not\n        /* \"#utility.yul\":3327:3329   */\n      0x1f\n        /* \"#utility.yul\":3320:3325   */\n      dup4\n        /* \"#utility.yul\":3316:3330   */\n      add\n        /* \"#utility.yul\":3312:3340   */\n      and\n        /* \"#utility.yul\":3302:3340   */\n      swap1\n      pop\n        /* \"#utility.yul\":3244:3346   */\n      swap2\n      swap1\n      pop\n      jump\t// out\n        /* \"#utility.yul\":3352:3532   */\n    tag_122:\n        /* \"#utility.yul\":3400:3477   */\n      0x4e487b7100000000000000000000000000000000000000000000000000000000\n        /* \"#utility.yul\":3397:3398   */\n      0x00\n        /* \"#utility.yul\":3390:3478   */\n      mstore\n        /* \"#utility.yul\":3497:3501   */\n      0x41\n        /* \"#utility.yul\":3494:3495   */\n      0x04\n        /* \"#utility.yul\":3487:3502   */\n      mstore\n        /* \"#utility.yul\":3521:3525   */\n      0x24\n        /* \"#utility.yul\":3518:3519   */\n      0x00\n        /* \"#utility.yul\":3511:3526   */\n      revert\n        /* \"#utility.yul\":3538:3819   */\n    tag_123:\n        /* \"#utility.yul\":3621:3648   */\n      tag_198\n        /* \"#utility.yul\":3643:3647   */\n      dup3\n        /* \"#utility.yul\":3621:3648   */\n      tag_121\n      jump\t// in\n    tag_198:\n        /* \"#utility.yul\":3613:3619   */\n      dup2\n        /* \"#utility.yul\":3609:3649   */\n      add\n        /* \"#utility.yul\":3751:3757   */\n      dup2\n        /* \"#utility.yul\":3739:3749   */\n      dup2\n        /* \"#utility.yul\":3736:3758   */\n      lt\n        /* \"#utility.yul\":3715:3733   */\n      0xffffffffffffffff\n        /* \"#utility.yul\":3703:3713   */\n      dup3\n        /* \"#utility.yul\":3700:3734   */\n      gt\n        /* \"#utility.yul\":3697:3759   */\n      or\n        /* \"#utility.yul\":3694:3782   */\n      iszero\n      tag_199\n      jumpi\n        /* \"#utility.yul\":3762:3780   */\n      tag_200\n      tag_122\n      jump\t// in\n    tag_200:\n        /* \"#utility.yul\":3694:3782   */\n    tag_199:\n        /* \"#utility.yul\":3802:3812   */\n      dup1\n        /* \"#utility.yul\":3798:3800   */\n      0x40\n        /* \"#utility.yul\":3791:3813   */\n      mstore\n        /* \"#utility.yul\":3581:3819   */\n      pop\n        /* \"#utility.yul\":3538:3819   */\n      pop\n      pop\n      jump\t// out\n        /* \"#utility.yul\":3825:3954   */\n    tag_124:\n        /* \"#utility.yul\":3859:3865   */\n      0x00\n        /* \"#utility.yul\":3886:3906   */\n      tag_202\n      tag_105\n      jump\t// in\n    tag_202:\n        /* \"#utility.yul\":3876:3906   */\n      swap1\n      pop\n        /* \"#utility.yul\":3915:3948   */\n      tag_203\n        /* \"#utility.yul\":3943:3947   */\n      dup3\n        /* \"#utility.yul\":3935:3941   */\n      dup3\n        /* \"#utility.yul\":3915:3948   */\n      tag_123\n      jump\t// in\n    tag_203:\n        /* \"#utility.yul\":3825:3954   */\n      swap2\n      swap1\n      pop\n      jump\t// out\n        /* \"#utility.yul\":3960:4267   */\n    tag_125:\n        /* \"#utility.yul\":4021:4025   */\n      0x00\n        /* \"#utility.yul\":4111:4129   */\n      0xffffffffffffffff\n        /* \"#utility.yul\":4103:4109   */\n      dup3\n        /* \"#utility.yul\":4100:4130   */\n      gt\n        /* \"#utility.yul\":4097:4153   */\n      iszero\n      tag_205\n      jumpi\n        /* \"#utility.yul\":4133:4151   */\n      tag_206\n      tag_122\n      jump\t// in\n    tag_206:\n        /* \"#utility.yul\":4097:4153   */\n    tag_205:\n        /* \"#utility.yul\":4171:4200   */\n      tag_207\n        /* \"#utility.yul\":4193:4199   */\n      dup3\n        /* \"#utility.yul\":4171:4200   */\n      tag_121\n      jump\t// in\n    tag_207:\n        /* \"#utility.yul\":4163:4200   */\n      swap1\n      pop\n        /* \"#utility.yul\":4255:4259   */\n      0x20\n        /* \"#utility.yul\":4249:4253   */\n      dup2\n        /* \"#utility.yul\":4245:4260   */\n      add\n        /* \"#utility.yul\":4237:4260   */\n      swap1\n      pop\n        /* \"#utility.yul\":3960:4267   */\n      swap2\n      swap1\n      pop\n      jump\t// out\n        /* \"#utility.yul\":4273:4421   */\n    tag_126:\n        /* \"#utility.yul\":4371:4377   */\n      dup3\n        /* \"#utility.yul\":4366:4369   */\n      dup2\n        /* \"#utility.yul\":4361:4364   */\n      dup4\n        /* \"#utility.yul\":4348:4378   */\n      calldatacopy\n        /* \"#utility.yul\":4412:4413   */\n      0x00\n        /* \"#utility.yul\":4403:4409   */\n      dup4\n        /* \"#utility.yul\":4398:4401   */\n      dup4\n        /* \"#utility.yul\":4394:4410   */\n      add\n        /* \"#utility.yul\":4387:4414   */\n      mstore\n        /* \"#utility.yul\":4273:4421   */\n      pop\n      pop\n      pop\n      jump\t// out\n        /* \"#utility.yul\":4427:4850   */\n    tag_127:\n        /* \"#utility.yul\":4504:4509   */\n      0x00\n        /* \"#utility.yul\":4529:4594   */\n      tag_210\n        /* \"#utility.yul\":4545:4593   */\n      tag_211\n        /* \"#utility.yul\":4586:4592   */\n      dup5\n        /* \"#utility.yul\":4545:4593   */\n      tag_125\n      jump\t// in\n    tag_211:\n        /* \"#utility.yul\":4529:4594   */\n      tag_124\n      jump\t// in\n    tag_210:\n        /* \"#utility.yul\":4520:4594   */\n      swap1\n      pop\n        /* \"#utility.yul\":4617:4623   */\n      dup3\n        /* \"#utility.yul\":4610:4615   */\n      dup2\n        /* \"#utility.yul\":4603:4624   */\n      mstore\n        /* \"#utility.yul\":4655:4659   */\n      0x20\n        /* \"#utility.yul\":4648:4653   */\n      dup2\n        /* \"#utility.yul\":4644:4660   */\n      add\n        /* \"#utility.yul\":4693:4696   */\n      dup5\n        /* \"#utility.yul\":4684:4690   */\n      dup5\n        /* \"#utility.yul\":4679:4682   */\n      dup5\n        /* \"#utility.yul\":4675:4691   */\n      add\n        /* \"#utility.yul\":4672:4697   */\n      gt\n        /* \"#utility.yul\":4669:4781   */\n      iszero\n      tag_212\n      jumpi\n        /* \"#utility.yul\":4700:4779   */\n      tag_213\n      tag_120\n      jump\t// in\n    tag_213:\n        /* \"#utility.yul\":4669:4781   */\n    tag_212:\n        /* \"#utility.yul\":4790:4844   */\n      tag_214\n        /* \"#utility.yul\":4837:4843   */\n      dup5\n        /* \"#utility.yul\":4832:4835   */\n      dup3\n        /* \"#utility.yul\":4827:4830   */\n      dup6\n        /* \"#utility.yul\":4790:4844   */\n      tag_126\n      jump\t// in\n    tag_214:\n        /* \"#utility.yul\":4510:4850   */\n      pop\n        /* \"#utility.yul\":4427:4850   */\n      swap4\n      swap3\n      pop\n      pop\n      pop\n      jump\t// out\n        /* \"#utility.yul\":4869:5207   */\n    tag_128:\n        /* \"#utility.yul\":4924:4929   */\n      0x00\n        /* \"#utility.yul\":4973:4976   */\n      dup3\n        /* \"#utility.yul\":4966:4970   */\n      0x1f\n        /* \"#utility.yul\":4958:4964   */\n      dup4\n        /* \"#utility.yul\":4954:4971   */\n      add\n        /* \"#utility.yul\":4950:4977   */\n      slt\n        /* \"#utility.yul\":4940:5062   */\n      tag_216\n      jumpi\n        /* \"#utility.yul\":4981:5060   */\n      tag_217\n      tag_119\n      jump\t// in\n    tag_217:\n        /* \"#utility.yul\":4940:5062   */\n    tag_216:\n        /* \"#utility.yul\":5098:5104   */\n      dup2\n        /* \"#utility.yul\":5085:5105   */\n      calldataload\n        /* \"#utility.yul\":5123:5201   */\n      tag_218\n        /* \"#utility.yul\":5197:5200   */\n      dup5\n        /* \"#utility.yul\":5189:5195   */\n      dup3\n        /* \"#utility.yul\":5182:5186   */\n      0x20\n        /* \"#utility.yul\":5174:5180   */\n      dup7\n        /* \"#utility.yul\":5170:5187   */\n      add\n        /* \"#utility.yul\":5123:5201   */\n      tag_127\n      jump\t// in\n    tag_218:\n        /* \"#utility.yul\":5114:5201   */\n      swap2\n      pop\n        /* \"#utility.yul\":4930:5207   */\n      pop\n        /* \"#utility.yul\":4869:5207   */\n      swap3\n      swap2\n      pop\n      pop\n      jump\t// out\n        /* \"#utility.yul\":5213:6302   */\n    tag_40:\n        /* \"#utility.yul\":5317:5323   */\n      0x00\n        /* \"#utility.yul\":5325:5331   */\n      dup1\n        /* \"#utility.yul\":5333:5339   */\n      0x00\n        /* \"#utility.yul\":5341:5347   */\n      dup1\n        /* \"#utility.yul\":5349:5355   */\n      0x00\n        /* \"#utility.yul\":5398:5401   */\n      0xa0\n        /* \"#utility.yul\":5386:5395   */\n      dup7\n        /* \"#utility.yul\":5377:5384   */\n      dup9\n        /* \"#utility.yul\":5373:5396   */\n      sub\n        /* \"#utility.yul\":5369:5402   */\n      slt\n        /* \"#utility.yul\":5366:5486   */\n      iszero\n      tag_220\n      jumpi\n        /* \"#utility.yul\":5405:5484   */\n      tag_221\n      tag_106\n      jump\t// in\n    tag_221:\n        /* \"#utility.yul\":5366:5486   */\n    tag_220:\n        /* \"#utility.yul\":5525:5526   */\n      0x00\n        /* \"#utility.yul\":5550:5603   */\n      tag_222\n        /* \"#utility.yul\":5595:5602   */\n      dup9\n        /* \"#utility.yul\":5586:5592   */\n      dup3\n        /* \"#utility.yul\":5575:5584   */\n      dup10\n        /* \"#utility.yul\":5571:5593   */\n      add\n        /* \"#utility.yul\":5550:5603   */\n      tag_116\n      jump\t// in\n    tag_222:\n        /* \"#utility.yul\":5540:5603   */\n      swap6\n      pop\n        /* \"#utility.yul\":5496:5613   */\n      pop\n        /* \"#utility.yul\":5652:5654   */\n      0x20\n        /* \"#utility.yul\":5678:5731   */\n      tag_223\n        /* \"#utility.yul\":5723:5730   */\n      dup9\n        /* \"#utility.yul\":5714:5720   */\n      dup3\n        /* \"#utility.yul\":5703:5712   */\n      dup10\n        /* \"#utility.yul\":5699:5721   */\n      add\n        /* \"#utility.yul\":5678:5731   */\n      tag_110\n      jump\t// in\n    tag_223:\n        /* \"#utility.yul\":5668:5731   */\n      swap5\n      pop\n        /* \"#utility.yul\":5623:5741   */\n      pop\n        /* \"#utility.yul\":5808:5810   */\n      0x40\n        /* \"#utility.yul\":5797:5806   */\n      dup7\n        /* \"#utility.yul\":5793:5811   */\n      add\n        /* \"#utility.yul\":5780:5812   */\n      calldataload\n        /* \"#utility.yul\":5839:5857   */\n      0xffffffffffffffff\n        /* \"#utility.yul\":5831:5837   */\n      dup2\n        /* \"#utility.yul\":5828:5858   */\n      gt\n        /* \"#utility.yul\":5825:5942   */\n      iszero\n      tag_224\n      jumpi\n        /* \"#utility.yul\":5861:5940   */\n      tag_225\n      tag_107\n      jump\t// in\n    tag_225:\n        /* \"#utility.yul\":5825:5942   */\n    tag_224:\n        /* \"#utility.yul\":5966:6028   */\n      tag_226\n        /* \"#utility.yul\":6020:6027   */\n      dup9\n        /* \"#utility.yul\":6011:6017   */\n      dup3\n        /* \"#utility.yul\":6000:6009   */\n      dup10\n        /* \"#utility.yul\":5996:6018   */\n      add\n        /* \"#utility.yul\":5966:6028   */\n      tag_128\n      jump\t// in\n    tag_226:\n        /* \"#utility.yul\":5956:6028   */\n      swap4\n      pop\n        /* \"#utility.yul\":5751:6038   */\n      pop\n        /* \"#utility.yul\":6077:6079   */\n      0x60\n        /* \"#utility.yul\":6103:6156   */\n      tag_227\n        /* \"#utility.yul\":6148:6155   */\n      dup9\n        /* \"#utility.yul\":6139:6145   */\n      dup3\n        /* \"#utility.yul\":6128:6137   */\n      dup10\n        /* \"#utility.yul\":6124:6146   */\n      add\n        /* \"#utility.yul\":6103:6156   */\n      tag_110\n      jump\t// in\n    tag_227:\n        /* \"#utility.yul\":6093:6156   */\n      swap3\n      pop\n        /* \"#utility.yul\":6048:6166   */\n      pop\n        /* \"#utility.yul\":6205:6208   */\n      0x80\n        /* \"#utility.yul\":6232:6285   */\n      tag_228\n        /* \"#utility.yul\":6277:6284   */\n      dup9\n        /* \"#utility.yul\":6268:6274   */\n      dup3\n        /* \"#utility.yul\":6257:6266   */\n      dup10\n        /* \"#utility.yul\":6253:6275   */\n      add\n        /* \"#utility.yul\":6232:6285   */\n      tag_110\n      jump\t// in\n    tag_228:\n        /* \"#utility.yul\":6222:6285   */\n      swap2\n      pop\n        /* \"#utility.yul\":6176:6295   */\n      pop\n        /* \"#utility.yul\":5213:6302   */\n      swap3\n      swap6\n      pop\n      swap3\n      swap6\n      swap1\n      swap4\n      pop\n      jump\t// out\n        /* \"#utility.yul\":6308:6385   */\n    tag_129:\n        /* \"#utility.yul\":6345:6352   */\n      0x00\n        /* \"#utility.yul\":6374:6379   */\n      dup2\n        /* \"#utility.yul\":6363:6379   */\n      swap1\n      pop\n        /* \"#utility.yul\":6308:6385   */\n      swap2\n      swap1\n      pop\n      jump\t// out\n        /* \"#utility.yul\":6391:6509   */\n    tag_130:\n        /* \"#utility.yul\":6478:6502   */\n      tag_231\n        /* \"#utility.yul\":6496:6501   */\n      dup2\n        /* \"#utility.yul\":6478:6502   */\n      tag_129\n      jump\t// in\n    tag_231:\n        /* \"#utility.yul\":6473:6476   */\n      dup3\n        /* \"#utility.yul\":6466:6503   */\n      mstore\n        /* \"#utility.yul\":6391:6509   */\n      pop\n      pop\n      jump\t// out\n        /* \"#utility.yul\":6515:6737   */\n    tag_43:\n        /* \"#utility.yul\":6608:6612   */\n      0x00\n        /* \"#utility.yul\":6646:6648   */\n      0x20\n        /* \"#utility.yul\":6635:6644   */\n      dup3\n        /* \"#utility.yul\":6631:6649   */\n      add\n        /* \"#utility.yul\":6623:6649   */\n      swap1\n      pop\n        /* \"#utility.yul\":6659:6730   */\n      tag_233\n        /* \"#utility.yul\":6727:6728   */\n      0x00\n        /* \"#utility.yul\":6716:6725   */\n      dup4\n        /* \"#utility.yul\":6712:6729   */\n      add\n        /* \"#utility.yul\":6703:6709   */\n      dup5\n        /* \"#utility.yul\":6659:6730   */\n      tag_130\n      jump\t// in\n    tag_233:\n        /* \"#utility.yul\":6515:6737   */\n      swap3\n      swap2\n      pop\n      pop\n      jump\t// out\n        /* \"#utility.yul\":6743:7864   */\n    tag_50:\n        /* \"#utility.yul\":6847:6853   */\n      0x00\n        /* \"#utility.yul\":6855:6861   */\n      dup1\n        /* \"#utility.yul\":6863:6869   */\n      0x00\n        /* \"#utility.yul\":6871:6877   */\n      dup1\n        /* \"#utility.yul\":6920:6923   */\n      0x80\n        /* \"#utility.yul\":6908:6917   */\n      dup6\n        /* \"#utility.yul\":6899:6906   */\n      dup8\n        /* \"#utility.yul\":6895:6918   */\n      sub\n        /* \"#utility.yul\":6891:6924   */\n      slt\n        /* \"#utility.yul\":6888:7008   */\n      iszero\n      tag_235\n      jumpi\n        /* \"#utility.yul\":6927:7006   */\n      tag_236\n      tag_106\n      jump\t// in\n    tag_236:\n        /* \"#utility.yul\":6888:7008   */\n    tag_235:\n        /* \"#utility.yul\":7047:7048   */\n      0x00\n        /* \"#utility.yul\":7072:7125   */\n      tag_237\n        /* \"#utility.yul\":7117:7124   */\n      dup8\n        /* \"#utility.yul\":7108:7114   */\n      dup3\n        /* \"#utility.yul\":7097:7106   */\n      dup9\n        /* \"#utility.yul\":7093:7115   */\n      add\n        /* \"#utility.yul\":7072:7125   */\n      tag_116\n      jump\t// in\n    tag_237:\n        /* \"#utility.yul\":7062:7125   */\n      swap5\n      pop\n        /* \"#utility.yul\":7018:7135   */\n      pop\n        /* \"#utility.yul\":7174:7176   */\n      0x20\n        /* \"#utility.yul\":7200:7253   */\n      tag_238\n        /* \"#utility.yul\":7245:7252   */\n      dup8\n        /* \"#utility.yul\":7236:7242   */\n      dup3\n        /* \"#utility.yul\":7225:7234   */\n      dup9\n        /* \"#utility.yul\":7221:7243   */\n      add\n        /* \"#utility.yul\":7200:7253   */\n      tag_110\n      jump\t// in\n    tag_238:\n        /* \"#utility.yul\":7190:7253   */\n      swap4\n      pop\n        /* \"#utility.yul\":7145:7263   */\n      pop\n        /* \"#utility.yul\":7330:7332   */\n      0x40\n        /* \"#utility.yul\":7319:7328   */\n      dup6\n        /* \"#utility.yul\":7315:7333   */\n      add\n        /* \"#utility.yul\":7302:7334   */\n      calldataload\n        /* \"#utility.yul\":7361:7379   */\n      0xffffffffffffffff\n        /* \"#utility.yul\":7353:7359   */\n      dup2\n        /* \"#utility.yul\":7350:7380   */\n      gt\n        /* \"#utility.yul\":7347:7464   */\n      iszero\n      tag_239\n      jumpi\n        /* \"#utility.yul\":7383:7462   */\n      tag_240\n      tag_107\n      jump\t// in\n    tag_240:\n        /* \"#utility.yul\":7347:7464   */\n    tag_239:\n        /* \"#utility.yul\":7488:7550   */\n      tag_241\n        /* \"#utility.yul\":7542:7549   */\n      dup8\n        /* \"#utility.yul\":7533:7539   */\n      dup3\n        /* \"#utility.yul\":7522:7531   */\n      dup9\n        /* \"#utility.yul\":7518:7540   */\n      add\n        /* \"#utility.yul\":7488:7550   */\n      tag_128\n      jump\t// in\n    tag_241:\n        /* \"#utility.yul\":7478:7550   */\n      swap3\n      pop\n        /* \"#utility.yul\":7273:7560   */\n      pop\n        /* \"#utility.yul\":7627:7629   */\n      0x60\n        /* \"#utility.yul\":7616:7625   */\n      dup6\n        /* \"#utility.yul\":7612:7630   */\n      add\n        /* \"#utility.yul\":7599:7631   */\n      calldataload\n        /* \"#utility.yul\":7658:7676   */\n      0xffffffffffffffff\n        /* \"#utility.yul\":7650:7656   */\n      dup2\n        /* \"#utility.yul\":7647:7677   */\n      gt\n        /* \"#utility.yul\":7644:7761   */\n      iszero\n      tag_242\n      jumpi\n        /* \"#utility.yul\":7680:7759   */\n      tag_243\n      tag_107\n      jump\t// in\n    tag_243:\n        /* \"#utility.yul\":7644:7761   */\n    tag_242:\n        /* \"#utility.yul\":7785:7847   */\n      tag_244\n        /* \"#utility.yul\":7839:7846   */\n      dup8\n        /* \"#utility.yul\":7830:7836   */\n      dup3\n        /* \"#utility.yul\":7819:7828   */\n      dup9\n        /* \"#utility.yul\":7815:7837   */\n      add\n        /* \"#utility.yul\":7785:7847   */\n      tag_128\n      jump\t// in\n    tag_244:\n        /* \"#utility.yul\":7775:7847   */\n      swap2\n      pop\n        /* \"#utility.yul\":7570:7857   */\n      pop\n        /* \"#utility.yul\":6743:7864   */\n      swap3\n      swap6\n      swap2\n      swap5\n      pop\n      swap3\n      pop\n      jump\t// out\n        /* \"#utility.yul\":7870:7992   */\n    tag_131:\n        /* \"#utility.yul\":7943:7967   */\n      tag_246\n        /* \"#utility.yul\":7961:7966   */\n      dup2\n        /* \"#utility.yul\":7943:7967   */\n      tag_129\n      jump\t// in\n    tag_246:\n        /* \"#utility.yul\":7936:7941   */\n      dup2\n        /* \"#utility.yul\":7933:7968   */\n      eq\n        /* \"#utility.yul\":7923:7986   */\n      tag_247\n      jumpi\n        /* \"#utility.yul\":7982:7983   */\n      0x00\n        /* \"#utility.yul\":7979:7980   */\n      dup1\n        /* \"#utility.yul\":7972:7984   */\n      revert\n        /* \"#utility.yul\":7923:7986   */\n    tag_247:\n        /* \"#utility.yul\":7870:7992   */\n      pop\n      jump\t// out\n        /* \"#utility.yul\":7998:8137   */\n    tag_132:\n        /* \"#utility.yul\":8044:8049   */\n      0x00\n        /* \"#utility.yul\":8082:8088   */\n      dup2\n        /* \"#utility.yul\":8069:8089   */\n      calldataload\n        /* \"#utility.yul\":8060:8089   */\n      swap1\n      pop\n        /* \"#utility.yul\":8098:8131   */\n      tag_249\n        /* \"#utility.yul\":8125:8130   */\n      dup2\n        /* \"#utility.yul\":8098:8131   */\n      tag_131\n      jump\t// in\n    tag_249:\n        /* \"#utility.yul\":7998:8137   */\n      swap3\n      swap2\n      pop\n      pop\n      jump\t// out\n        /* \"#utility.yul\":8143:8795   */\n    tag_56:\n        /* \"#utility.yul\":8220:8226   */\n      0x00\n        /* \"#utility.yul\":8228:8234   */\n      dup1\n        /* \"#utility.yul\":8277:8279   */\n      0x40\n        /* \"#utility.yul\":8265:8274   */\n      dup4\n        /* \"#utility.yul\":8256:8263   */\n      dup6\n        /* \"#utility.yul\":8252:8275   */\n      sub\n        /* \"#utility.yul\":8248:8280   */\n      slt\n        /* \"#utility.yul\":8245:8364   */\n      iszero\n      tag_251\n      jumpi\n        /* \"#utility.yul\":8283:8362   */\n      tag_252\n      tag_106\n      jump\t// in\n    tag_252:\n        /* \"#utility.yul\":8245:8364   */\n    tag_251:\n        /* \"#utility.yul\":8403:8404   */\n      0x00\n        /* \"#utility.yul\":8428:8481   */\n      tag_253\n        /* \"#utility.yul\":8473:8480   */\n      dup6\n        /* \"#utility.yul\":8464:8470   */\n      dup3\n        /* \"#utility.yul\":8453:8462   */\n      dup7\n        /* \"#utility.yul\":8449:8471   */\n      add\n        /* \"#utility.yul\":8428:8481   */\n      tag_132\n      jump\t// in\n    tag_253:\n        /* \"#utility.yul\":8418:8481   */\n      swap3\n      pop\n        /* \"#utility.yul\":8374:8491   */\n      pop\n        /* \"#utility.yul\":8558:8560   */\n      0x20\n        /* \"#utility.yul\":8547:8556   */\n      dup4\n        /* \"#utility.yul\":8543:8561   */\n      add\n        /* \"#utility.yul\":8530:8562   */\n      calldataload\n        /* \"#utility.yul\":8589:8607   */\n      0xffffffffffffffff\n        /* \"#utility.yul\":8581:8587   */\n      dup2\n        /* \"#utility.yul\":8578:8608   */\n      gt\n        /* \"#utility.yul\":8575:8692   */\n      iszero\n      tag_254\n      jumpi\n        /* \"#utility.yul\":8611:8690   */\n      tag_255\n      tag_107\n      jump\t// in\n    tag_255:\n        /* \"#utility.yul\":8575:8692   */\n    tag_254:\n        /* \"#utility.yul\":8716:8778   */\n      tag_256\n        /* \"#utility.yul\":8770:8777   */\n      dup6\n        /* \"#utility.yul\":8761:8767   */\n      dup3\n        /* \"#utility.yul\":8750:8759   */\n      dup7\n        /* \"#utility.yul\":8746:8768   */\n      add\n        /* \"#utility.yul\":8716:8778   */\n      tag_128\n      jump\t// in\n    tag_256:\n        /* \"#utility.yul\":8706:8778   */\n      swap2\n      pop\n        /* \"#utility.yul\":8501:8788   */\n      pop\n        /* \"#utility.yul\":8143:8795   */\n      swap3\n      pop\n      swap3\n      swap1\n      pop\n      jump\t// out\n        /* \"#utility.yul\":8801:9465   */\n    tag_62:\n        /* \"#utility.yul\":9006:9010   */\n      0x00\n        /* \"#utility.yul\":9044:9047   */\n      0xa0\n        /* \"#utility.yul\":9033:9042   */\n      dup3\n        /* \"#utility.yul\":9029:9048   */\n      add\n        /* \"#utility.yul\":9021:9048   */\n      swap1\n      pop\n        /* \"#utility.yul\":9058:9129   */\n      tag_258\n        /* \"#utility.yul\":9126:9127   */\n      0x00\n        /* \"#utility.yul\":9115:9124   */\n      dup4\n        /* \"#utility.yul\":9111:9128   */\n      add\n        /* \"#utility.yul\":9102:9108   */\n      dup9\n        /* \"#utility.yul\":9058:9129   */\n      tag_113\n      jump\t// in\n    tag_258:\n        /* \"#utility.yul\":9139:9211   */\n      tag_259\n        /* \"#utility.yul\":9207:9209   */\n      0x20\n        /* \"#utility.yul\":9196:9205   */\n      dup4\n        /* \"#utility.yul\":9192:9210   */\n      add\n        /* \"#utility.yul\":9183:9189   */\n      dup8\n        /* \"#utility.yul\":9139:9211   */\n      tag_114\n      jump\t// in\n    tag_259:\n        /* \"#utility.yul\":9221:9293   */\n      tag_260\n        /* \"#utility.yul\":9289:9291   */\n      0x40\n        /* \"#utility.yul\":9278:9287   */\n      dup4\n        /* \"#utility.yul\":9274:9292   */\n      add\n        /* \"#utility.yul\":9265:9271   */\n      dup7\n        /* \"#utility.yul\":9221:9293   */\n      tag_130\n      jump\t// in\n    tag_260:\n        /* \"#utility.yul\":9303:9375   */\n      tag_261\n        /* \"#utility.yul\":9371:9373   */\n      0x60\n        /* \"#utility.yul\":9360:9369   */\n      dup4\n        /* \"#utility.yul\":9356:9374   */\n      add\n        /* \"#utility.yul\":9347:9353   */\n      dup6\n        /* \"#utility.yul\":9303:9375   */\n      tag_114\n      jump\t// in\n    tag_261:\n        /* \"#utility.yul\":9385:9458   */\n      tag_262\n        /* \"#utility.yul\":9453:9456   */\n      0x80\n        /* \"#utility.yul\":9442:9451   */\n      dup4\n        /* \"#utility.yul\":9438:9457   */\n      add\n        /* \"#utility.yul\":9429:9435   */\n      dup5\n        /* \"#utility.yul\":9385:9458   */\n      tag_114\n      jump\t// in\n    tag_262:\n        /* \"#utility.yul\":8801:9465   */\n      swap7\n      swap6\n      pop\n      pop\n      pop\n      pop\n      pop\n      pop\n      jump\t// out\n        /* \"#utility.yul\":9471:9651   */\n    tag_133:\n        /* \"#utility.yul\":9519:9596   */\n      0x4e487b7100000000000000000000000000000000000000000000000000000000\n        /* \"#utility.yul\":9516:9517   */\n      0x00\n        /* \"#utility.yul\":9509:9597   */\n      mstore\n        /* \"#utility.yul\":9616:9620   */\n      0x11\n        /* \"#utility.yul\":9613:9614   */\n      0x04\n        /* \"#utility.yul\":9606:9621   */\n      mstore\n        /* \"#utility.yul\":9640:9644   */\n      0x24\n        /* \"#utility.yul\":9637:9638   */\n      0x00\n        /* \"#utility.yul\":9630:9645   */\n      revert\n        /* \"#utility.yul\":9657:9890   */\n    tag_66:\n        /* \"#utility.yul\":9696:9699   */\n      0x00\n        /* \"#utility.yul\":9719:9743   */\n      tag_265\n        /* \"#utility.yul\":9737:9742   */\n      dup3\n        /* \"#utility.yul\":9719:9743   */\n      tag_108\n      jump\t// in\n    tag_265:\n        /* \"#utility.yul\":9710:9743   */\n      swap2\n      pop\n        /* \"#utility.yul\":9765:9831   */\n      0xffffffffffffffffffffffffffffffffffffffffffffffffffffffffffffffff\n        /* \"#utility.yul\":9758:9763   */\n      dup3\n        /* \"#utility.yul\":9755:9832   */\n      sub\n        /* \"#utility.yul\":9752:9855   */\n      tag_266\n      jumpi\n        /* \"#utility.yul\":9835:9853   */\n      tag_267\n      tag_133\n      jump\t// in\n    tag_267:\n        /* \"#utility.yul\":9752:9855   */\n    tag_266:\n        /* \"#utility.yul\":9882:9883   */\n      0x01\n        /* \"#utility.yul\":9875:9880   */\n      dup3\n        /* \"#utility.yul\":9871:9884   */\n      add\n        /* \"#utility.yul\":9864:9884   */\n      swap1\n      pop\n        /* \"#utility.yul\":9657:9890   */\n      swap2\n      swap1\n      pop\n      jump\t// out\n        /* \"#utility.yul\":9896:9994   */\n    tag_134:\n        /* \"#utility.yul\":9947:9953   */\n      0x00\n        /* \"#utility.yul\":9981:9986   */\n      dup2\n        /* \"#utility.yul\":9975:9987   */\n      mload\n        /* \"#utility.yul\":9965:9987   */\n      swap1\n      pop\n        /* \"#utility.yul\":9896:9994   */\n      swap2\n      swap1\n      pop\n      jump\t// out\n        /* \"#utility.yul\":10000:10147   */\n    tag_135:\n        /* \"#utility.yul\":10101:10112   */\n      0x00\n        /* \"#utility.yul\":10138:10141   */\n      dup2\n        /* \"#utility.yul\":10123:10141   */\n      swap1\n      pop\n        /* \"#utility.yul\":10000:10147   */\n      swap3\n      swap2\n      pop\n      pop\n      jump\t// out\n        /* \"#utility.yul\":10153:10292   */\n    tag_136:\n        /* \"#utility.yul\":10242:10248   */\n      dup3\n        /* \"#utility.yul\":10237:10240   */\n      dup2\n        /* \"#utility.yul\":10232:10235   */\n      dup4\n        /* \"#utility.yul\":10226:10249   */\n      mcopy\n        /* \"#utility.yul\":10283:10284   */\n      0x00\n        /* \"#utility.yul\":10274:10280   */\n      dup4\n        /* \"#utility.yul\":10269:10272   */\n      dup4\n        /* \"#utility.yul\":10265:10281   */\n      add\n        /* \"#utility.yul\":10258:10285   */\n      mstore\n        /* \"#utility.yul\":10153:10292   */\n      pop\n      pop\n      pop\n      jump\t// out\n        /* \"#utility.yul\":10298:10684   */\n    tag_137:\n        /* \"#utility.yul\":10402:10405   */\n      0x00\n        /* \"#utility.yul\":10430:10468   */\n      tag_272\n        /* \"#utility.yul\":10462:10467   */\n      dup3\n        /* \"#utility.yul\":10430:10468   */\n      tag_134\n      jump\t// in\n    tag_272:\n        /* \"#utility.yul\":10484:10572   */\n      tag_273\n        /* \"#utility.yul\":10565:10571   */\n      dup2\n        /* \"#utility.yul\":10560:10563   */\n      dup6\n        /* \"#utility.yul\":10484:10572   */\n      tag_135\n      jump\t// in\n    tag_273:\n        /* \"#utility.yul\":10477:10572   */\n      swap4\n      pop\n        /* \"#utility.yul\":10581:10646   */\n      tag_274\n        /* \"#utility.yul\":10639:10645   */\n      dup2\n        /* \"#utility.yul\":10634:10637   */\n      dup6\n        /* \"#utility.yul\":10627:10631   */\n      0x20\n        /* \"#utility.yul\":10620:10625   */\n      dup7\n        /* \"#utility.yul\":10616:10632   */\n      add\n        /* \"#utility.yul\":10581:10646   */\n      tag_136\n      jump\t// in\n    tag_274:\n        /* \"#utility.yul\":10671:10677   */\n      dup1\n        /* \"#utility.yul\":10666:10669   */\n      dup5\n        /* \"#utility.yul\":10662:10678   */\n      add\n        /* \"#utility.yul\":10655:10678   */\n      swap2\n      pop\n        /* \"#utility.yul\":10406:10684   */\n      pop\n        /* \"#utility.yul\":10298:10684   */\n      swap3\n      swap2\n      pop\n      pop\n      jump\t// out\n        /* \"#utility.yul\":10690:10961   */\n    tag_69:\n        /* \"#utility.yul\":10820:10823   */\n      0x00\n        /* \"#utility.yul\":10842:10935   */\n      tag_276\n        /* \"#utility.yul\":10931:10934   */\n      dup3\n        /* \"#utility.yul\":10922:10928   */\n      dup5\n        /* \"#utility.yul\":10842:10935   */\n      tag_137\n      jump\t// in\n    tag_276:\n        /* \"#utility.yul\":10835:10935   */\n      swap2\n      pop\n        /* \"#utility.yul\":10952:10955   */\n      dup2\n        /* \"#utility.yul\":10945:10955   */\n      swap1\n      pop\n        /* \"#utility.yul\":10690:10961   */\n      swap3\n      swap2\n      pop\n      pop\n      jump\t// out\n        /* \"#utility.yul\":10967:11136   */\n    tag_138:\n        /* \"#utility.yul\":11051:11062   */\n      0x00\n        /* \"#utility.yul\":11085:11091   */\n      dup3\n        /* \"#utility.yul\":11080:11083   */\n      dup3\n        /* \"#utility.yul\":11073:11092   */\n      mstore\n        /* \"#utility.yul\":11125:11129   */\n      0x20\n        /* \"#utility.yul\":11120:11123   */\n      dup3\n        /* \"#utility.yul\":11116:11130   */\n      add\n        /* \"#utility.yul\":11101:11130   */\n      swap1\n      pop\n        /* \"#utility.yul\":10967:11136   */\n      swap3\n      swap2\n      pop\n      pop\n      jump\t// out\n        /* \"#utility.yul\":11142:11298   */\n    tag_139:\n        /* \"#utility.yul\":11282:11290   */\n      0x4451353030340000000000000000000000000000000000000000000000000000\n        /* \"#utility.yul\":11278:11279   */\n      0x00\n        /* \"#utility.yul\":11270:11276   */\n      dup3\n        /* \"#utility.yul\":11266:11280   */\n      add\n        /* \"#utility.yul\":11259:11291   */\n      mstore\n        /* \"#utility.yul\":11142:11298   */\n      pop\n      jump\t// out\n        /* \"#utility.yul\":11304:11669   */\n    tag_140:\n        /* \"#utility.yul\":11446:11449   */\n      0x00\n        /* \"#utility.yul\":11467:11533   */\n      tag_280\n        /* \"#utility.yul\":11531:11532   */\n      0x06\n        /* \"#utility.yul\":11526:11529   */\n      dup4\n        /* \"#utility.yul\":11467:11533   */\n      tag_138\n      jump\t// in\n    tag_280:\n        /* \"#utility.yul\":11460:11533   */\n      swap2\n      pop\n        /* \"#utility.yul\":11542:11635   */\n      tag_281\n        /* \"#utility.yul\":11631:11634   */\n      dup3\n        /* \"#utility.yul\":11542:11635   */\n      tag_139\n      jump\t// in\n    tag_281:\n        /* \"#utility.yul\":11660:11662   */\n      0x20\n        /* \"#utility.yul\":11655:11658   */\n      dup3\n        /* \"#utility.yul\":11651:11663   */\n      add\n        /* \"#utility.yul\":11644:11663   */\n      swap1\n      pop\n        /* \"#utility.yul\":11304:11669   */\n      swap2\n      swap1\n      pop\n      jump\t// out\n        /* \"#utility.yul\":11675:12094   */\n    tag_75:\n        /* \"#utility.yul\":11841:11845   */\n      0x00\n        /* \"#utility.yul\":11879:11881   */\n      0x20\n        /* \"#utility.yul\":11868:11877   */\n      dup3\n        /* \"#utility.yul\":11864:11882   */\n      add\n        /* \"#utility.yul\":11856:11882   */\n      swap1\n      pop\n        /* \"#utility.yul\":11928:11937   */\n      dup2\n        /* \"#utility.yul\":11922:11926   */\n      dup2\n        /* \"#utility.yul\":11918:11938   */\n      sub\n        /* \"#utility.yul\":11914:11915   */\n      0x00\n        /* \"#utility.yul\":11903:11912   */\n      dup4\n        /* \"#utility.yul\":11899:11916   */\n      add\n        /* \"#utility.yul\":11892:11939   */\n      mstore\n        /* \"#utility.yul\":11956:12087   */\n      tag_283\n        /* \"#utility.yul\":12082:12086   */\n      dup2\n        /* \"#utility.yul\":11956:12087   */\n      tag_140\n      jump\t// in\n    tag_283:\n        /* \"#utility.yul\":11948:12087   */\n      swap1\n      pop\n        /* \"#utility.yul\":11675:12094   */\n      swap2\n      swap1\n      pop\n      jump\t// out\n        /* \"#utility.yul\":12100:12256   */\n    tag_141:\n        /* \"#utility.yul\":12240:12248   */\n      0x4451353030350000000000000000000000000000000000000000000000000000\n        /* \"#utility.yul\":12236:12237   */\n      0x00\n        /* \"#utility.yul\":12228:12234   */\n      dup3\n        /* \"#utility.yul\":12224:12238   */\n      add\n        /* \"#utility.yul\":12217:12249   */\n      mstore\n        /* \"#utility.yul\":12100:12256   */\n      pop\n      jump\t// out\n        /* \"#utility.yul\":12262:12627   */\n    tag_142:\n        /* \"#utility.yul\":12404:12407   */\n      0x00\n        /* \"#utility.yul\":12425:12491   */\n      tag_286\n        /* \"#utility.yul\":12489:12490   */\n      0x06\n        /* \"#utility.yul\":12484:12487   */\n      dup4\n        /* \"#utility.yul\":12425:12491   */\n      tag_138\n      jump\t// in\n    tag_286:\n        /* \"#utility.yul\":12418:12491   */\n      swap2\n      pop\n        /* \"#utility.yul\":12500:12593   */\n      tag_287\n        /* \"#utility.yul\":12589:12592   */\n      dup3\n        /* \"#utility.yul\":12500:12593   */\n      tag_141\n      jump\t// in\n    tag_287:\n        /* \"#utility.yul\":12618:12620   */\n      0x20\n        /* \"#utility.yul\":12613:12616   */\n      dup3\n        /* \"#utility.yul\":12609:12621   */\n      add\n        /* \"#utility.yul\":12602:12621   */\n      swap1\n      pop\n        /* \"#utility.yul\":12262:12627   */\n      swap2\n      swap1\n      pop\n      jump\t// out\n        /* \"#utility.yul\":12633:13052   */\n    tag_83:\n        /* \"#utility.yul\":12799:12803   */\n      0x00\n        /* \"#utility.yul\":12837:12839   */\n      0x20\n        /* \"#utility.yul\":12826:12835   */\n      dup3\n        /* \"#utility.yul\":12822:12840   */\n      add\n        /* \"#utility.yul\":12814:12840   */\n      swap1\n      pop\n        /* \"#utility.yul\":12886:12895   */\n      dup2\n        /* \"#utility.yul\":12880:12884   */\n      dup2\n        /* \"#utility.yul\":12876:12896   */\n      sub\n        /* \"#utility.yul\":12872:12873   */\n      0x00\n        /* \"#utility.yul\":12861:12870   */\n      dup4\n        /* \"#utility.yul\":12857:12874   */\n      add\n        /* \"#utility.yul\":12850:12897   */\n      mstore\n        /* \"#utility.yul\":12914:13045   */\n      tag_289\n        /* \"#utility.yul\":13040:13044   */\n      dup2\n        /* \"#utility.yul\":12914:13045   */\n      tag_142\n      jump\t// in\n    tag_289:\n        /* \"#utility.yul\":12906:13045   */\n      swap1\n      pop\n        /* \"#utility.yul\":12633:13052   */\n      swap2\n      swap1\n      pop\n      jump\t// out\n        /* \"#utility.yul\":13058:13468   */\n    tag_85:\n        /* \"#utility.yul\":13098:13105   */\n      0x00\n        /* \"#utility.yul\":13121:13141   */\n      tag_291\n        /* \"#utility.yul\":13139:13140   */\n      dup3\n        /* \"#utility.yul\":13121:13141   */\n      tag_108\n      jump\t// in\n    tag_291:\n        /* \"#utility.yul\":13116:13141   */\n      swap2\n      pop\n        /* \"#utility.yul\":13155:13175   */\n      tag_292\n        /* \"#utility.yul\":13173:13174   */\n      dup4\n        /* \"#utility.yul\":13155:13175   */\n      tag_108\n      jump\t// in\n    tag_292:\n        /* \"#utility.yul\":13150:13175   */\n      swap3\n      pop\n        /* \"#utility.yul\":13210:13211   */\n      dup3\n        /* \"#utility.yul\":13207:13208   */\n      dup3\n        /* \"#utility.yul\":13203:13212   */\n      mul\n        /* \"#utility.yul\":13232:13262   */\n      tag_293\n        /* \"#utility.yul\":13250:13261   */\n      dup2\n        /* \"#utility.yul\":13232:13262   */\n      tag_108\n      jump\t// in\n    tag_293:\n        /* \"#utility.yul\":13221:13262   */\n      swap2\n      pop\n        /* \"#utility.yul\":13411:13412   */\n      dup3\n        /* \"#utility.yul\":13402:13409   */\n      dup3\n        /* \"#utility.yul\":13398:13413   */\n      div\n        /* \"#utility.yul\":13395:13396   */\n      dup5\n        /* \"#utility.yul\":13392:13414   */\n      eq\n        /* \"#utility.yul\":13372:13373   */\n      dup4\n        /* \"#utility.yul\":13365:13374   */\n      iszero\n        /* \"#utility.yul\":13345:13428   */\n      or\n        /* \"#utility.yul\":13322:13461   */\n      tag_294\n      jumpi\n        /* \"#utility.yul\":13441:13459   */\n      tag_295\n      tag_133\n      jump\t// in\n    tag_295:\n        /* \"#utility.yul\":13322:13461   */\n    tag_294:\n        /* \"#utility.yul\":13106:13468   */\n      pop\n        /* \"#utility.yul\":13058:13468   */\n      swap3\n      swap2\n      pop\n      pop\n      jump\t// out\n        /* \"#utility.yul\":13474:13630   */\n    tag_143:\n        /* \"#utility.yul\":13614:13622   */\n      0x4451353030360000000000000000000000000000000000000000000000000000\n        /* \"#utility.yul\":13610:13611   */\n      0x00\n        /* \"#utility.yul\":13602:13608   */\n      dup3\n        /* \"#utility.yul\":13598:13612   */\n      add\n        /* \"#utility.yul\":13591:13623   */\n      mstore\n        /* \"#utility.yul\":13474:13630   */\n      pop\n      jump\t// out\n        /* \"#utility.yul\":13636:14001   */\n    tag_144:\n        /* \"#utility.yul\":13778:13781   */\n      0x00\n        /* \"#utility.yul\":13799:13865   */\n      tag_298\n        /* \"#utility.yul\":13863:13864   */\n      0x06\n        /* \"#utility.yul\":13858:13861   */\n      dup4\n        /* \"#utility.yul\":13799:13865   */\n      tag_138\n      jump\t// in\n    tag_298:\n        /* \"#utility.yul\":13792:13865   */\n      swap2\n      pop\n        /* \"#utility.yul\":13874:13967   */\n      tag_299\n        /* \"#utility.yul\":13963:13966   */\n      dup3\n        /* \"#utility.yul\":13874:13967   */\n      tag_143\n      jump\t// in\n    tag_299:\n        /* \"#utility.yul\":13992:13994   */\n      0x20\n        /* \"#utility.yul\":13987:13990   */\n      dup3\n        /* \"#utility.yul\":13983:13995   */\n      add\n        /* \"#utility.yul\":13976:13995   */\n      swap1\n      pop\n        /* \"#utility.yul\":13636:14001   */\n      swap2\n      swap1\n      pop\n      jump\t// out\n        /* \"#utility.yul\":14007:14426   */\n    tag_88:\n        /* \"#utility.yul\":14173:14177   */\n      0x00\n        /* \"#utility.yul\":14211:14213   */\n      0x20\n        /* \"#utility.yul\":14200:14209   */\n      dup3\n        /* \"#utility.yul\":14196:14214   */\n      add\n        /* \"#utility.yul\":14188:14214   */\n      swap1\n      pop\n        /* \"#utility.yul\":14260:14269   */\n      dup2\n        /* \"#utility.yul\":14254:14258   */\n      dup2\n        /* \"#utility.yul\":14250:14270   */\n      sub\n        /* \"#utility.yul\":14246:14247   */\n      0x00\n        /* \"#utility.yul\":14235:14244   */\n      dup4\n        /* \"#utility.yul\":14231:14248   */\n      add\n        /* \"#utility.yul\":14224:14271   */\n      mstore\n        /* \"#utility.yul\":14288:14419   */\n      tag_301\n        /* \"#utility.yul\":14414:14418   */\n      dup2\n        /* \"#utility.yul\":14288:14419   */\n      tag_144\n      jump\t// in\n    tag_301:\n        /* \"#utility.yul\":14280:14419   */\n      swap1\n      pop\n        /* \"#utility.yul\":14007:14426   */\n      swap2\n      swap1\n      pop\n      jump\t// out\n        /* \"#utility.yul\":14432:14580   */\n    tag_145:\n        /* \"#utility.yul\":14534:14545   */\n      0x00\n        /* \"#utility.yul\":14571:14574   */\n      dup2\n        /* \"#utility.yul\":14556:14574   */\n      swap1\n      pop\n        /* \"#utility.yul\":14432:14580   */\n      swap3\n      swap2\n      pop\n      pop\n      jump\t// out\n        /* \"#utility.yul\":14586:14800   */\n    tag_146:\n        /* \"#utility.yul\":14726:14792   */\n      0x19457468657265756d205369676e6564204d6573736167653a0a333200000000\n        /* \"#utility.yul\":14722:14723   */\n      0x00\n        /* \"#utility.yul\":14714:14720   */\n      dup3\n        /* \"#utility.yul\":14710:14724   */\n      add\n        /* \"#utility.yul\":14703:14793   */\n      mstore\n        /* \"#utility.yul\":14586:14800   */\n      pop\n      jump\t// out\n        /* \"#utility.yul\":14806:15208   */\n    tag_147:\n        /* \"#utility.yul\":14966:14969   */\n      0x00\n        /* \"#utility.yul\":14987:15072   */\n      tag_305\n        /* \"#utility.yul\":15069:15071   */\n      0x1c\n        /* \"#utility.yul\":15064:15067   */\n      dup4\n        /* \"#utility.yul\":14987:15072   */\n      tag_145\n      jump\t// in\n    tag_305:\n        /* \"#utility.yul\":14980:15072   */\n      swap2\n      pop\n        /* \"#utility.yul\":15081:15174   */\n      tag_306\n        /* \"#utility.yul\":15170:15173   */\n      dup3\n        /* \"#utility.yul\":15081:15174   */\n      tag_146\n      jump\t// in\n    tag_306:\n        /* \"#utility.yul\":15199:15201   */\n      0x1c\n        /* \"#utility.yul\":15194:15197   */\n      dup3\n        /* \"#utility.yul\":15190:15202   */\n      add\n        /* \"#utility.yul\":15183:15202   */\n      swap1\n      pop\n        /* \"#utility.yul\":14806:15208   */\n      swap2\n      swap1\n      pop\n      jump\t// out\n        /* \"#utility.yul\":15214:15293   */\n    tag_148:\n        /* \"#utility.yul\":15253:15260   */\n      0x00\n        /* \"#utility.yul\":15282:15287   */\n      dup2\n        /* \"#utility.yul\":15271:15287   */\n      swap1\n      pop\n        /* \"#utility.yul\":15214:15293   */\n      swap2\n      swap1\n      pop\n      jump\t// out\n        /* \"#utility.yul\":15299:15456   */\n    tag_149:\n        /* \"#utility.yul\":15404:15449   */\n      tag_309\n        /* \"#utility.yul\":15424:15448   */\n      tag_310\n        /* \"#utility.yul\":15442:15447   */\n      dup3\n        /* \"#utility.yul\":15424:15448   */\n      tag_129\n      jump\t// in\n    tag_310:\n        /* \"#utility.yul\":15404:15449   */\n      tag_148\n      jump\t// in\n    tag_309:\n        /* \"#utility.yul\":15399:15402   */\n      dup3\n        /* \"#utility.yul\":15392:15450   */\n      mstore\n        /* \"#utility.yul\":15299:15456   */\n      pop\n      pop\n      jump\t// out\n        /* \"#utility.yul\":15462:15984   */\n    tag_95:\n        /* \"#utility.yul\":15675:15678   */\n      0x00\n        /* \"#utility.yul\":15697:15845   */\n      tag_312\n        /* \"#utility.yul\":15841:15844   */\n      dup3\n        /* \"#utility.yul\":15697:15845   */\n      tag_147\n      jump\t// in\n    tag_312:\n        /* \"#utility.yul\":15690:15845   */\n      swap2\n      pop\n        /* \"#utility.yul\":15855:15930   */\n      tag_313\n        /* \"#utility.yul\":15926:15929   */\n      dup3\n        /* \"#utility.yul\":15917:15923   */\n      dup5\n        /* \"#utility.yul\":15855:15930   */\n      tag_149\n      jump\t// in\n    tag_313:\n        /* \"#utility.yul\":15955:15957   */\n      0x20\n        /* \"#utility.yul\":15950:15953   */\n      dup3\n        /* \"#utility.yul\":15946:15958   */\n      add\n        /* \"#utility.yul\":15939:15958   */\n      swap2\n      pop\n        /* \"#utility.yul\":15975:15978   */\n      dup2\n        /* \"#utility.yul\":15968:15978   */\n      swap1\n      pop\n        /* \"#utility.yul\":15462:15984   */\n      swap3\n      swap2\n      pop\n      pop\n      jump\t// out\n        /* \"#utility.yul\":15990:16076   */\n    tag_150:\n        /* \"#utility.yul\":16025:16032   */\n      0x00\n        /* \"#utility.yul\":16065:16069   */\n      0xff\n        /* \"#utility.yul\":16058:16063   */\n      dup3\n        /* \"#utility.yul\":16054:16070   */\n      and\n        /* \"#utility.yul\":16043:16070   */\n      swap1\n      pop\n        /* \"#utility.yul\":15990:16076   */\n      swap2\n      swap1\n      pop\n      jump\t// out\n        /* \"#utility.yul\":16082:16194   */\n    tag_151:\n        /* \"#utility.yul\":16165:16187   */\n      tag_316\n        /* \"#utility.yul\":16181:16186   */\n      dup2\n        /* \"#utility.yul\":16165:16187   */\n      tag_150\n      jump\t// in\n    tag_316:\n        /* \"#utility.yul\":16160:16163   */\n      dup3\n        /* \"#utility.yul\":16153:16188   */\n      mstore\n        /* \"#utility.yul\":16082:16194   */\n      pop\n      pop\n      jump\t// out\n        /* \"#utility.yul\":16200:16745   */\n    tag_97:\n        /* \"#utility.yul\":16373:16377   */\n      0x00\n        /* \"#utility.yul\":16411:16414   */\n      0x80\n        /* \"#utility.yul\":16400:16409   */\n      dup3\n        /* \"#utility.yul\":16396:16415   */\n      add\n        /* \"#utility.yul\":16388:16415   */\n      swap1\n      pop\n        /* \"#utility.yul\":16425:16496   */\n      tag_318\n        /* \"#utility.yul\":16493:16494   */\n      0x00\n        /* \"#utility.yul\":16482:16491   */\n      dup4\n        /* \"#utility.yul\":16478:16495   */\n      add\n        /* \"#utility.yul\":16469:16475   */\n      dup8\n        /* \"#utility.yul\":16425:16496   */\n      tag_130\n      jump\t// in\n    tag_318:\n        /* \"#utility.yul\":16506:16574   */\n      tag_319\n        /* \"#utility.yul\":16570:16572   */\n      0x20\n        /* \"#utility.yul\":16559:16568   */\n      dup4\n        /* \"#utility.yul\":16555:16573   */\n      add\n        /* \"#utility.yul\":16546:16552   */\n      dup7\n        /* \"#utility.yul\":16506:16574   */\n      tag_151\n      jump\t// in\n    tag_319:\n        /* \"#utility.yul\":16584:16656   */\n      tag_320\n        /* \"#utility.yul\":16652:16654   */\n      0x40\n        /* \"#utility.yul\":16641:16650   */\n      dup4\n        /* \"#utility.yul\":16637:16655   */\n      add\n        /* \"#utility.yul\":16628:16634   */\n      dup6\n        /* \"#utility.yul\":16584:16656   */\n      tag_130\n      jump\t// in\n    tag_320:\n        /* \"#utility.yul\":16666:16738   */\n      tag_321\n        /* \"#utility.yul\":16734:16736   */\n      0x60\n        /* \"#utility.yul\":16723:16732   */\n      dup4\n        /* \"#utility.yul\":16719:16737   */\n      add\n        /* \"#utility.yul\":16710:16716   */\n      dup5\n        /* \"#utility.yul\":16666:16738   */\n      tag_130\n      jump\t// in\n    tag_321:\n        /* \"#utility.yul\":16200:16745   */\n      swap6\n      swap5\n      pop\n      pop\n      pop\n      pop\n      pop\n      jump\t// out\n        /* \"#utility.yul\":16751:16907   */\n    tag_152:\n        /* \"#utility.yul\":16891:16899   */\n      0x4451353030370000000000000000000000000000000000000000000000000000\n        /* \"#utility.yul\":16887:16888   */\n      0x00\n        /* \"#utility.yul\":16879:16885   */\n      dup3\n        /* \"#utility.yul\":16875:16889   */\n      add\n        /* \"#utility.yul\":16868:16900   */\n      mstore\n        /* \"#utility.yul\":16751:16907   */\n      pop\n      jump\t// out\n        /* \"#utility.yul\":16913:17278   */\n    tag_153:\n        /* \"#utility.yul\":17055:17058   */\n      0x00\n        /* \"#utility.yul\":17076:17142   */\n      tag_324\n        /* \"#utility.yul\":17140:17141   */\n      0x06\n        /* \"#utility.yul\":17135:17138   */\n      dup4\n        /* \"#utility.yul\":17076:17142   */\n      tag_138\n      jump\t// in\n    tag_324:\n        /* \"#utility.yul\":17069:17142   */\n      swap2\n      pop\n        /* \"#utility.yul\":17151:17244   */\n      tag_325\n        /* \"#utility.yul\":17240:17243   */\n      dup3\n        /* \"#utility.yul\":17151:17244   */\n      tag_152\n      jump\t// in\n    tag_325:\n        /* \"#utility.yul\":17269:17271   */\n      0x20\n        /* \"#utility.yul\":17264:17267   */\n      dup3\n        /* \"#utility.yul\":17260:17272   */\n      add\n        /* \"#utility.yul\":17253:17272   */\n      swap1\n      pop\n        /* \"#utility.yul\":16913:17278   */\n      swap2\n      swap1\n      pop\n      jump\t// out\n        /* \"#utility.yul\":17284:17703   */\n    tag_103:\n        /* \"#utility.yul\":17450:17454   */\n      0x00\n        /* \"#utility.yul\":17488:17490   */\n      0x20\n        /* \"#utility.yul\":17477:17486   */\n      dup3\n        /* \"#utility.yul\":17473:17491   */\n      add\n        /* \"#utility.yul\":17465:17491   */\n      swap1\n      pop\n        /* \"#utility.yul\":17537:17546   */\n      dup2\n        /* \"#utility.yul\":17531:17535   */\n      dup2\n        /* \"#utility.yul\":17527:17547   */\n      sub\n        /* \"#utility.yul\":17523:17524   */\n      0x00\n        /* \"#utility.yul\":17512:17521   */\n      dup4\n        /* \"#utility.yul\":17508:17525   */\n      add\n        /* \"#utility.yul\":17501:17548   */\n      mstore\n        /* \"#utility.yul\":17565:17696   */\n      tag_327\n        /* \"#utility.yul\":17691:17695   */\n      dup2\n        /* \"#utility.yul\":17565:17696   */\n      tag_153\n      jump\t// in\n    tag_327:\n        /* \"#utility.yul\":17557:17696   */\n      swap1\n      pop\n        /* \"#utility.yul\":17284:17703   */\n      swap2\n      swap1\n      pop\n      jump\t// out\n\n    auxdata: 0xa2646970667358221220e7ccd231e2ff490368041fccc25a49370cf34a7555106384aba24b270fa3ff7b64736f6c634300081a0033\n}\n",
				"bytecode": {
					"linkReferences": {},
					"object": "608060405234801561000f575f80fd5b5060405161167e38038061167e833981810160405281019061003191906104fa565b610041828261004860201b60201c565b5050610731565b5f6003541461008c576040517f08c379a0000000000000000000000000000000000000000000000000000000008152600401610083906105ae565b60405180910390fd5b81518111156100d0576040517f08c379a00000000000000000000000000000000000000000000000000000000081526004016100c790610616565b60405180910390fd5b6001811015610114576040517f08c379a000000000000000000000000000000000000000000000000000000000815260040161010b9061067e565b60405180910390fd5b5f5b82518110156102f8575f8382815181106101335761013261069c565b5b602002602001015190505f73ffffffffffffffffffffffffffffffffffffffff168173ffffffffffffffffffffffffffffffffffffffff16141580156101a557503073ffffffffffffffffffffffffffffffffffffffff168173ffffffffffffffffffffffffffffffffffffffff1614155b80156101f8575060015f8273ffffffffffffffffffffffffffffffffffffffff1673ffffffffffffffffffffffffffffffffffffffff1681526020019081526020015f205f9054906101000a900460ff16155b610237576040517f08c379a000000000000000000000000000000000000000000000000000000000815260040161022e90610713565b60405180910390fd5b5f81908060018154018082558091505060019003905f5260205f20015f9091909190916101000a81548173ffffffffffffffffffffffffffffffffffffffff021916908373ffffffffffffffffffffffffffffffffffffffff1602179055506001805f8373ffffffffffffffffffffffffffffffffffffffff1673ffffffffffffffffffffffffffffffffffffffff1681526020019081526020015f205f6101000a81548160ff021916908315150217905550508080600101915050610116565b508151600281905550806003819055505050565b5f604051905090565b5f80fd5b5f80fd5b5f80fd5b5f601f19601f8301169050919050565b7f4e487b71000000000000000000000000000000000000000000000000000000005f52604160045260245ffd5b61036782610321565b810181811067ffffffffffffffff8211171561038657610385610331565b5b80604052505050565b5f61039861030c565b90506103a4828261035e565b919050565b5f67ffffffffffffffff8211156103c3576103c2610331565b5b602082029050602081019050919050565b5f80fd5b5f73ffffffffffffffffffffffffffffffffffffffff82169050919050565b5f610401826103d8565b9050919050565b610411816103f7565b811461041b575f80fd5b50565b5f8151905061042c81610408565b92915050565b5f61044461043f846103a9565b61038f565b90508083825260208201905060208402830185811115610467576104666103d4565b5b835b81811015610490578061047c888261041e565b845260208401935050602081019050610469565b5050509392505050565b5f82601f8301126104ae576104ad61031d565b5b81516104be848260208601610432565b91505092915050565b5f819050919050565b6104d9816104c7565b81146104e3575f80fd5b50565b5f815190506104f4816104d0565b92915050565b5f80604083850312156105105761050f610315565b5b5f83015167ffffffffffffffff81111561052d5761052c610319565b5b6105398582860161049a565b925050602061054a858286016104e6565b9150509250929050565b5f82825260208201905092915050565b7f44513530300000000000000000000000000000000000000000000000000000005f82015250565b5f610598600583610554565b91506105a382610564565b602082019050919050565b5f6020820190508181035f8301526105c58161058c565b9050919050565b7f44513530310000000000000000000000000000000000000000000000000000005f82015250565b5f610600600583610554565b915061060b826105cc565b602082019050919050565b5f6020820190508181035f83015261062d816105f4565b9050919050565b7f44513530320000000000000000000000000000000000000000000000000000005f82015250565b5f610668600583610554565b915061067382610634565b602082019050919050565b5f6020820190508181035f8301526106958161065c565b9050919050565b7f4e487b71000000000000000000000000000000000000000000000000000000005f52603260045260245ffd5b7f44513530330000000000000000000000000000000000000000000000000000005f82015250565b5f6106fd600583610554565b9150610708826106c9565b602082019050919050565b5f6020820190508181035f83015261072a816106f1565b9050919050565b610f408061073e5f395ff3fe60806040526004361061007e575f3560e01c8063a67dd5091161004d578063a67dd50914610155578063affed0e014610191578063c779906b146101bb578063ed516d51146101eb57610085565b8063025e7c27146100895780630db02622146100c55780632f54bf6e146100ef57806342cde4e81461012b57610085565b3661008557005b5f80fd5b348015610094575f80fd5b506100af60048036038101906100aa91906106a2565b610213565b6040516100bc919061070c565b60405180910390f35b3480156100d0575f80fd5b506100d961024d565b6040516100e69190610734565b60405180910390f35b3480156100fa575f80fd5b5061011560048036038101906101109190610777565b610253565b60405161012291906107bc565b60405180910390f35b348015610136575f80fd5b5061013f610270565b60405161014c9190610734565b60405180910390f35b348015610160575f80fd5b5061017b60048036038101906101769190610911565b610276565b60405161018891906109bc565b60405180910390f35b34801561019c575f80fd5b506101a56102bd565b6040516101b29190610734565b60405180910390f35b6101d560048036038101906101d091906109d5565b6102c3565b6040516101e291906107bc565b60405180910390f35b3480156101f6575f80fd5b50610211600480360381019061020c9190610a9b565b610425565b005b5f8181548110610221575f80fd5b905f5260205f20015f915054906101000a900473ffffffffffffffffffffffffffffffffffffffff1681565b60025481565b6001602052805f5260405f205f915054906101000a900460ff1681565b60035481565b5f80868686805190602001208686604051602001610298959493929190610af5565b6040516020818303038152906040528051906020012090508091505095945050505050565b60045481565b5f806102d486868660045446610276565b905060045f8154809291906102e890610b73565b91905055506102f78184610425565b8573ffffffffffffffffffffffffffffffffffffffff16858560405161031d9190610c0c565b5f6040518083038185875af1925050503d805f8114610357576040519150601f19603f3d011682016040523d82523d5f602084013e61035c565b606091505b505080925050816103a2576040517f08c379a000000000000000000000000000000000000000000000000000000000815260040161039990610c7c565b60405180910390fd5b81156103e4577fdc29884a71d2bb98d3c53dc09718be05c7bfd142b7773a5c5cf2517629290ac0816040516103d791906109bc565b60405180910390a161041c565b7fdbe42d02a4e07d7eeff2874efe172540c93b297d206f6d691c9782a257323e328160405161041391906109bc565b60405180910390a15b50949350505050565b5f60035490505f811161046d576040517f08c379a000000000000000000000000000000000000000000000000000000000815260040161046490610ce4565b60405180910390fd5b60418161047a9190610d02565b825110156104bd576040517f08c379a00000000000000000000000000000000000000000000000000000000081526004016104b490610d8d565b60405180910390fd5b5f80805f805f5b86811015610626576104d68882610631565b8094508195508296505050506001896040516020016104f59190610e1f565b604051602081830303815290604052805190602001208585856040515f815260200160405260405161052a9493929190610e5f565b6020604051602081039080840390855afa15801561054a573d5f803e3d5ffd5b5050506020604051035194508573ffffffffffffffffffffffffffffffffffffffff168573ffffffffffffffffffffffffffffffffffffffff161180156105d7575060015f8673ffffffffffffffffffffffffffffffffffffffff1673ffffffffffffffffffffffffffffffffffffffff1681526020019081526020015f205f9054906101000a900460ff165b610616576040517f08c379a000000000000000000000000000000000000000000000000000000000815260040161060d90610eec565b60405180910390fd5b84955080806001019150506104c4565b505050505050505050565b5f805f8360410260208101860151925060408101860151915060ff60418201870151169350509250925092565b5f604051905090565b5f80fd5b5f80fd5b5f819050919050565b6106818161066f565b811461068b575f80fd5b50565b5f8135905061069c81610678565b92915050565b5f602082840312156106b7576106b6610667565b5b5f6106c48482850161068e565b91505092915050565b5f73ffffffffffffffffffffffffffffffffffffffff82169050919050565b5f6106f6826106cd565b9050919050565b610706816106ec565b82525050565b5f60208201905061071f5f8301846106fd565b92915050565b61072e8161066f565b82525050565b5f6020820190506107475f830184610725565b92915050565b610756816106ec565b8114610760575f80fd5b50565b5f813590506107718161074d565b92915050565b5f6020828403121561078c5761078b610667565b5b5f61079984828501610763565b91505092915050565b5f8115159050919050565b6107b6816107a2565b82525050565b5f6020820190506107cf5f8301846107ad565b92915050565b5f80fd5b5f80fd5b5f601f19601f8301169050919050565b7f4e487b71000000000000000000000000000000000000000000000000000000005f52604160045260245ffd5b610823826107dd565b810181811067ffffffffffffffff82111715610842576108416107ed565b5b80604052505050565b5f61085461065e565b9050610860828261081a565b919050565b5f67ffffffffffffffff82111561087f5761087e6107ed565b5b610888826107dd565b9050602081019050919050565b828183375f83830152505050565b5f6108b56108b084610865565b61084b565b9050828152602081018484840111156108d1576108d06107d9565b5b6108dc848285610895565b509392505050565b5f82601f8301126108f8576108f76107d5565b5b81356109088482602086016108a3565b91505092915050565b5f805f805f60a0868803121561092a57610929610667565b5b5f61093788828901610763565b95505060206109488882890161068e565b945050604086013567ffffffffffffffff8111156109695761096861066b565b5b610975888289016108e4565b93505060606109868882890161068e565b92505060806109978882890161068e565b9150509295509295909350565b5f819050919050565b6109b6816109a4565b82525050565b5f6020820190506109cf5f8301846109ad565b92915050565b5f805f80608085870312156109ed576109ec610667565b5b5f6109fa87828801610763565b9450506020610a0b8782880161068e565b935050604085013567ffffffffffffffff811115610a2c57610a2b61066b565b5b610a38878288016108e4565b925050606085013567ffffffffffffffff811115610a5957610a5861066b565b5b610a65878288016108e4565b91505092959194509250565b610a7a816109a4565b8114610a84575f80fd5b50565b5f81359050610a9581610a71565b92915050565b5f8060408385031215610ab157610ab0610667565b5b5f610abe85828601610a87565b925050602083013567ffffffffffffffff811115610adf57610ade61066b565b5b610aeb858286016108e4565b9150509250929050565b5f60a082019050610b085f8301886106fd565b610b156020830187610725565b610b2260408301866109ad565b610b2f6060830185610725565b610b3c6080830184610725565b9695505050505050565b7f4e487b71000000000000000000000000000000000000000000000000000000005f52601160045260245ffd5b5f610b7d8261066f565b91507fffffffffffffffffffffffffffffffffffffffffffffffffffffffffffffffff8203610baf57610bae610b46565b5b600182019050919050565b5f81519050919050565b5f81905092915050565b8281835e5f83830152505050565b5f610be682610bba565b610bf08185610bc4565b9350610c00818560208601610bce565b80840191505092915050565b5f610c178284610bdc565b915081905092915050565b5f82825260208201905092915050565b7f44513530303400000000000000000000000000000000000000000000000000005f82015250565b5f610c66600683610c22565b9150610c7182610c32565b602082019050919050565b5f6020820190508181035f830152610c9381610c5a565b9050919050565b7f44513530303500000000000000000000000000000000000000000000000000005f82015250565b5f610cce600683610c22565b9150610cd982610c9a565b602082019050919050565b5f6020820190508181035f830152610cfb81610cc2565b9050919050565b5f610d0c8261066f565b9150610d178361066f565b9250828202610d258161066f565b91508282048414831517610d3c57610d3b610b46565b5b5092915050565b7f44513530303600000000000000000000000000000000000000000000000000005f82015250565b5f610d77600683610c22565b9150610d8282610d43565b602082019050919050565b5f6020820190508181035f830152610da481610d6b565b9050919050565b5f81905092915050565b7f19457468657265756d205369676e6564204d6573736167653a0a3332000000005f82015250565b5f610de9601c83610dab565b9150610df482610db5565b601c82019050919050565b5f819050919050565b610e19610e14826109a4565b610dff565b82525050565b5f610e2982610ddd565b9150610e358284610e08565b60208201915081905092915050565b5f60ff82169050919050565b610e5981610e44565b82525050565b5f608082019050610e725f8301876109ad565b610e7f6020830186610e50565b610e8c60408301856109ad565b610e9960608301846109ad565b95945050505050565b7f44513530303700000000000000000000000000000000000000000000000000005f82015250565b5f610ed6600683610c22565b9150610ee182610ea2565b602082019050919050565b5f6020820190508181035f830152610f0381610eca565b905091905056fea2646970667358221220e7ccd231e2ff490368041fccc25a49370cf34a7555106384aba24b270fa3ff7b64736f6c634300081a0033",
					"opcodes": "PUSH1 0x80 PUSH1 0x40 MSTORE CALLVALUE DUP1 ISZERO PUSH2 0xF JUMPI PUSH0 DUP1 REVERT JUMPDEST POP PUSH1 0x40 MLOAD PUSH2 0x167E CODESIZE SUB DUP1 PUSH2 0x167E DUP4 CODECOPY DUP2 DUP2 ADD PUSH1 0x40 MSTORE DUP2 ADD SWAP1 PUSH2 0x31 SWAP2 SWAP1 PUSH2 0x4FA JUMP JUMPDEST PUSH2 0x41 DUP3 DUP3 PUSH2 0x48 PUSH1 0x20 SHL PUSH1 0x20 SHR JUMP JUMPDEST POP POP PUSH2 0x731 JUMP JUMPDEST PUSH0 PUSH1 0x3 SLOAD EQ PUSH2 0x8C JUMPI PUSH1 0x40 MLOAD PUSH32 0x8C379A000000000000000000000000000000000000000000000000000000000 DUP2 MSTORE PUSH1 0x4 ADD PUSH2 0x83 SWAP1 PUSH2 0x5AE JUMP JUMPDEST PUSH1 0x40 MLOAD DUP1 SWAP2 SUB SWAP1 REVERT JUMPDEST DUP2 MLOAD DUP2 GT ISZERO PUSH2 0xD0 JUMPI PUSH1 0x40 MLOAD PUSH32 0x8C379A000000000000000000000000000000000000000000000000000000000 DUP2 MSTORE PUSH1 0x4 ADD PUSH2 0xC7 SWAP1 PUSH2 0x616 JUMP JUMPDEST PUSH1 0x40 MLOAD DUP1 SWAP2 SUB SWAP1 REVERT JUMPDEST PUSH1 0x1 DUP2 LT ISZERO PUSH2 0x114 JUMPI PUSH1 0x40 MLOAD PUSH32 0x8C379A000000000000000000000000000000000000000000000000000000000 DUP2 MSTORE PUSH1 0x4 ADD PUSH2 0x10B SWAP1 PUSH2 0x67E JUMP JUMPDEST PUSH1 0x40 MLOAD DUP1 SWAP2 SUB SWAP1 REVERT JUMPDEST PUSH0 JUMPDEST DUP3 MLOAD DUP2 LT ISZERO PUSH2 0x2F8 JUMPI PUSH0 DUP4 DUP3 DUP2 MLOAD DUP2 LT PUSH2 0x133 JUMPI PUSH2 0x132 PUSH2 0x69C JUMP JUMPDEST JUMPDEST PUSH1 0x20 MUL PUSH1 0x20 ADD ADD MLOAD SWAP1 POP PUSH0 PUSH20 0xFFFFFFFFFFFFFFFFFFFFFFFFFFFFFFFFFFFFFFFF AND DUP2 PUSH20 0xFFFFFFFFFFFFFFFFFFFFFFFFFFFFFFFFFFFFFFFF AND EQ ISZERO DUP1 ISZERO PUSH2 0x1A5 JUMPI POP ADDRESS PUSH20 0xFFFFFFFFFFFFFFFFFFFFFFFFFFFFFFFFFFFFFFFF AND DUP2 PUSH20 0xFFFFFFFFFFFFFFFFFFFFFFFFFFFFFFFFFFFFFFFF AND EQ ISZERO JUMPDEST DUP1 ISZERO PUSH2 0x1F8 JUMPI POP PUSH1 0x1 PUSH0 DUP3 PUSH20 0xFFFFFFFFFFFFFFFFFFFFFFFFFFFFFFFFFFFFFFFF AND PUSH20 0xFFFFFFFFFFFFFFFFFFFFFFFFFFFFFFFFFFFFFFFF AND DUP2 MSTORE PUSH1 0x20 ADD SWAP1 DUP2 MSTORE PUSH1 0x20 ADD PUSH0 KECCAK256 PUSH0 SWAP1 SLOAD SWAP1 PUSH2 0x100 EXP SWAP1 DIV PUSH1 0xFF AND ISZERO JUMPDEST PUSH2 0x237 JUMPI PUSH1 0x40 MLOAD PUSH32 0x8C379A000000000000000000000000000000000000000000000000000000000 DUP2 MSTORE PUSH1 0x4 ADD PUSH2 0x22E SWAP1 PUSH2 0x713 JUMP JUMPDEST PUSH1 0x40 MLOAD DUP1 SWAP2 SUB SWAP1 REVERT JUMPDEST PUSH0 DUP2 SWAP1 DUP1 PUSH1 0x1 DUP2 SLOAD ADD DUP1 DUP3 SSTORE DUP1 SWAP2 POP POP PUSH1 0x1 SWAP1 SUB SWAP1 PUSH0 MSTORE PUSH1 0x20 PUSH0 KECCAK256 ADD PUSH0 SWAP1 SWAP2 SWAP1 SWAP2 SWAP1 SWAP2 PUSH2 0x100 EXP DUP2 SLOAD DUP2 PUSH20 0xFFFFFFFFFFFFFFFFFFFFFFFFFFFFFFFFFFFFFFFF MUL NOT AND SWAP1 DUP4 PUSH20 0xFFFFFFFFFFFFFFFFFFFFFFFFFFFFFFFFFFFFFFFF AND MUL OR SWAP1 SSTORE POP PUSH1 0x1 DUP1 PUSH0 DUP4 PUSH20 0xFFFFFFFFFFFFFFFFFFFFFFFFFFFFFFFFFFFFFFFF AND PUSH20 0xFFFFFFFFFFFFFFFFFFFFFFFFFFFFFFFFFFFFFFFF AND DUP2 MSTORE PUSH1 0x20 ADD SWAP1 DUP2 MSTORE PUSH1 0x20 ADD PUSH0 KECCAK256 PUSH0 PUSH2 0x100 EXP DUP2 SLOAD DUP2 PUSH1 0xFF MUL NOT AND SWAP1 DUP4 ISZERO ISZERO MUL OR SWAP1 SSTORE POP POP DUP1 DUP1 PUSH1 0x1 ADD SWAP2 POP POP PUSH2 0x116 JUMP JUMPDEST POP DUP2 MLOAD PUSH1 0x2 DUP2 SWAP1 SSTORE POP DUP1 PUSH1 0x3 DUP2 SWAP1 SSTORE POP POP POP JUMP JUMPDEST PUSH0 PUSH1 0x40 MLOAD SWAP1 POP SWAP1 JUMP JUMPDEST PUSH0 DUP1 REVERT JUMPDEST PUSH0 DUP1 REVERT JUMPDEST PUSH0 DUP1 REVERT JUMPDEST PUSH0 PUSH1 0x1F NOT PUSH1 0x1F DUP4 ADD AND SWAP1 POP SWAP2 SWAP1 POP JUMP JUMPDEST PUSH32 0x4E487B7100000000000000000000000000000000000000000000000000000000 PUSH0 MSTORE PUSH1 0x41 PUSH1 0x4 MSTORE PUSH1 0x24 PUSH0 REVERT JUMPDEST PUSH2 0x367 DUP3 PUSH2 0x321 JUMP JUMPDEST DUP2 ADD DUP2 DUP2 LT PUSH8 0xFFFFFFFFFFFFFFFF DUP3 GT OR ISZERO PUSH2 0x386 JUMPI PUSH2 0x385 PUSH2 0x331 JUMP JUMPDEST JUMPDEST DUP1 PUSH1 0x40 MSTORE POP POP POP JUMP JUMPDEST PUSH0 PUSH2 0x398 PUSH2 0x30C JUMP JUMPDEST SWAP1 POP PUSH2 0x3A4 DUP3 DUP3 PUSH2 0x35E JUMP JUMPDEST SWAP2 SWAP1 POP JUMP JUMPDEST PUSH0 PUSH8 0xFFFFFFFFFFFFFFFF DUP3 GT ISZERO PUSH2 0x3C3 JUMPI PUSH2 0x3C2 PUSH2 0x331 JUMP JUMPDEST JUMPDEST PUSH1 0x20 DUP3 MUL SWAP1 POP PUSH1 0x20 DUP2 ADD SWAP1 POP SWAP2 SWAP1 POP JUMP JUMPDEST PUSH0 DUP1 REVERT JUMPDEST PUSH0 PUSH20 0xFFFFFFFFFFFFFFFFFFFFFFFFFFFFFFFFFFFFFFFF DUP3 AND SWAP1 POP SWAP2 SWAP1 POP JUMP JUMPDEST PUSH0 PUSH2 0x401 DUP3 PUSH2 0x3D8 JUMP JUMPDEST SWAP1 POP SWAP2 SWAP1 POP JUMP JUMPDEST PUSH2 0x411 DUP2 PUSH2 0x3F7 JUMP JUMPDEST DUP2 EQ PUSH2 0x41B JUMPI PUSH0 DUP1 REVERT JUMPDEST POP JUMP JUMPDEST PUSH0 DUP2 MLOAD SWAP1 POP PUSH2 0x42C DUP2 PUSH2 0x408 JUMP JUMPDEST SWAP3 SWAP2 POP POP JUMP JUMPDEST PUSH0 PUSH2 0x444 PUSH2 0x43F DUP5 PUSH2 0x3A9 JUMP JUMPDEST PUSH2 0x38F JUMP JUMPDEST SWAP1 POP DUP1 DUP4 DUP3 MSTORE PUSH1 0x20 DUP3 ADD SWAP1 POP PUSH1 0x20 DUP5 MUL DUP4 ADD DUP6 DUP2 GT ISZERO PUSH2 0x467 JUMPI PUSH2 0x466 PUSH2 0x3D4 JUMP JUMPDEST JUMPDEST DUP4 JUMPDEST DUP2 DUP2 LT ISZERO PUSH2 0x490 JUMPI DUP1 PUSH2 0x47C DUP9 DUP3 PUSH2 0x41E JUMP JUMPDEST DUP5 MSTORE PUSH1 0x20 DUP5 ADD SWAP4 POP POP PUSH1 0x20 DUP2 ADD SWAP1 POP PUSH2 0x469 JUMP JUMPDEST POP POP POP SWAP4 SWAP3 POP POP POP JUMP JUMPDEST PUSH0 DUP3 PUSH1 0x1F DUP4 ADD SLT PUSH2 0x4AE JUMPI PUSH2 0x4AD PUSH2 0x31D JUMP JUMPDEST JUMPDEST DUP2 MLOAD PUSH2 0x4BE DUP5 DUP3 PUSH1 0x20 DUP7 ADD PUSH2 0x432 JUMP JUMPDEST SWAP2 POP POP SWAP3 SWAP2 POP POP JUMP JUMPDEST PUSH0 DUP2 SWAP1 POP SWAP2 SWAP1 POP JUMP JUMPDEST PUSH2 0x4D9 DUP2 PUSH2 0x4C7 JUMP JUMPDEST DUP2 EQ PUSH2 0x4E3 JUMPI PUSH0 DUP1 REVERT JUMPDEST POP JUMP JUMPDEST PUSH0 DUP2 MLOAD SWAP1 POP PUSH2 0x4F4 DUP2 PUSH2 0x4D0 JUMP JUMPDEST SWAP3 SWAP2 POP POP JUMP JUMPDEST PUSH0 DUP1 PUSH1 0x40 DUP4 DUP6 SUB SLT ISZERO PUSH2 0x510 JUMPI PUSH2 0x50F PUSH2 0x315 JUMP JUMPDEST JUMPDEST PUSH0 DUP4 ADD MLOAD PUSH8 0xFFFFFFFFFFFFFFFF DUP2 GT ISZERO PUSH2 0x52D JUMPI PUSH2 0x52C PUSH2 0x319 JUMP JUMPDEST JUMPDEST PUSH2 0x539 DUP6 DUP3 DUP7 ADD PUSH2 0x49A JUMP JUMPDEST SWAP3 POP POP PUSH1 0x20 PUSH2 0x54A DUP6 DUP3 DUP7 ADD PUSH2 0x4E6 JUMP JUMPDEST SWAP2 POP POP SWAP3 POP SWAP3 SWAP1 POP JUMP JUMPDEST PUSH0 DUP3 DUP3 MSTORE PUSH1 0x20 DUP3 ADD SWAP1 POP SWAP3 SWAP2 POP POP JUMP JUMPDEST PUSH32 0x4451353030000000000000000000000000000000000000000000000000000000 PUSH0 DUP3 ADD MSTORE POP JUMP JUMPDEST PUSH0 PUSH2 0x598 PUSH1 0x5 DUP4 PUSH2 0x554 JUMP JUMPDEST SWAP2 POP PUSH2 0x5A3 DUP3 PUSH2 0x564 JUMP JUMPDEST PUSH1 0x20 DUP3 ADD SWAP1 POP SWAP2 SWAP1 POP JUMP JUMPDEST PUSH0 PUSH1 0x20 DUP3 ADD SWAP1 POP DUP2 DUP2 SUB PUSH0 DUP4 ADD MSTORE PUSH2 0x5C5 DUP2 PUSH2 0x58C JUMP JUMPDEST SWAP1 POP SWAP2 SWAP1 POP JUMP JUMPDEST PUSH32 0x4451353031000000000000000000000000000000000000000000000000000000 PUSH0 DUP3 ADD MSTORE POP JUMP JUMPDEST PUSH0 PUSH2 0x600 PUSH1 0x5 DUP4 PUSH2 0x554 JUMP JUMPDEST SWAP2 POP PUSH2 0x60B DUP3 PUSH2 0x5CC JUMP JUMPDEST PUSH1 0x20 DUP3 ADD SWAP1 POP SWAP2 SWAP1 POP JUMP JUMPDEST PUSH0 PUSH1 0x20 DUP3 ADD SWAP1 POP DUP2 DUP2 SUB PUSH0 DUP4 ADD MSTORE PUSH2 0x62D DUP2 PUSH2 0x5F4 JUMP JUMPDEST SWAP1 POP SWAP2 SWAP1 POP JUMP JUMPDEST PUSH32 0x4451353032000000000000000000000000000000000000000000000000000000 PUSH0 DUP3 ADD MSTORE POP JUMP JUMPDEST PUSH0 PUSH2 0x668 PUSH1 0x5 DUP4 PUSH2 0x554 JUMP JUMPDEST SWAP2 POP PUSH2 0x673 DUP3 PUSH2 0x634 JUMP JUMPDEST PUSH1 0x20 DUP3 ADD SWAP1 POP SWAP2 SWAP1 POP JUMP JUMPDEST PUSH0 PUSH1 0x20 DUP3 ADD SWAP1 POP DUP2 DUP2 SUB PUSH0 DUP4 ADD MSTORE PUSH2 0x695 DUP2 PUSH2 0x65C JUMP JUMPDEST SWAP1 POP SWAP2 SWAP1 POP JUMP JUMPDEST PUSH32 0x4E487B7100000000000000000000000000000000000000000000000000000000 PUSH0 MSTORE PUSH1 0x32 PUSH1 0x4 MSTORE PUSH1 0x24 PUSH0 REVERT JUMPDEST PUSH32 0x4451353033000000000000000000000000000000000000000000000000000000 PUSH0 DUP3 ADD MSTORE POP JUMP JUMPDEST PUSH0 PUSH2 0x6FD PUSH1 0x5 DUP4 PUSH2 0x554 JUMP JUMPDEST SWAP2 POP PUSH2 0x708 DUP3 PUSH2 0x6C9 JUMP JUMPDEST PUSH1 0x20 DUP3 ADD SWAP1 POP SWAP2 SWAP1 POP JUMP JUMPDEST PUSH0 PUSH1 0x20 DUP3 ADD SWAP1 POP DUP2 DUP2 SUB PUSH0 DUP4 ADD MSTORE PUSH2 0x72A DUP2 PUSH2 0x6F1 JUMP JUMPDEST SWAP1 POP SWAP2 SWAP1 POP JUMP JUMPDEST PUSH2 0xF40 DUP1 PUSH2 0x73E PUSH0 CODECOPY PUSH0 RETURN INVALID PUSH1 0x80 PUSH1 0x40 MSTORE PUSH1 0x4 CALLDATASIZE LT PUSH2 0x7E JUMPI PUSH0 CALLDATALOAD PUSH1 0xE0 SHR DUP1 PUSH4 0xA67DD509 GT PUSH2 0x4D JUMPI DUP1 PUSH4 0xA67DD509 EQ PUSH2 0x155 JUMPI DUP1 PUSH4 0xAFFED0E0 EQ PUSH2 0x191 JUMPI DUP1 PUSH4 0xC779906B EQ PUSH2 0x1BB JUMPI DUP1 PUSH4 0xED516D51 EQ PUSH2 0x1EB JUMPI PUSH2 0x85 JUMP JUMPDEST DUP1 PUSH4 0x25E7C27 EQ PUSH2 0x89 JUMPI DUP1 PUSH4 0xDB02622 EQ PUSH2 0xC5 JUMPI DUP1 PUSH4 0x2F54BF6E EQ PUSH2 0xEF JUMPI DUP1 PUSH4 0x42CDE4E8 EQ PUSH2 0x12B JUMPI PUSH2 0x85 JUMP JUMPDEST CALLDATASIZE PUSH2 0x85 JUMPI STOP JUMPDEST PUSH0 DUP1 REVERT JUMPDEST CALLVALUE DUP1 ISZERO PUSH2 0x94 JUMPI PUSH0 DUP1 REVERT JUMPDEST POP PUSH2 0xAF PUSH1 0x4 DUP1 CALLDATASIZE SUB DUP2 ADD SWAP1 PUSH2 0xAA SWAP2 SWAP1 PUSH2 0x6A2 JUMP JUMPDEST PUSH2 0x213 JUMP JUMPDEST PUSH1 0x40 MLOAD PUSH2 0xBC SWAP2 SWAP1 PUSH2 0x70C JUMP JUMPDEST PUSH1 0x40 MLOAD DUP1 SWAP2 SUB SWAP1 RETURN JUMPDEST CALLVALUE DUP1 ISZERO PUSH2 0xD0 JUMPI PUSH0 DUP1 REVERT JUMPDEST POP PUSH2 0xD9 PUSH2 0x24D JUMP JUMPDEST PUSH1 0x40 MLOAD PUSH2 0xE6 SWAP2 SWAP1 PUSH2 0x734 JUMP JUMPDEST PUSH1 0x40 MLOAD DUP1 SWAP2 SUB SWAP1 RETURN JUMPDEST CALLVALUE DUP1 ISZERO PUSH2 0xFA JUMPI PUSH0 DUP1 REVERT JUMPDEST POP PUSH2 0x115 PUSH1 0x4 DUP1 CALLDATASIZE SUB DUP2 ADD SWAP1 PUSH2 0x110 SWAP2 SWAP1 PUSH2 0x777 JUMP JUMPDEST PUSH2 0x253 JUMP JUMPDEST PUSH1 0x40 MLOAD PUSH2 0x122 SWAP2 SWAP1 PUSH2 0x7BC JUMP JUMPDEST PUSH1 0x40 MLOAD DUP1 SWAP2 SUB SWAP1 RETURN JUMPDEST CALLVALUE DUP1 ISZERO PUSH2 0x136 JUMPI PUSH0 DUP1 REVERT JUMPDEST POP PUSH2 0x13F PUSH2 0x270 JUMP JUMPDEST PUSH1 0x40 MLOAD PUSH2 0x14C SWAP2 SWAP1 PUSH2 0x734 JUMP JUMPDEST PUSH1 0x40 MLOAD DUP1 SWAP2 SUB SWAP1 RETURN JUMPDEST CALLVALUE DUP1 ISZERO PUSH2 0x160 JUMPI PUSH0 DUP1 REVERT JUMPDEST POP PUSH2 0x17B PUSH1 0x4 DUP1 CALLDATASIZE SUB DUP2 ADD SWAP1 PUSH2 0x176 SWAP2 SWAP1 PUSH2 0x911 JUMP JUMPDEST PUSH2 0x276 JUMP JUMPDEST PUSH1 0x40 MLOAD PUSH2 0x188 SWAP2 SWAP1 PUSH2 0x9BC JUMP JUMPDEST PUSH1 0x40 MLOAD DUP1 SWAP2 SUB SWAP1 RETURN JUMPDEST CALLVALUE DUP1 ISZERO PUSH2 0x19C JUMPI PUSH0 DUP1 REVERT JUMPDEST POP PUSH2 0x1A5 PUSH2 0x2BD JUMP JUMPDEST PUSH1 0x40 MLOAD PUSH2 0x1B2 SWAP2 SWAP1 PUSH2 0x734 JUMP JUMPDEST PUSH1 0x40 MLOAD DUP1 SWAP2 SUB SWAP1 RETURN JUMPDEST PUSH2 0x1D5 PUSH1 0x4 DUP1 CALLDATASIZE SUB DUP2 ADD SWAP1 PUSH2 0x1D0 SWAP2 SWAP1 PUSH2 0x9D5 JUMP JUMPDEST PUSH2 0x2C3 JUMP JUMPDEST PUSH1 0x40 MLOAD PUSH2 0x1E2 SWAP2 SWAP1 PUSH2 0x7BC JUMP JUMPDEST PUSH1 0x40 MLOAD DUP1 SWAP2 SUB SWAP1 RETURN JUMPDEST CALLVALUE DUP1 ISZERO PUSH2 0x1F6 JUMPI PUSH0 DUP1 REVERT JUMPDEST POP PUSH2 0x211 PUSH1 0x4 DUP1 CALLDATASIZE SUB DUP2 ADD SWAP1 PUSH2 0x20C SWAP2 SWAP1 PUSH2 0xA9B JUMP JUMPDEST PUSH2 0x425 JUMP JUMPDEST STOP JUMPDEST PUSH0 DUP2 DUP2 SLOAD DUP2 LT PUSH2 0x221 JUMPI PUSH0 DUP1 REVERT JUMPDEST SWAP1 PUSH0 MSTORE PUSH1 0x20 PUSH0 KECCAK256 ADD PUSH0 SWAP2 POP SLOAD SWAP1 PUSH2 0x100 EXP SWAP1 DIV PUSH20 0xFFFFFFFFFFFFFFFFFFFFFFFFFFFFFFFFFFFFFFFF AND DUP2 JUMP JUMPDEST PUSH1 0x2 SLOAD DUP2 JUMP JUMPDEST PUSH1 0x1 PUSH1 0x20 MSTORE DUP1 PUSH0 MSTORE PUSH1 0x40 PUSH0 KECCAK256 PUSH0 SWAP2 POP SLOAD SWAP1 PUSH2 0x100 EXP SWAP1 DIV PUSH1 0xFF AND DUP2 JUMP JUMPDEST PUSH1 0x3 SLOAD DUP2 JUMP JUMPDEST PUSH0 DUP1 DUP7 DUP7 DUP7 DUP1 MLOAD SWAP1 PUSH1 0x20 ADD KECCAK256 DUP7 DUP7 PUSH1 0x40 MLOAD PUSH1 0x20 ADD PUSH2 0x298 SWAP6 SWAP5 SWAP4 SWAP3 SWAP2 SWAP1 PUSH2 0xAF5 JUMP JUMPDEST PUSH1 0x40 MLOAD PUSH1 0x20 DUP2 DUP4 SUB SUB DUP2 MSTORE SWAP1 PUSH1 0x40 MSTORE DUP1 MLOAD SWAP1 PUSH1 0x20 ADD KECCAK256 SWAP1 POP DUP1 SWAP2 POP POP SWAP6 SWAP5 POP POP POP POP POP JUMP JUMPDEST PUSH1 0x4 SLOAD DUP2 JUMP JUMPDEST PUSH0 DUP1 PUSH2 0x2D4 DUP7 DUP7 DUP7 PUSH1 0x4 SLOAD CHAINID PUSH2 0x276 JUMP JUMPDEST SWAP1 POP PUSH1 0x4 PUSH0 DUP2 SLOAD DUP1 SWAP3 SWAP2 SWAP1 PUSH2 0x2E8 SWAP1 PUSH2 0xB73 JUMP JUMPDEST SWAP2 SWAP1 POP SSTORE POP PUSH2 0x2F7 DUP2 DUP5 PUSH2 0x425 JUMP JUMPDEST DUP6 PUSH20 0xFFFFFFFFFFFFFFFFFFFFFFFFFFFFFFFFFFFFFFFF AND DUP6 DUP6 PUSH1 0x40 MLOAD PUSH2 0x31D SWAP2 SWAP1 PUSH2 0xC0C JUMP JUMPDEST PUSH0 PUSH1 0x40 MLOAD DUP1 DUP4 SUB DUP2 DUP6 DUP8 GAS CALL SWAP3 POP POP POP RETURNDATASIZE DUP1 PUSH0 DUP2 EQ PUSH2 0x357 JUMPI PUSH1 0x40 MLOAD SWAP2 POP PUSH1 0x1F NOT PUSH1 0x3F RETURNDATASIZE ADD AND DUP3 ADD PUSH1 0x40 MSTORE RETURNDATASIZE DUP3 MSTORE RETURNDATASIZE PUSH0 PUSH1 0x20 DUP5 ADD RETURNDATACOPY PUSH2 0x35C JUMP JUMPDEST PUSH1 0x60 SWAP2 POP JUMPDEST POP POP DUP1 SWAP3 POP POP DUP2 PUSH2 0x3A2 JUMPI PUSH1 0x40 MLOAD PUSH32 0x8C379A000000000000000000000000000000000000000000000000000000000 DUP2 MSTORE PUSH1 0x4 ADD PUSH2 0x399 SWAP1 PUSH2 0xC7C JUMP JUMPDEST PUSH1 0x40 MLOAD DUP1 SWAP2 SUB SWAP1 REVERT JUMPDEST DUP2 ISZERO PUSH2 0x3E4 JUMPI PUSH32 0xDC29884A71D2BB98D3C53DC09718BE05C7BFD142B7773A5C5CF2517629290AC0 DUP2 PUSH1 0x40 MLOAD PUSH2 0x3D7 SWAP2 SWAP1 PUSH2 0x9BC JUMP JUMPDEST PUSH1 0x40 MLOAD DUP1 SWAP2 SUB SWAP1 LOG1 PUSH2 0x41C JUMP JUMPDEST PUSH32 0xDBE42D02A4E07D7EEFF2874EFE172540C93B297D206F6D691C9782A257323E32 DUP2 PUSH1 0x40 MLOAD PUSH2 0x413 SWAP2 SWAP1 PUSH2 0x9BC JUMP JUMPDEST PUSH1 0x40 MLOAD DUP1 SWAP2 SUB SWAP1 LOG1 JUMPDEST POP SWAP5 SWAP4 POP POP POP POP JUMP JUMPDEST PUSH0 PUSH1 0x3 SLOAD SWAP1 POP PUSH0 DUP2 GT PUSH2 0x46D JUMPI PUSH1 0x40 MLOAD PUSH32 0x8C379A000000000000000000000000000000000000000000000000000000000 DUP2 MSTORE PUSH1 0x4 ADD PUSH2 0x464 SWAP1 PUSH2 0xCE4 JUMP JUMPDEST PUSH1 0x40 MLOAD DUP1 SWAP2 SUB SWAP1 REVERT JUMPDEST PUSH1 0x41 DUP2 PUSH2 0x47A SWAP2 SWAP1 PUSH2 0xD02 JUMP JUMPDEST DUP3 MLOAD LT ISZERO PUSH2 0x4BD JUMPI PUSH1 0x40 MLOAD PUSH32 0x8C379A000000000000000000000000000000000000000000000000000000000 DUP2 MSTORE PUSH1 0x4 ADD PUSH2 0x4B4 SWAP1 PUSH2 0xD8D JUMP JUMPDEST PUSH1 0x40 MLOAD DUP1 SWAP2 SUB SWAP1 REVERT JUMPDEST PUSH0 DUP1 DUP1 PUSH0 DUP1 PUSH0 JUMPDEST DUP7 DUP2 LT ISZERO PUSH2 0x626 JUMPI PUSH2 0x4D6 DUP9 DUP3 PUSH2 0x631 JUMP JUMPDEST DUP1 SWAP5 POP DUP2 SWAP6 POP DUP3 SWAP7 POP POP POP POP PUSH1 0x1 DUP10 PUSH1 0x40 MLOAD PUSH1 0x20 ADD PUSH2 0x4F5 SWAP2 SWAP1 PUSH2 0xE1F JUMP JUMPDEST PUSH1 0x40 MLOAD PUSH1 0x20 DUP2 DUP4 SUB SUB DUP2 MSTORE SWAP1 PUSH1 0x40 MSTORE DUP1 MLOAD SWAP1 PUSH1 0x20 ADD KECCAK256 DUP6 DUP6 DUP6 PUSH1 0x40 MLOAD PUSH0 DUP2 MSTORE PUSH1 0x20 ADD PUSH1 0x40 MSTORE PUSH1 0x40 MLOAD PUSH2 0x52A SWAP5 SWAP4 SWAP3 SWAP2 SWAP1 PUSH2 0xE5F JUMP JUMPDEST PUSH1 0x20 PUSH1 0x40 MLOAD PUSH1 0x20 DUP2 SUB SWAP1 DUP1 DUP5 SUB SWAP1 DUP6 GAS STATICCALL ISZERO DUP1 ISZERO PUSH2 0x54A JUMPI RETURNDATASIZE PUSH0 DUP1 RETURNDATACOPY RETURNDATASIZE PUSH0 REVERT JUMPDEST POP POP POP PUSH1 0x20 PUSH1 0x40 MLOAD SUB MLOAD SWAP5 POP DUP6 PUSH20 0xFFFFFFFFFFFFFFFFFFFFFFFFFFFFFFFFFFFFFFFF AND DUP6 PUSH20 0xFFFFFFFFFFFFFFFFFFFFFFFFFFFFFFFFFFFFFFFF AND GT DUP1 ISZERO PUSH2 0x5D7 JUMPI POP PUSH1 0x1 PUSH0 DUP7 PUSH20 0xFFFFFFFFFFFFFFFFFFFFFFFFFFFFFFFFFFFFFFFF AND PUSH20 0xFFFFFFFFFFFFFFFFFFFFFFFFFFFFFFFFFFFFFFFF AND DUP2 MSTORE PUSH1 0x20 ADD SWAP1 DUP2 MSTORE PUSH1 0x20 ADD PUSH0 KECCAK256 PUSH0 SWAP1 SLOAD SWAP1 PUSH2 0x100 EXP SWAP1 DIV PUSH1 0xFF AND JUMPDEST PUSH2 0x616 JUMPI PUSH1 0x40 MLOAD PUSH32 0x8C379A000000000000000000000000000000000000000000000000000000000 DUP2 MSTORE PUSH1 0x4 ADD PUSH2 0x60D SWAP1 PUSH2 0xEEC JUMP JUMPDEST PUSH1 0x40 MLOAD DUP1 SWAP2 SUB SWAP1 REVERT JUMPDEST DUP5 SWAP6 POP DUP1 DUP1 PUSH1 0x1 ADD SWAP2 POP POP PUSH2 0x4C4 JUMP JUMPDEST POP POP POP POP POP POP POP POP POP JUMP JUMPDEST PUSH0 DUP1 PUSH0 DUP4 PUSH1 0x41 MUL PUSH1 0x20 DUP2 ADD DUP7 ADD MLOAD SWAP3 POP PUSH1 0x40 DUP2 ADD DUP7 ADD MLOAD SWAP2 POP PUSH1 0xFF PUSH1 0x41 DUP3 ADD DUP8 ADD MLOAD AND SWAP4 POP POP SWAP3 POP SWAP3 POP SWAP3 JUMP JUMPDEST PUSH0 PUSH1 0x40 MLOAD SWAP1 POP SWAP1 JUMP JUMPDEST PUSH0 DUP1 REVERT JUMPDEST PUSH0 DUP1 REVERT JUMPDEST PUSH0 DUP2 SWAP1 POP SWAP2 SWAP1 POP JUMP JUMPDEST PUSH2 0x681 DUP2 PUSH2 0x66F JUMP JUMPDEST DUP2 EQ PUSH2 0x68B JUMPI PUSH0 DUP1 REVERT JUMPDEST POP JUMP JUMPDEST PUSH0 DUP2 CALLDATALOAD SWAP1 POP PUSH2 0x69C DUP2 PUSH2 0x678 JUMP JUMPDEST SWAP3 SWAP2 POP POP JUMP JUMPDEST PUSH0 PUSH1 0x20 DUP3 DUP5 SUB SLT ISZERO PUSH2 0x6B7 JUMPI PUSH2 0x6B6 PUSH2 0x667 JUMP JUMPDEST JUMPDEST PUSH0 PUSH2 0x6C4 DUP5 DUP3 DUP6 ADD PUSH2 0x68E JUMP JUMPDEST SWAP2 POP POP SWAP3 SWAP2 POP POP JUMP JUMPDEST PUSH0 PUSH20 0xFFFFFFFFFFFFFFFFFFFFFFFFFFFFFFFFFFFFFFFF DUP3 AND SWAP1 POP SWAP2 SWAP1 POP JUMP JUMPDEST PUSH0 PUSH2 0x6F6 DUP3 PUSH2 0x6CD JUMP JUMPDEST SWAP1 POP SWAP2 SWAP1 POP JUMP JUMPDEST PUSH2 0x706 DUP2 PUSH2 0x6EC JUMP JUMPDEST DUP3 MSTORE POP POP JUMP JUMPDEST PUSH0 PUSH1 0x20 DUP3 ADD SWAP1 POP PUSH2 0x71F PUSH0 DUP4 ADD DUP5 PUSH2 0x6FD JUMP JUMPDEST SWAP3 SWAP2 POP POP JUMP JUMPDEST PUSH2 0x72E DUP2 PUSH2 0x66F JUMP JUMPDEST DUP3 MSTORE POP POP JUMP JUMPDEST PUSH0 PUSH1 0x20 DUP3 ADD SWAP1 POP PUSH2 0x747 PUSH0 DUP4 ADD DUP5 PUSH2 0x725 JUMP JUMPDEST SWAP3 SWAP2 POP POP JUMP JUMPDEST PUSH2 0x756 DUP2 PUSH2 0x6EC JUMP JUMPDEST DUP2 EQ PUSH2 0x760 JUMPI PUSH0 DUP1 REVERT JUMPDEST POP JUMP JUMPDEST PUSH0 DUP2 CALLDATALOAD SWAP1 POP PUSH2 0x771 DUP2 PUSH2 0x74D JUMP JUMPDEST SWAP3 SWAP2 POP POP JUMP JUMPDEST PUSH0 PUSH1 0x20 DUP3 DUP5 SUB SLT ISZERO PUSH2 0x78C JUMPI PUSH2 0x78B PUSH2 0x667 JUMP JUMPDEST JUMPDEST PUSH0 PUSH2 0x799 DUP5 DUP3 DUP6 ADD PUSH2 0x763 JUMP JUMPDEST SWAP2 POP POP SWAP3 SWAP2 POP POP JUMP JUMPDEST PUSH0 DUP2 ISZERO ISZERO SWAP1 POP SWAP2 SWAP1 POP JUMP JUMPDEST PUSH2 0x7B6 DUP2 PUSH2 0x7A2 JUMP JUMPDEST DUP3 MSTORE POP POP JUMP JUMPDEST PUSH0 PUSH1 0x20 DUP3 ADD SWAP1 POP PUSH2 0x7CF PUSH0 DUP4 ADD DUP5 PUSH2 0x7AD JUMP JUMPDEST SWAP3 SWAP2 POP POP JUMP JUMPDEST PUSH0 DUP1 REVERT JUMPDEST PUSH0 DUP1 REVERT JUMPDEST PUSH0 PUSH1 0x1F NOT PUSH1 0x1F DUP4 ADD AND SWAP1 POP SWAP2 SWAP1 POP JUMP JUMPDEST PUSH32 0x4E487B7100000000000000000000000000000000000000000000000000000000 PUSH0 MSTORE PUSH1 0x41 PUSH1 0x4 MSTORE PUSH1 0x24 PUSH0 REVERT JUMPDEST PUSH2 0x823 DUP3 PUSH2 0x7DD JUMP JUMPDEST DUP2 ADD DUP2 DUP2 LT PUSH8 0xFFFFFFFFFFFFFFFF DUP3 GT OR ISZERO PUSH2 0x842 JUMPI PUSH2 0x841 PUSH2 0x7ED JUMP JUMPDEST JUMPDEST DUP1 PUSH1 0x40 MSTORE POP POP POP JUMP JUMPDEST PUSH0 PUSH2 0x854 PUSH2 0x65E JUMP JUMPDEST SWAP1 POP PUSH2 0x860 DUP3 DUP3 PUSH2 0x81A JUMP JUMPDEST SWAP2 SWAP1 POP JUMP JUMPDEST PUSH0 PUSH8 0xFFFFFFFFFFFFFFFF DUP3 GT ISZERO PUSH2 0x87F JUMPI PUSH2 0x87E PUSH2 0x7ED JUMP JUMPDEST JUMPDEST PUSH2 0x888 DUP3 PUSH2 0x7DD JUMP JUMPDEST SWAP1 POP PUSH1 0x20 DUP2 ADD SWAP1 POP SWAP2 SWAP1 POP JUMP JUMPDEST DUP3 DUP2 DUP4 CALLDATACOPY PUSH0 DUP4 DUP4 ADD MSTORE POP POP POP JUMP JUMPDEST PUSH0 PUSH2 0x8B5 PUSH2 0x8B0 DUP5 PUSH2 0x865 JUMP JUMPDEST PUSH2 0x84B JUMP JUMPDEST SWAP1 POP DUP3 DUP2 MSTORE PUSH1 0x20 DUP2 ADD DUP5 DUP5 DUP5 ADD GT ISZERO PUSH2 0x8D1 JUMPI PUSH2 0x8D0 PUSH2 0x7D9 JUMP JUMPDEST JUMPDEST PUSH2 0x8DC DUP5 DUP3 DUP6 PUSH2 0x895 JUMP JUMPDEST POP SWAP4 SWAP3 POP POP POP JUMP JUMPDEST PUSH0 DUP3 PUSH1 0x1F DUP4 ADD SLT PUSH2 0x8F8 JUMPI PUSH2 0x8F7 PUSH2 0x7D5 JUMP JUMPDEST JUMPDEST DUP2 CALLDATALOAD PUSH2 0x908 DUP5 DUP3 PUSH1 0x20 DUP7 ADD PUSH2 0x8A3 JUMP JUMPDEST SWAP2 POP POP SWAP3 SWAP2 POP POP JUMP JUMPDEST PUSH0 DUP1 PUSH0 DUP1 PUSH0 PUSH1 0xA0 DUP7 DUP9 SUB SLT ISZERO PUSH2 0x92A JUMPI PUSH2 0x929 PUSH2 0x667 JUMP JUMPDEST JUMPDEST PUSH0 PUSH2 0x937 DUP9 DUP3 DUP10 ADD PUSH2 0x763 JUMP JUMPDEST SWAP6 POP POP PUSH1 0x20 PUSH2 0x948 DUP9 DUP3 DUP10 ADD PUSH2 0x68E JUMP JUMPDEST SWAP5 POP POP PUSH1 0x40 DUP7 ADD CALLDATALOAD PUSH8 0xFFFFFFFFFFFFFFFF DUP2 GT ISZERO PUSH2 0x969 JUMPI PUSH2 0x968 PUSH2 0x66B JUMP JUMPDEST JUMPDEST PUSH2 0x975 DUP9 DUP3 DUP10 ADD PUSH2 0x8E4 JUMP JUMPDEST SWAP4 POP POP PUSH1 0x60 PUSH2 0x986 DUP9 DUP3 DUP10 ADD PUSH2 0x68E JUMP JUMPDEST SWAP3 POP POP PUSH1 0x80 PUSH2 0x997 DUP9 DUP3 DUP10 ADD PUSH2 0x68E JUMP JUMPDEST SWAP2 POP POP SWAP3 SWAP6 POP SWAP3 SWAP6 SWAP1 SWAP4 POP JUMP JUMPDEST PUSH0 DUP2 SWAP1 POP SWAP2 SWAP1 POP JUMP JUMPDEST PUSH2 0x9B6 DUP2 PUSH2 0x9A4 JUMP JUMPDEST DUP3 MSTORE POP POP JUMP JUMPDEST PUSH0 PUSH1 0x20 DUP3 ADD SWAP1 POP PUSH2 0x9CF PUSH0 DUP4 ADD DUP5 PUSH2 0x9AD JUMP JUMPDEST SWAP3 SWAP2 POP POP JUMP JUMPDEST PUSH0 DUP1 PUSH0 DUP1 PUSH1 0x80 DUP6 DUP8 SUB SLT ISZERO PUSH2 0x9ED JUMPI PUSH2 0x9EC PUSH2 0x667 JUMP JUMPDEST JUMPDEST PUSH0 PUSH2 0x9FA DUP8 DUP3 DUP9 ADD PUSH2 0x763 JUMP JUMPDEST SWAP5 POP POP PUSH1 0x20 PUSH2 0xA0B DUP8 DUP3 DUP9 ADD PUSH2 0x68E JUMP JUMPDEST SWAP4 POP POP PUSH1 0x40 DUP6 ADD CALLDATALOAD PUSH8 0xFFFFFFFFFFFFFFFF DUP2 GT ISZERO PUSH2 0xA2C JUMPI PUSH2 0xA2B PUSH2 0x66B JUMP JUMPDEST JUMPDEST PUSH2 0xA38 DUP8 DUP3 DUP9 ADD PUSH2 0x8E4 JUMP JUMPDEST SWAP3 POP POP PUSH1 0x60 DUP6 ADD CALLDATALOAD PUSH8 0xFFFFFFFFFFFFFFFF DUP2 GT ISZERO PUSH2 0xA59 JUMPI PUSH2 0xA58 PUSH2 0x66B JUMP JUMPDEST JUMPDEST PUSH2 0xA65 DUP8 DUP3 DUP9 ADD PUSH2 0x8E4 JUMP JUMPDEST SWAP2 POP POP SWAP3 SWAP6 SWAP2 SWAP5 POP SWAP3 POP JUMP JUMPDEST PUSH2 0xA7A DUP2 PUSH2 0x9A4 JUMP JUMPDEST DUP2 EQ PUSH2 0xA84 JUMPI PUSH0 DUP1 REVERT JUMPDEST POP JUMP JUMPDEST PUSH0 DUP2 CALLDATALOAD SWAP1 POP PUSH2 0xA95 DUP2 PUSH2 0xA71 JUMP JUMPDEST SWAP3 SWAP2 POP POP JUMP JUMPDEST PUSH0 DUP1 PUSH1 0x40 DUP4 DUP6 SUB SLT ISZERO PUSH2 0xAB1 JUMPI PUSH2 0xAB0 PUSH2 0x667 JUMP JUMPDEST JUMPDEST PUSH0 PUSH2 0xABE DUP6 DUP3 DUP7 ADD PUSH2 0xA87 JUMP JUMPDEST SWAP3 POP POP PUSH1 0x20 DUP4 ADD CALLDATALOAD PUSH8 0xFFFFFFFFFFFFFFFF DUP2 GT ISZERO PUSH2 0xADF JUMPI PUSH2 0xADE PUSH2 0x66B JUMP JUMPDEST JUMPDEST PUSH2 0xAEB DUP6 DUP3 DUP7 ADD PUSH2 0x8E4 JUMP JUMPDEST SWAP2 POP POP SWAP3 POP SWAP3 SWAP1 POP JUMP JUMPDEST PUSH0 PUSH1 0xA0 DUP3 ADD SWAP1 POP PUSH2 0xB08 PUSH0 DUP4 ADD DUP9 PUSH2 0x6FD JUMP JUMPDEST PUSH2 0xB15 PUSH1 0x20 DUP4 ADD DUP8 PUSH2 0x725 JUMP JUMPDEST PUSH2 0xB22 PUSH1 0x40 DUP4 ADD DUP7 PUSH2 0x9AD JUMP JUMPDEST PUSH2 0xB2F PUSH1 0x60 DUP4 ADD DUP6 PUSH2 0x725 JUMP JUMPDEST PUSH2 0xB3C PUSH1 0x80 DUP4 ADD DUP5 PUSH2 0x725 JUMP JUMPDEST SWAP7 SWAP6 POP POP POP POP POP POP JUMP JUMPDEST PUSH32 0x4E487B7100000000000000000000000000000000000000000000000000000000 PUSH0 MSTORE PUSH1 0x11 PUSH1 0x4 MSTORE PUSH1 0x24 PUSH0 REVERT JUMPDEST PUSH0 PUSH2 0xB7D DUP3 PUSH2 0x66F JUMP JUMPDEST SWAP2 POP PUSH32 0xFFFFFFFFFFFFFFFFFFFFFFFFFFFFFFFFFFFFFFFFFFFFFFFFFFFFFFFFFFFFFFFF DUP3 SUB PUSH2 0xBAF JUMPI PUSH2 0xBAE PUSH2 0xB46 JUMP JUMPDEST JUMPDEST PUSH1 0x1 DUP3 ADD SWAP1 POP SWAP2 SWAP1 POP JUMP JUMPDEST PUSH0 DUP2 MLOAD SWAP1 POP SWAP2 SWAP1 POP JUMP JUMPDEST PUSH0 DUP2 SWAP1 POP SWAP3 SWAP2 POP POP JUMP JUMPDEST DUP3 DUP2 DUP4 MCOPY PUSH0 DUP4 DUP4 ADD MSTORE POP POP POP JUMP JUMPDEST PUSH0 PUSH2 0xBE6 DUP3 PUSH2 0xBBA JUMP JUMPDEST PUSH2 0xBF0 DUP2 DUP6 PUSH2 0xBC4 JUMP JUMPDEST SWAP4 POP PUSH2 0xC00 DUP2 DUP6 PUSH1 0x20 DUP7 ADD PUSH2 0xBCE JUMP JUMPDEST DUP1 DUP5 ADD SWAP2 POP POP SWAP3 SWAP2 POP POP JUMP JUMPDEST PUSH0 PUSH2 0xC17 DUP3 DUP5 PUSH2 0xBDC JUMP JUMPDEST SWAP2 POP DUP2 SWAP1 POP SWAP3 SWAP2 POP POP JUMP JUMPDEST PUSH0 DUP3 DUP3 MSTORE PUSH1 0x20 DUP3 ADD SWAP1 POP SWAP3 SWAP2 POP POP JUMP JUMPDEST PUSH32 0x4451353030340000000000000000000000000000000000000000000000000000 PUSH0 DUP3 ADD MSTORE POP JUMP JUMPDEST PUSH0 PUSH2 0xC66 PUSH1 0x6 DUP4 PUSH2 0xC22 JUMP JUMPDEST SWAP2 POP PUSH2 0xC71 DUP3 PUSH2 0xC32 JUMP JUMPDEST PUSH1 0x20 DUP3 ADD SWAP1 POP SWAP2 SWAP1 POP JUMP JUMPDEST PUSH0 PUSH1 0x20 DUP3 ADD SWAP1 POP DUP2 DUP2 SUB PUSH0 DUP4 ADD MSTORE PUSH2 0xC93 DUP2 PUSH2 0xC5A JUMP JUMPDEST SWAP1 POP SWAP2 SWAP1 POP JUMP JUMPDEST PUSH32 0x4451353030350000000000000000000000000000000000000000000000000000 PUSH0 DUP3 ADD MSTORE POP JUMP JUMPDEST PUSH0 PUSH2 0xCCE PUSH1 0x6 DUP4 PUSH2 0xC22 JUMP JUMPDEST SWAP2 POP PUSH2 0xCD9 DUP3 PUSH2 0xC9A JUMP JUMPDEST PUSH1 0x20 DUP3 ADD SWAP1 POP SWAP2 SWAP1 POP JUMP JUMPDEST PUSH0 PUSH1 0x20 DUP3 ADD SWAP1 POP DUP2 DUP2 SUB PUSH0 DUP4 ADD MSTORE PUSH2 0xCFB DUP2 PUSH2 0xCC2 JUMP JUMPDEST SWAP1 POP SWAP2 SWAP1 POP JUMP JUMPDEST PUSH0 PUSH2 0xD0C DUP3 PUSH2 0x66F JUMP JUMPDEST SWAP2 POP PUSH2 0xD17 DUP4 PUSH2 0x66F JUMP JUMPDEST SWAP3 POP DUP3 DUP3 MUL PUSH2 0xD25 DUP2 PUSH2 0x66F JUMP JUMPDEST SWAP2 POP DUP3 DUP3 DIV DUP5 EQ DUP4 ISZERO OR PUSH2 0xD3C JUMPI PUSH2 0xD3B PUSH2 0xB46 JUMP JUMPDEST JUMPDEST POP SWAP3 SWAP2 POP POP JUMP JUMPDEST PUSH32 0x4451353030360000000000000000000000000000000000000000000000000000 PUSH0 DUP3 ADD MSTORE POP JUMP JUMPDEST PUSH0 PUSH2 0xD77 PUSH1 0x6 DUP4 PUSH2 0xC22 JUMP JUMPDEST SWAP2 POP PUSH2 0xD82 DUP3 PUSH2 0xD43 JUMP JUMPDEST PUSH1 0x20 DUP3 ADD SWAP1 POP SWAP2 SWAP1 POP JUMP JUMPDEST PUSH0 PUSH1 0x20 DUP3 ADD SWAP1 POP DUP2 DUP2 SUB PUSH0 DUP4 ADD MSTORE PUSH2 0xDA4 DUP2 PUSH2 0xD6B JUMP JUMPDEST SWAP1 POP SWAP2 SWAP1 POP JUMP JUMPDEST PUSH0 DUP2 SWAP1 POP SWAP3 SWAP2 POP POP JUMP JUMPDEST PUSH32 0x19457468657265756D205369676E6564204D6573736167653A0A333200000000 PUSH0 DUP3 ADD MSTORE POP JUMP JUMPDEST PUSH0 PUSH2 0xDE9 PUSH1 0x1C DUP4 PUSH2 0xDAB JUMP JUMPDEST SWAP2 POP PUSH2 0xDF4 DUP3 PUSH2 0xDB5 JUMP JUMPDEST PUSH1 0x1C DUP3 ADD SWAP1 POP SWAP2 SWAP1 POP JUMP JUMPDEST PUSH0 DUP2 SWAP1 POP SWAP2 SWAP1 POP JUMP JUMPDEST PUSH2 0xE19 PUSH2 0xE14 DUP3 PUSH2 0x9A4 JUMP JUMPDEST PUSH2 0xDFF JUMP JUMPDEST DUP3 MSTORE POP POP JUMP JUMPDEST PUSH0 PUSH2 0xE29 DUP3 PUSH2 0xDDD JUMP JUMPDEST SWAP2 POP PUSH2 0xE35 DUP3 DUP5 PUSH2 0xE08 JUMP JUMPDEST PUSH1 0x20 DUP3 ADD SWAP2 POP DUP2 SWAP1 POP SWAP3 SWAP2 POP POP JUMP JUMPDEST PUSH0 PUSH1 0xFF DUP3 AND SWAP1 POP SWAP2 SWAP1 POP JUMP JUMPDEST PUSH2 0xE59 DUP2 PUSH2 0xE44 JUMP JUMPDEST DUP3 MSTORE POP POP JUMP JUMPDEST PUSH0 PUSH1 0x80 DUP3 ADD SWAP1 POP PUSH2 0xE72 PUSH0 DUP4 ADD DUP8 PUSH2 0x9AD JUMP JUMPDEST PUSH2 0xE7F PUSH1 0x20 DUP4 ADD DUP7 PUSH2 0xE50 JUMP JUMPDEST PUSH2 0xE8C PUSH1 0x40 DUP4 ADD DUP6 PUSH2 0x9AD JUMP JUMPDEST PUSH2 0xE99 PUSH1 0x60 DUP4 ADD DUP5 PUSH2 0x9AD JUMP JUMPDEST SWAP6 SWAP5 POP POP POP POP POP JUMP JUMPDEST PUSH32 0x4451353030370000000000000000000000000000000000000000000000000000 PUSH0 DUP3 ADD MSTORE POP JUMP JUMPDEST PUSH0 PUSH2 0xED6 PUSH1 0x6 DUP4 PUSH2 0xC22 JUMP JUMPDEST SWAP2 POP PUSH2 0xEE1 DUP3 PUSH2 0xEA2 JUMP JUMPDEST PUSH1 0x20 DUP3 ADD SWAP1 POP SWAP2 SWAP1 POP JUMP JUMPDEST PUSH0 PUSH1 0x20 DUP3 ADD SWAP1 POP DUP2 DUP2 SUB PUSH0 DUP4 ADD MSTORE PUSH2 0xF03 DUP2 PUSH2 0xECA JUMP JUMPDEST SWAP1 POP SWAP2 SWAP1 POP JUMP INVALID LOG2 PUSH5 0x6970667358 0x22 SLT KECCAK256 0xE7 0xCC 0xD2 BALANCE 0xE2 SELFDESTRUCT BLOBHASH SUB PUSH9 0x41FCCC25A49370CF3 BLOBBASEFEE PUSH22 0x55106384ABA24B270FA3FF7B64736F6C634300081A00 CALLER "
				},
				"gasEstimates": {
					"creation": {
						"codeDepositCost": "780800",
						"executionCost": "infinite",
						"totalCost": "infinite"
					},
					"external": {
						"checkSignatures(bytes32,bytes)": "infinite",
						"encodeTransactionData(address,uint256,bytes,uint256,uint256)": "infinite",
						"execTransation(address,uint256,bytes,bytes)": "infinite",
						"isOwner(address)": "2878",
						"nonce()": "2447",
						"ownerCount()": "2448",
						"owners(uint256)": "4944",
						"threshold()": "2492"
					},
					"internal": {
						"_setupOwners(address[] memory,uint256)": "infinite",
						"signatureSplit(bytes memory,uint256)": "infinite"
					}
				},
				"methodIdentifiers": {
					"checkSignatures(bytes32,bytes)": "ed516d51",
					"encodeTransactionData(address,uint256,bytes,uint256,uint256)": "a67dd509",
					"execTransation(address,uint256,bytes,bytes)": "c779906b",
					"isOwner(address)": "2f54bf6e",
					"nonce()": "affed0e0",
					"ownerCount()": "0db02622",
					"owners(uint256)": "025e7c27",
					"threshold()": "42cde4e8"
				}
			},
			"storageLayout": {
				"storage": [
					{
						"astId": 4,
						"contract": "contracts/MultisigWallet.sol:MultisigWallet",
						"label": "owners",
						"offset": 0,
						"slot": "0",
						"type": "t_array(t_address)dyn_storage"
					},
					{
						"astId": 8,
						"contract": "contracts/MultisigWallet.sol:MultisigWallet",
						"label": "isOwner",
						"offset": 0,
						"slot": "1",
						"type": "t_mapping(t_address,t_bool)"
					},
					{
						"astId": 10,
						"contract": "contracts/MultisigWallet.sol:MultisigWallet",
						"label": "ownerCount",
						"offset": 0,
						"slot": "2",
						"type": "t_uint256"
					},
					{
						"astId": 12,
						"contract": "contracts/MultisigWallet.sol:MultisigWallet",
						"label": "threshold",
						"offset": 0,
						"slot": "3",
						"type": "t_uint256"
					},
					{
						"astId": 14,
						"contract": "contracts/MultisigWallet.sol:MultisigWallet",
						"label": "nonce",
						"offset": 0,
						"slot": "4",
						"type": "t_uint256"
					}
				],
				"types": {
					"t_address": {
						"encoding": "inplace",
						"label": "address",
						"numberOfBytes": "20"
					},
					"t_array(t_address)dyn_storage": {
						"base": "t_address",
						"encoding": "dynamic_array",
						"label": "address[]",
						"numberOfBytes": "32"
					},
					"t_bool": {
						"encoding": "inplace",
						"label": "bool",
						"numberOfBytes": "1"
					},
					"t_mapping(t_address,t_bool)": {
						"encoding": "mapping",
						"key": "t_address",
						"label": "mapping(address => bool)",
						"numberOfBytes": "32",
						"value": "t_bool"
					},
					"t_uint256": {
						"encoding": "inplace",
						"label": "uint256",
						"numberOfBytes": "32"
					}
				}
			},
			"userdoc": {
				"kind": "user",
				"methods": {},
				"version": 1
			}
		}
	}
}